{
	"data": {
		"bytecode": {
			"linkReferences": {},
			"object": "60806040526001600b556001600c555f600d556103e86010556040518060a001604052806040518060400160405280600881526020017f536176616e6e616800000000000000000000000000000000000000000000000081525081526020016040518060400160405280600881526020017f4d7564204261746800000000000000000000000000000000000000000000000081525081526020016040518060400160405280600a81526020017f446565702052697665720000000000000000000000000000000000000000000081525081526020016040518060400160405280600681526020017f4a756e676c65000000000000000000000000000000000000000000000000000081525081526020016040518060400160405280601081526020017f4c757875727920486970706f205370610000000000000000000000000000000081525081525060159060056200015a9291906200061a565b506040518060e001604052806040518060400160405280601081526020017f42726f6b656e20437261636b706970650000000000000000000000000000000081525081526020016040518060400160405280600a81526020017f4c6173657220457965730000000000000000000000000000000000000000000081525081526020016040518060400160405280600b81526020017f476f6c64656e20486f726e00000000000000000000000000000000000000000081525081526020016040518060400160405280600c81526020017f4469616d6f6e6420536b696e000000000000000000000000000000000000000081525081526020016040518060400160405280600e81526020017f466c616d696e67204d6f6861776b00000000000000000000000000000000000081525081526020016040518060400160405280600981526020017f4e656f6e205475736b000000000000000000000000000000000000000000000081525081526020016040518060400160405280601081526020017f42756c6c657470726f6f6620486964650000000000000000000000000000000081525081525060169060076200031392919062000678565b5060405180608001604052806040518060400160405280600981526020017f4c6567656e64617279000000000000000000000000000000000000000000000081525081526020016040518060400160405280600481526020017f457069630000000000000000000000000000000000000000000000000000000081525081526020016040518060400160405280600881526020017f4d7974686963616c00000000000000000000000000000000000000000000000081525081526020016040518060400160405280600681526020017f446976696e65000000000000000000000000000000000000000000000000000081525081525060179060046200041b929190620006d6565b5034801562000428575f80fd5b506040516200689c3803806200689c83398181016040528101906200044e9190620009a1565b737936ffe8fbe49ed325b650359fc1a91e73158553856040518060400160405280600281526020017f4842000000000000000000000000000000000000000000000000000000000000815250815f9081620004aa919062000c9a565b508060019081620004bc919062000c9a565b5050505f73ffffffffffffffffffffffffffffffffffffffff168173ffffffffffffffffffffffffffffffffffffffff160362000532575f6040517f1e4fbdf700000000000000000000000000000000000000000000000000000000815260040162000529919062000d8f565b60405180910390fd5b62000543816200055760201b60201c565b506001600881905550505050505062000daa565b5f60075f9054906101000a900473ffffffffffffffffffffffffffffffffffffffff1690508160075f6101000a81548173ffffffffffffffffffffffffffffffffffffffff021916908373ffffffffffffffffffffffffffffffffffffffff1602179055508173ffffffffffffffffffffffffffffffffffffffff168173ffffffffffffffffffffffffffffffffffffffff167f8be0079c531659141344cd1fd0a4f28419497f9722a3daafe3b4186f6b6457e060405160405180910390a35050565b828054828255905f5260205f2090810192821562000665579160200282015b828111156200066457825182908162000653919062000c9a565b509160200191906001019062000639565b5b50905062000674919062000734565b5090565b828054828255905f5260205f20908101928215620006c3579160200282015b82811115620006c2578251829081620006b1919062000c9a565b509160200191906001019062000697565b5b509050620006d2919062000734565b5090565b828054828255905f5260205f2090810192821562000721579160200282015b82811115620007205782518290816200070f919062000c9a565b5091602001919060010190620006f5565b5b50905062000730919062000734565b5090565b5b8082111562000757575f81816200074d91906200075b565b5060010162000735565b5090565b508054620007699062000a9a565b5f825580601f106200077c57506200079b565b601f0160209004905f5260205f20908101906200079a91906200079e565b5b50565b5b80821115620007b7575f815f9055506001016200079f565b5090565b5f604051905090565b5f80fd5b5f80fd5b5f80fd5b5f80fd5b5f601f19601f8301169050919050565b7f4e487b71000000000000000000000000000000000000000000000000000000005f52604160045260245ffd5b6200081c82620007d4565b810181811067ffffffffffffffff821117156200083e576200083d620007e4565b5b80604052505050565b5f62000852620007bb565b905062000860828262000811565b919050565b5f67ffffffffffffffff821115620008825762000881620007e4565b5b6200088d82620007d4565b9050602081019050919050565b5f5b83811015620008b95780820151818401526020810190506200089c565b5f8484015250505050565b5f620008da620008d48462000865565b62000847565b905082815260208101848484011115620008f957620008f8620007d0565b5b620009068482856200089a565b509392505050565b5f82601f830112620009255762000924620007cc565b5b815162000937848260208601620008c4565b91505092915050565b5f73ffffffffffffffffffffffffffffffffffffffff82169050919050565b5f6200096b8262000940565b9050919050565b6200097d816200095f565b811462000988575f80fd5b50565b5f815190506200099b8162000972565b92915050565b5f805f805f60a08688031215620009bd57620009bc620007c4565b5b5f86015167ffffffffffffffff811115620009dd57620009dc620007c8565b5b620009eb888289016200090e565b955050602086015167ffffffffffffffff81111562000a0f5762000a0e620007c8565b5b62000a1d888289016200090e565b945050604062000a30888289016200098b565b935050606062000a43888289016200098b565b925050608062000a56888289016200098b565b9150509295509295909350565b5f81519050919050565b7f4e487b71000000000000000000000000000000000000000000000000000000005f52602260045260245ffd5b5f600282049050600182168062000ab257607f821691505b60208210810362000ac85762000ac762000a6d565b5b50919050565b5f819050815f5260205f209050919050565b5f6020601f8301049050919050565b5f82821b905092915050565b5f6008830262000b2c7fffffffffffffffffffffffffffffffffffffffffffffffffffffffffffffffff8262000aef565b62000b38868362000aef565b95508019841693508086168417925050509392505050565b5f819050919050565b5f819050919050565b5f62000b8262000b7c62000b768462000b50565b62000b59565b62000b50565b9050919050565b5f819050919050565b62000b9d8362000b62565b62000bb562000bac8262000b89565b84845462000afb565b825550505050565b5f90565b62000bcb62000bbd565b62000bd881848462000b92565b505050565b5b8181101562000bff5762000bf35f8262000bc1565b60018101905062000bde565b5050565b601f82111562000c4e5762000c188162000ace565b62000c238462000ae0565b8101602085101562000c33578190505b62000c4b62000c428562000ae0565b83018262000bdd565b50505b505050565b5f82821c905092915050565b5f62000c705f198460080262000c53565b1980831691505092915050565b5f62000c8a838362000c5f565b9150826002028217905092915050565b62000ca58262000a63565b67ffffffffffffffff81111562000cc15762000cc0620007e4565b5b62000ccd825462000a9a565b62000cda82828562000c03565b5f60209050601f83116001811462000d10575f841562000cfb578287015190505b62000d07858262000c7d565b86555062000d76565b601f19841662000d208662000ace565b5f5b8281101562000d495784890151825560018201915060208501945060208101905062000d22565b8683101562000d69578489015162000d65601f89168262000c5f565b8355505b6001600288020188555050505b505050505050565b62000d89816200095f565b82525050565b5f60208201905062000da45f83018462000d7e565b92915050565b615ae48062000db85f395ff3fe6080604052600436106101ed575f3560e01c80638da5cb5b1161010c578063c87b56dd1161009f578063da4e18171161006e578063da4e1817146106f3578063db187f8d1461072f578063e985e9c514610759578063f2fde38b14610795578063fd557633146107bd576101ed565b8063c87b56dd14610647578063cd5661f014610683578063cf63edea1461068d578063d5abeb01146106c9576101ed565b8063a22cb465116100db578063a22cb46514610591578063b88d4fde146105b9578063bdb4b848146105e1578063c37845361461060b576101ed565b80638da5cb5b146104e95780638ea5220f14610513578063933a46011461053d57806395d89b4114610567576101ed565b806342842e0e11610184578063715018a611610153578063715018a61461042f5780637b47ec1a146104455780637dc0bf3f1461046d5780637e9baec2146104ad576101ed565b806342842e0e146103655780636352211e1461038d5780636c0360eb146103c957806370a08231146103f3576101ed565b806311f5a1d4116101c057806311f5a1d4146102bb57806317b8e1cf146102d757806323b872dd1461031357806326190b471461033b576101ed565b806301ffc9a7146101f157806306fdde031461022d578063081812fc14610257578063095ea7b314610293575b5f80fd5b3480156101fc575f80fd5b5061021760048036038101906102129190613f03565b6107e7565b6040516102249190613f48565b60405180910390f35b348015610238575f80fd5b506102416107f8565b60405161024e9190613feb565b60405180910390f35b348015610262575f80fd5b5061027d6004803603810190610278919061403e565b610887565b60405161028a91906140a8565b60405180910390f35b34801561029e575f80fd5b506102b960048036038101906102b491906140eb565b6108a2565b005b6102d560048036038101906102d09190614129565b6108b8565b005b3480156102e2575f80fd5b506102fd60048036038101906102f8919061403e565b610bc2565b60405161030a9190613feb565b60405180910390f35b34801561031e575f80fd5b5061033960048036038101906103349190614167565b610c68565b005b348015610346575f80fd5b5061034f610d67565b60405161035c91906140a8565b60405180910390f35b348015610370575f80fd5b5061038b60048036038101906103869190614167565b610d8c565b005b348015610398575f80fd5b506103b360048036038101906103ae919061403e565b610dab565b6040516103c091906140a8565b60405180910390f35b3480156103d4575f80fd5b506103dd610dbc565b6040516103ea9190613feb565b60405180910390f35b3480156103fe575f80fd5b50610419600480360381019061041491906141b7565b610e48565b60405161042691906141f1565b60405180910390f35b34801561043a575f80fd5b50610443610efe565b005b348015610450575f80fd5b5061046b6004803603810190610466919061403e565b610f11565b005b348015610478575f80fd5b50610493600480360381019061048e919061403e565b6110a4565b6040516104a495949392919061443c565b60405180910390f35b3480156104b8575f80fd5b506104d360048036038101906104ce91906141b7565b611482565b6040516104e091906141f1565b60405180910390f35b3480156104f4575f80fd5b506104fd611497565b60405161050a91906140a8565b60405180910390f35b34801561051e575f80fd5b506105276114bf565b60405161053491906140a8565b60405180910390f35b348015610548575f80fd5b506105516114e4565b60405161055e91906141f1565b60405180910390f35b348015610572575f80fd5b5061057b6114ea565b6040516105889190613feb565b60405180910390f35b34801561059c575f80fd5b506105b760048036038101906105b291906144be565b61157a565b005b3480156105c4575f80fd5b506105df60048036038101906105da9190614628565b611590565b005b3480156105ec575f80fd5b506105f56115ad565b60405161060291906141f1565b60405180910390f35b348015610616575f80fd5b50610631600480360381019061062c919061403e565b6115b3565b60405161063e9190613feb565b60405180910390f35b348015610652575f80fd5b5061066d6004803603810190610668919061403e565b611659565b60405161067a9190613feb565b60405180910390f35b61068b61166b565b005b348015610698575f80fd5b506106b360048036038101906106ae919061403e565b6119ae565b6040516106c09190613f48565b60405180910390f35b3480156106d4575f80fd5b506106dd6119cb565b6040516106ea91906141f1565b60405180910390f35b3480156106fe575f80fd5b506107196004803603810190610714919061403e565b6119d1565b6040516107269190613feb565b60405180910390f35b34801561073a575f80fd5b50610743611a77565b60405161075091906141f1565b60405180910390f35b348015610764575f80fd5b5061077f600480360381019061077a91906146a8565b611a7d565b60405161078c9190613f48565b60405180910390f35b3480156107a0575f80fd5b506107bb60048036038101906107b691906141b7565b611b0b565b005b3480156107c8575f80fd5b506107d1611b8f565b6040516107de9190614741565b60405180910390f35b5f6107f182611bb4565b9050919050565b60605f805461080690614787565b80601f016020809104026020016040519081016040528092919081815260200182805461083290614787565b801561087d5780601f106108545761010080835404028352916020019161087d565b820191905f5260205f20905b81548152906001019060200180831161086057829003601f168201915b5050505050905090565b5f61089182611c14565b5061089b82611c9a565b9050919050565b6108b482826108af611cd3565b611cda565b5050565b6108c0611cec565b60135f8381526020019081526020015f205f9054906101000a900460ff1661091d576040517f08c379a000000000000000000000000000000000000000000000000000000000815260040161091490614801565b60405180910390fd5b60135f8281526020019081526020015f205f9054906101000a900460ff1661097a576040517f08c379a000000000000000000000000000000000000000000000000000000000815260040161097190614869565b60405180910390fd5b601054610987600a611d3b565b106109c7576040517f08c379a00000000000000000000000000000000000000000000000000000000081526004016109be906148d1565b60405180910390fd5b600b54341015610a0c576040517f08c379a0000000000000000000000000000000000000000000000000000000008152600401610a0390614939565b60405180910390fd5b610a16600a611d47565b5f610a21600a611d3b565b9050610a2c81611d5b565b5f610a378484611f6d565b90508060125f8481526020019081526020015f206004015f820151815f019081610a619190614aeb565b506020820151816001019081610a779190614aeb565b5060408201518160020155606082015181600301556080820151816004015560a0820151816005015560c0820151816006019081610ab59190614aeb565b5060e0820151816007015f6101000a81548160ff0219169083151502179055506101008201518160070160016101000a81548160ff021916908315150217905550610120820151816008019080519060200190610b13929190613d36565b50610140820151816009019081610b2a9190614aeb565b5061016082015181600a019081610b419190614aeb565b50905050610b70600e5f9054906101000a900473ffffffffffffffffffffffffffffffffffffffff16346123c5565b813373ffffffffffffffffffffffffffffffffffffffff167f3706ab2c6d967abb932e8f22bd9cd7192da65e00b816500c5cddad373859504660405160405180910390a35050610bbe612472565b5050565b60178181548110610bd1575f80fd5b905f5260205f20015f915090508054610be990614787565b80601f0160208091040260200160405190810160405280929190818152602001828054610c1590614787565b8015610c605780601f10610c3757610100808354040283529160200191610c60565b820191905f5260205f20905b815481529060010190602001808311610c4357829003601f168201915b505050505081565b5f73ffffffffffffffffffffffffffffffffffffffff168273ffffffffffffffffffffffffffffffffffffffff1603610cd8575f6040517f64a0ae92000000000000000000000000000000000000000000000000000000008152600401610ccf91906140a8565b60405180910390fd5b5f610ceb8383610ce6611cd3565b61247c565b90508373ffffffffffffffffffffffffffffffffffffffff168173ffffffffffffffffffffffffffffffffffffffff1614610d61578382826040517f64283d7b000000000000000000000000000000000000000000000000000000008152600401610d5893929190614bba565b60405180910390fd5b50505050565b600f5f9054906101000a900473ffffffffffffffffffffffffffffffffffffffff1681565b610da683838360405180602001604052805f815250611590565b505050565b5f610db582611c14565b9050919050565b60098054610dc990614787565b80601f0160208091040260200160405190810160405280929190818152602001828054610df590614787565b8015610e405780601f10610e1757610100808354040283529160200191610e40565b820191905f5260205f20905b815481529060010190602001808311610e2357829003601f168201915b505050505081565b5f8073ffffffffffffffffffffffffffffffffffffffff168273ffffffffffffffffffffffffffffffffffffffff1603610eb9575f6040517f89c62b64000000000000000000000000000000000000000000000000000000008152600401610eb091906140a8565b60405180910390fd5b60035f8373ffffffffffffffffffffffffffffffffffffffff1673ffffffffffffffffffffffffffffffffffffffff1681526020019081526020015f20549050919050565b610f06612687565b610f0f5f61270e565b565b3373ffffffffffffffffffffffffffffffffffffffff16610f3182610dab565b73ffffffffffffffffffffffffffffffffffffffff1614610f87576040517f08c379a0000000000000000000000000000000000000000000000000000000008152600401610f7e90614c39565b60405180910390fd5b610f90816127d1565b60125f8281526020019081526020015f205f8082015f9055600182015f6101000a81549073ffffffffffffffffffffffffffffffffffffffff0219169055600282015f9055600382015f9055600482015f8082015f610fef9190613d81565b600182015f610ffe9190613d81565b600282015f9055600382015f9055600482015f9055600582015f9055600682015f6110299190613d81565b600782015f6101000a81549060ff02191690556007820160016101000a81549060ff0219169055600882015f61105f9190613dbe565b600982015f61106e9190613d81565b600a82015f61107d9190613d81565b5050505060135f8281526020019081526020015f205f6101000a81549060ff021916905550565b6012602052805f5260405f205f91509050805f015490806001015f9054906101000a900473ffffffffffffffffffffffffffffffffffffffff169080600201549080600301549080600401604051806101800160405290815f8201805461110a90614787565b80601f016020809104026020016040519081016040528092919081815260200182805461113690614787565b80156111815780601f1061115857610100808354040283529160200191611181565b820191905f5260205f20905b81548152906001019060200180831161116457829003601f168201915b5050505050815260200160018201805461119a90614787565b80601f01602080910402602001604051908101604052809291908181526020018280546111c690614787565b80156112115780601f106111e857610100808354040283529160200191611211565b820191905f5260205f20905b8154815290600101906020018083116111f457829003601f168201915b505050505081526020016002820154815260200160038201548152602001600482015481526020016005820154815260200160068201805461125290614787565b80601f016020809104026020016040519081016040528092919081815260200182805461127e90614787565b80156112c95780601f106112a0576101008083540402835291602001916112c9565b820191905f5260205f20905b8154815290600101906020018083116112ac57829003601f168201915b50505050508152602001600782015f9054906101000a900460ff161515151581526020016007820160019054906101000a900460ff161515151581526020016008820180548060200260200160405190810160405280929190818152602001828054801561135457602002820191905f5260205f20905b815481526020019060010190808311611340575b5050505050815260200160098201805461136d90614787565b80601f016020809104026020016040519081016040528092919081815260200182805461139990614787565b80156113e45780601f106113bb576101008083540402835291602001916113e4565b820191905f5260205f20905b8154815290600101906020018083116113c757829003601f168201915b50505050508152602001600a820180546113fd90614787565b80601f016020809104026020016040519081016040528092919081815260200182805461142990614787565b80156114745780601f1061144b57610100808354040283529160200191611474565b820191905f5260205f20905b81548152906001019060200180831161145757829003601f168201915b505050505081525050905085565b6014602052805f5260405f205f915090505481565b5f60075f9054906101000a900473ffffffffffffffffffffffffffffffffffffffff16905090565b600e5f9054906101000a900473ffffffffffffffffffffffffffffffffffffffff1681565b600c5481565b6060600180546114f990614787565b80601f016020809104026020016040519081016040528092919081815260200182805461152590614787565b80156115705780601f1061154757610100808354040283529160200191611570565b820191905f5260205f20905b81548152906001019060200180831161155357829003601f168201915b5050505050905090565b61158c611585611cd3565b8383612853565b5050565b61159b848484610c68565b6115a7848484846129bc565b50505050565b600b5481565b601581815481106115c2575f80fd5b905f5260205f20015f9150905080546115da90614787565b80601f016020809104026020016040519081016040528092919081815260200182805461160690614787565b80156116515780601f1061162857610100808354040283529160200191611651565b820191905f5260205f20905b81548152906001019060200180831161163457829003601f168201915b505050505081565b606061166482612b6e565b9050919050565b611673611cec565b601054611680600a611d3b565b106116c0576040517f08c379a00000000000000000000000000000000000000000000000000000000081526004016116b790614cc7565b60405180910390fd5b600b54341015611705576040517f08c379a00000000000000000000000000000000000000000000000000000000081526004016116fc90614d2f565b60405180910390fd5b600d5460115f9054906101000a900473ffffffffffffffffffffffffffffffffffffffff1673ffffffffffffffffffffffffffffffffffffffff166370a08231336040518263ffffffff1660e01b815260040161176291906140a8565b602060405180830381865afa15801561177d573d5f803e3d5ffd5b505050506040513d601f19601f820116820180604052508101906117a19190614d61565b10156117e2576040517f08c379a00000000000000000000000000000000000000000000000000000000081526004016117d990614dfc565b60405180910390fd5b6117ec600a611d47565b5f6117f7600a611d3b565b905061180281611d5b565b5f61180c82612faa565b90508060125f8481526020019081526020015f206004015f820151815f0190816118369190614aeb565b50602082015181600101908161184c9190614aeb565b5060408201518160020155606082015181600301556080820151816004015560a0820151816005015560c082015181600601908161188a9190614aeb565b5060e0820151816007015f6101000a81548160ff0219169083151502179055506101008201518160070160016101000a81548160ff0219169083151502179055506101208201518160080190805190602001906118e8929190613d36565b506101408201518160090190816118ff9190614aeb565b5061016082015181600a0190816119169190614aeb565b509050503460125f8481526020019081526020015f206002018190555061195e600e5f9054906101000a900473ffffffffffffffffffffffffffffffffffffffff16346123c5565b813373ffffffffffffffffffffffffffffffffffffffff167f09c806df7023fad0f5998bfe70725c0f334a52b43810db7e7cfd475c35e1c76d60405160405180910390a350506119ac612472565b565b6013602052805f5260405f205f915054906101000a900460ff1681565b60105481565b601681815481106119e0575f80fd5b905f5260205f20015f9150905080546119f890614787565b80601f0160208091040260200160405190810160405280929190818152602001828054611a2490614787565b8015611a6f5780601f10611a4657610100808354040283529160200191611a6f565b820191905f5260205f20905b815481529060010190602001808311611a5257829003601f168201915b505050505081565b600d5481565b5f60055f8473ffffffffffffffffffffffffffffffffffffffff1673ffffffffffffffffffffffffffffffffffffffff1681526020019081526020015f205f8373ffffffffffffffffffffffffffffffffffffffff1673ffffffffffffffffffffffffffffffffffffffff1681526020019081526020015f205f9054906101000a900460ff16905092915050565b611b13612687565b5f73ffffffffffffffffffffffffffffffffffffffff168173ffffffffffffffffffffffffffffffffffffffff1603611b83575f6040517f1e4fbdf7000000000000000000000000000000000000000000000000000000008152600401611b7a91906140a8565b60405180910390fd5b611b8c8161270e565b50565b60115f9054906101000a900473ffffffffffffffffffffffffffffffffffffffff1681565b5f634906490660e01b7bffffffffffffffffffffffffffffffffffffffffffffffffffffffff1916827bffffffffffffffffffffffffffffffffffffffffffffffffffffffff19161480611c0d5750611c0c826132b3565b5b9050919050565b5f80611c1f83613394565b90505f73ffffffffffffffffffffffffffffffffffffffff168173ffffffffffffffffffffffffffffffffffffffff1603611c9157826040517f7e273289000000000000000000000000000000000000000000000000000000008152600401611c8891906141f1565b60405180910390fd5b80915050919050565b5f60045f8381526020019081526020015f205f9054906101000a900473ffffffffffffffffffffffffffffffffffffffff169050919050565b5f33905090565b611ce783838360016133cd565b505050565b600260085403611d31576040517f08c379a0000000000000000000000000000000000000000000000000000000008152600401611d2890614e64565b60405180910390fd5b6002600881905550565b5f815f01549050919050565b6001815f015f828254019250508190555050565b611d65338261358c565b611d7781611d7283611659565b6135a9565b611d7f613ddc565b81815f01818152505033816020019073ffffffffffffffffffffffffffffffffffffffff16908173ffffffffffffffffffffffffffffffffffffffff1681525050428160600181815250508060125f8481526020019081526020015f205f820151815f01556020820151816001015f6101000a81548173ffffffffffffffffffffffffffffffffffffffff021916908373ffffffffffffffffffffffffffffffffffffffff16021790555060408201518160020155606082015181600301556080820151816004015f820151815f019081611e5a9190614aeb565b506020820151816001019081611e709190614aeb565b5060408201518160020155606082015181600301556080820151816004015560a0820151816005015560c0820151816006019081611eae9190614aeb565b5060e0820151816007015f6101000a81548160ff0219169083151502179055506101008201518160070160016101000a81548160ff021916908315150217905550610120820151816008019080519060200190611f0c929190613d36565b50610140820151816009019081611f239190614aeb565b5061016082015181600a019081611f3a9190614aeb565b505050905050600160135f8481526020019081526020015f205f6101000a81548160ff0219169083151502179055505050565b611f75613e23565b611f7d613e23565b611f8f611f8a600a611d3b565b613603565b604051602001611f9f9190614f06565b604051602081830303815290604052815f0181905250604051806060016040528060288152602001615a22602891398160200181905250600260125f8581526020019081526020015f206004016002015460125f8781526020019081526020015f20600401600201546120129190614f54565b61201c9190614fb4565b816040018181525050600260125f8581526020019081526020015f206004016003015460125f8781526020019081526020015f20600401600301546120619190614f54565b61206b9190614fb4565b816060018181525050600260125f8581526020019081526020015f206004016004015460125f8781526020019081526020015f20600401600401546120b09190614f54565b6120ba9190614fb4565b8160800181815250505f8160a001818152505060156120e06015805490504260076136cd565b815481106120f1576120f0614fe4565b5b905f5260205f2001805461210490614787565b80601f016020809104026020016040519081016040528092919081815260200182805461213090614787565b801561217b5780601f106121525761010080835404028352916020019161217b565b820191905f5260205f20905b81548152906001019060200180831161215e57829003601f168201915b50505050508160c00181905250601761219b6017805490504260086136cd565b815481106121ac576121ab614fe4565b5b905f5260205f200180546121bf90614787565b80601f01602080910402602001604051908101604052809291908181526020018280546121eb90614787565b80156122365780601f1061220d57610100808354040283529160200191612236565b820191905f5260205f20905b81548152906001019060200180831161221957829003601f168201915b505050505081610140018190525060166122576016805490504260096136cd565b8154811061226857612267614fe4565b5b905f5260205f2001805461227b90614787565b80601f01602080910402602001604051908101604052809291908181526020018280546122a790614787565b80156122f25780601f106122c9576101008083540402835291602001916122f2565b820191905f5260205f20905b8154815290600101906020018083116122d557829003601f168201915b505050505081610160018190525060018160e00190151590811515815250505f816101000190151590811515815250505f600267ffffffffffffffff81111561233e5761233d614504565b5b60405190808252806020026020018201604052801561236c5781602001602082028036833780820191505090505b50905084815f8151811061238357612382614fe4565b5b60200260200101818152505083816001815181106123a4576123a3614fe4565b5b60200260200101818152505080826101200181905250819250505092915050565b5f8273ffffffffffffffffffffffffffffffffffffffff16826040516123ea9061503e565b5f6040518083038185875af1925050503d805f8114612424576040519150601f19603f3d011682016040523d82523d5f602084013e612429565b606091505b505090508061246d576040517f08c379a00000000000000000000000000000000000000000000000000000000081526004016124649061509c565b60405180910390fd5b505050565b6001600881905550565b5f8061248784613394565b90505f73ffffffffffffffffffffffffffffffffffffffff168373ffffffffffffffffffffffffffffffffffffffff16146124c8576124c7818486613711565b5b5f73ffffffffffffffffffffffffffffffffffffffff168173ffffffffffffffffffffffffffffffffffffffff1614612553576125075f855f806133cd565b600160035f8373ffffffffffffffffffffffffffffffffffffffff1673ffffffffffffffffffffffffffffffffffffffff1681526020019081526020015f205f82825403925050819055505b5f73ffffffffffffffffffffffffffffffffffffffff168573ffffffffffffffffffffffffffffffffffffffff16146125d257600160035f8773ffffffffffffffffffffffffffffffffffffffff1673ffffffffffffffffffffffffffffffffffffffff1681526020019081526020015f205f82825401925050819055505b8460025f8681526020019081526020015f205f6101000a81548173ffffffffffffffffffffffffffffffffffffffff021916908373ffffffffffffffffffffffffffffffffffffffff160217905550838573ffffffffffffffffffffffffffffffffffffffff168273ffffffffffffffffffffffffffffffffffffffff167fddf252ad1be2c89b69c2b068fc378daa952ba7f163c4a11628f55a4df523b3ef60405160405180910390a4809150509392505050565b61268f611cd3565b73ffffffffffffffffffffffffffffffffffffffff166126ad611497565b73ffffffffffffffffffffffffffffffffffffffff161461270c576126d0611cd3565b6040517f118cdaa700000000000000000000000000000000000000000000000000000000815260040161270391906140a8565b60405180910390fd5b565b5f60075f9054906101000a900473ffffffffffffffffffffffffffffffffffffffff1690508160075f6101000a81548173ffffffffffffffffffffffffffffffffffffffff021916908373ffffffffffffffffffffffffffffffffffffffff1602179055508173ffffffffffffffffffffffffffffffffffffffff168173ffffffffffffffffffffffffffffffffffffffff167f8be0079c531659141344cd1fd0a4f28419497f9722a3daafe3b4186f6b6457e060405160405180910390a35050565b5f6127dd5f835f61247c565b90505f73ffffffffffffffffffffffffffffffffffffffff168173ffffffffffffffffffffffffffffffffffffffff160361284f57816040517f7e27328900000000000000000000000000000000000000000000000000000000815260040161284691906141f1565b60405180910390fd5b5050565b5f73ffffffffffffffffffffffffffffffffffffffff168273ffffffffffffffffffffffffffffffffffffffff16036128c357816040517f5b08ba180000000000000000000000000000000000000000000000000000000081526004016128ba91906140a8565b60405180910390fd5b8060055f8573ffffffffffffffffffffffffffffffffffffffff1673ffffffffffffffffffffffffffffffffffffffff1681526020019081526020015f205f8473ffffffffffffffffffffffffffffffffffffffff1673ffffffffffffffffffffffffffffffffffffffff1681526020019081526020015f205f6101000a81548160ff0219169083151502179055508173ffffffffffffffffffffffffffffffffffffffff168373ffffffffffffffffffffffffffffffffffffffff167f17307eab39ab6107e8899845ad3d59bd9653f200f220920489ca2b5937696c31836040516129af9190613f48565b60405180910390a3505050565b5f8373ffffffffffffffffffffffffffffffffffffffff163b1115612b68578273ffffffffffffffffffffffffffffffffffffffff1663150b7a026129ff611cd3565b8685856040518563ffffffff1660e01b8152600401612a21949392919061510c565b6020604051808303815f875af1925050508015612a5c57506040513d601f19601f82011682018060405250810190612a59919061516a565b60015b612add573d805f8114612a8a576040519150601f19603f3d011682016040523d82523d5f602084013e612a8f565b606091505b505f815103612ad557836040517f64a0ae92000000000000000000000000000000000000000000000000000000008152600401612acc91906140a8565b60405180910390fd5b805181602001fd5b63150b7a0260e01b7bffffffffffffffffffffffffffffffffffffffffffffffffffffffff1916817bffffffffffffffffffffffffffffffffffffffffffffffffffffffff191614612b6657836040517f64a0ae92000000000000000000000000000000000000000000000000000000008152600401612b5d91906140a8565b60405180910390fd5b505b50505050565b60605f60125f8481526020019081526020015f20600401604051806101800160405290815f82018054612ba090614787565b80601f0160208091040260200160405190810160405280929190818152602001828054612bcc90614787565b8015612c175780601f10612bee57610100808354040283529160200191612c17565b820191905f5260205f20905b815481529060010190602001808311612bfa57829003601f168201915b50505050508152602001600182018054612c3090614787565b80601f0160208091040260200160405190810160405280929190818152602001828054612c5c90614787565b8015612ca75780601f10612c7e57610100808354040283529160200191612ca7565b820191905f5260205f20905b815481529060010190602001808311612c8a57829003601f168201915b5050505050815260200160028201548152602001600382015481526020016004820154815260200160058201548152602001600682018054612ce890614787565b80601f0160208091040260200160405190810160405280929190818152602001828054612d1490614787565b8015612d5f5780601f10612d3657610100808354040283529160200191612d5f565b820191905f5260205f20905b815481529060010190602001808311612d4257829003601f168201915b50505050508152602001600782015f9054906101000a900460ff161515151581526020016007820160019054906101000a900460ff1615151515815260200160088201805480602002602001604051908101604052809291908181526020018280548015612dea57602002820191905f5260205f20905b815481526020019060010190808311612dd6575b50505050508152602001600982018054612e0390614787565b80601f0160208091040260200160405190810160405280929190818152602001828054612e2f90614787565b8015612e7a5780601f10612e5157610100808354040283529160200191612e7a565b820191905f5260205f20905b815481529060010190602001808311612e5d57829003601f168201915b50505050508152602001600a82018054612e9390614787565b80601f0160208091040260200160405190810160405280929190818152602001828054612ebf90614787565b8015612f0a5780601f10612ee157610100808354040283529160200191612f0a565b820191905f5260205f20905b815481529060010190602001808311612eed57829003601f168201915b50505050508152505090505f612f438260c001518360400151846060015185608001518660a001518761014001518861016001516137d4565b9050612f82612f5185613603565b835f0151846020015184604051602001612f6e9493929190615337565b60405160208183030381529060405261382f565b604051602001612f9291906153f5565b60405160208183030381529060405292505050919050565b612fb2613e23565b612fba613e23565b612fc383613603565b604051602001612fd39190615460565b604051602081830303815290604052815f0181905250604051806060016040528060258152602001615a8a60259139816020018190525061301760644260016136cd565b81604001818152505061302d60644260026136cd565b81606001818152505061304360644260036136cd565b8160800181815250505f8160a001818152505060156130696015805490504260046136cd565b8154811061307a57613079614fe4565b5b905f5260205f2001805461308d90614787565b80601f01602080910402602001604051908101604052809291908181526020018280546130b990614787565b80156131045780601f106130db57610100808354040283529160200191613104565b820191905f5260205f20905b8154815290600101906020018083116130e757829003601f168201915b50505050508160c0018190525060176131246017805490504260056136cd565b8154811061313557613134614fe4565b5b905f5260205f2001805461314890614787565b80601f016020809104026020016040519081016040528092919081815260200182805461317490614787565b80156131bf5780601f10613196576101008083540402835291602001916131bf565b820191905f5260205f20905b8154815290600101906020018083116131a257829003601f168201915b505050505081610140018190525060166131e06016805490504260066136cd565b815481106131f1576131f0614fe4565b5b905f5260205f2001805461320490614787565b80601f016020809104026020016040519081016040528092919081815260200182805461323090614787565b801561327b5780601f106132525761010080835404028352916020019161327b565b820191905f5260205f20905b81548152906001019060200180831161325e57829003601f168201915b50505050508161016001819052505f8160e00190151590811515815250505f8161010001901515908115158152505080915050919050565b5f7f80ac58cd000000000000000000000000000000000000000000000000000000007bffffffffffffffffffffffffffffffffffffffffffffffffffffffff1916827bffffffffffffffffffffffffffffffffffffffffffffffffffffffff1916148061337d57507f5b5e139f000000000000000000000000000000000000000000000000000000007bffffffffffffffffffffffffffffffffffffffffffffffffffffffff1916827bffffffffffffffffffffffffffffffffffffffffffffffffffffffff1916145b8061338d575061338c826139ae565b5b9050919050565b5f60025f8381526020019081526020015f205f9054906101000a900473ffffffffffffffffffffffffffffffffffffffff169050919050565b808061340557505f73ffffffffffffffffffffffffffffffffffffffff168273ffffffffffffffffffffffffffffffffffffffff1614155b15613537575f61341484611c14565b90505f73ffffffffffffffffffffffffffffffffffffffff168373ffffffffffffffffffffffffffffffffffffffff161415801561347e57508273ffffffffffffffffffffffffffffffffffffffff168173ffffffffffffffffffffffffffffffffffffffff1614155b8015613491575061348f8184611a7d565b155b156134d357826040517fa9fbf51f0000000000000000000000000000000000000000000000000000000081526004016134ca91906140a8565b60405180910390fd5b811561353557838573ffffffffffffffffffffffffffffffffffffffff168273ffffffffffffffffffffffffffffffffffffffff167f8c5be1e5ebec7d5bd14f71427d1e84f3dd0314c0f7b2291e5b200ac8c7c3b92560405160405180910390a45b505b8360045f8581526020019081526020015f205f6101000a81548173ffffffffffffffffffffffffffffffffffffffff021916908373ffffffffffffffffffffffffffffffffffffffff16021790555050505050565b6135a5828260405180602001604052805f815250613a17565b5050565b8060065f8481526020019081526020015f2090816135c79190614aeb565b507ff8e1a15aba9398e019f0b49df1a4fde98ee17ae345cb5f6b5e2c27f5033e8ce7826040516135f791906141f1565b60405180910390a15050565b60605f600161361184613a32565b0190505f8167ffffffffffffffff81111561362f5761362e614504565b5b6040519080825280601f01601f1916602001820160405280156136615781602001600182028036833780820191505090505b5090505f82602001820190505b6001156136c2578080600190039150507f3031323334353637383961626364656600000000000000000000000000000000600a86061a8153600a85816136b7576136b6614f87565b5b0494505f850361366e575b819350505050919050565b5f83423385856040516020016136e694939291906154e6565b604051602081830303815290604052805190602001205f1c6137089190615533565b90509392505050565b61371c838383613b83565b6137cf575f73ffffffffffffffffffffffffffffffffffffffff168373ffffffffffffffffffffffffffffffffffffffff160361379057806040517f7e27328900000000000000000000000000000000000000000000000000000000815260040161378791906141f1565b60405180910390fd5b81816040517f177e802f0000000000000000000000000000000000000000000000000000000081526004016137c6929190615563565b60405180910390fd5b505050565b6060876137e088613603565b6137e988613603565b6137f288613603565b6137fb88613603565b878760405160200161381397969594939291906158e2565b6040516020818303038152906040529050979650505050505050565b60605f82510361384f5760405180602001604052805f81525090506139a9565b5f604051806060016040528060408152602001615a4a6040913990505f60036002855161387c9190614f54565b6138869190614fb4565b600461389291906159e0565b90505f6020826138a29190614f54565b67ffffffffffffffff8111156138bb576138ba614504565b5b6040519080825280601f01601f1916602001820160405280156138ed5781602001600182028036833780820191505090505b509050818152600183018586518101602084015b81831015613968576003830192508251603f8160121c1685015160f81b8252600182019150603f81600c1c1685015160f81b8252600182019150603f8160061c1685015160f81b8252600182019150603f811685015160f81b825260018201915050613901565b60038951066001811461398257600281146139925761399d565b613d3d60f01b600283035261399d565b603d60f81b60018303525b50505050508093505050505b919050565b5f7f01ffc9a7000000000000000000000000000000000000000000000000000000007bffffffffffffffffffffffffffffffffffffffffffffffffffffffff1916827bffffffffffffffffffffffffffffffffffffffffffffffffffffffff1916149050919050565b613a218383613c43565b613a2d5f8484846129bc565b505050565b5f805f90507a184f03e93ff9f4daa797ed6e38ed64bf6a1f0100000000000000008310613a8e577a184f03e93ff9f4daa797ed6e38ed64bf6a1f0100000000000000008381613a8457613a83614f87565b5b0492506040810190505b6d04ee2d6d415b85acef81000000008310613acb576d04ee2d6d415b85acef81000000008381613ac157613ac0614f87565b5b0492506020810190505b662386f26fc100008310613afa57662386f26fc100008381613af057613aef614f87565b5b0492506010810190505b6305f5e1008310613b23576305f5e1008381613b1957613b18614f87565b5b0492506008810190505b6127108310613b48576127108381613b3e57613b3d614f87565b5b0492506004810190505b60648310613b6b5760648381613b6157613b60614f87565b5b0492506002810190505b600a8310613b7a576001810190505b80915050919050565b5f8073ffffffffffffffffffffffffffffffffffffffff168373ffffffffffffffffffffffffffffffffffffffff1614158015613c3a57508273ffffffffffffffffffffffffffffffffffffffff168473ffffffffffffffffffffffffffffffffffffffff161480613bfb5750613bfa8484611a7d565b5b80613c3957508273ffffffffffffffffffffffffffffffffffffffff16613c2183611c9a565b73ffffffffffffffffffffffffffffffffffffffff16145b5b90509392505050565b5f73ffffffffffffffffffffffffffffffffffffffff168273ffffffffffffffffffffffffffffffffffffffff1603613cb3575f6040517f64a0ae92000000000000000000000000000000000000000000000000000000008152600401613caa91906140a8565b60405180910390fd5b5f613cbf83835f61247c565b90505f73ffffffffffffffffffffffffffffffffffffffff168173ffffffffffffffffffffffffffffffffffffffff1614613d31575f6040517f73c6ac6e000000000000000000000000000000000000000000000000000000008152600401613d2891906140a8565b60405180910390fd5b505050565b828054828255905f5260205f20908101928215613d70579160200282015b82811115613d6f578251825591602001919060010190613d54565b5b509050613d7d9190613e82565b5090565b508054613d8d90614787565b5f825580601f10613d9e5750613dbb565b601f0160209004905f5260205f2090810190613dba9190613e82565b5b50565b5080545f8255905f5260205f2090810190613dd99190613e82565b50565b6040518060a001604052805f81526020015f73ffffffffffffffffffffffffffffffffffffffff1681526020015f81526020015f8152602001613e1d613e23565b81525090565b60405180610180016040528060608152602001606081526020015f81526020015f81526020015f81526020015f8152602001606081526020015f151581526020015f151581526020016060815260200160608152602001606081525090565b5b80821115613e99575f815f905550600101613e83565b5090565b5f604051905090565b5f80fd5b5f80fd5b5f7fffffffff0000000000000000000000000000000000000000000000000000000082169050919050565b613ee281613eae565b8114613eec575f80fd5b50565b5f81359050613efd81613ed9565b92915050565b5f60208284031215613f1857613f17613ea6565b5b5f613f2584828501613eef565b91505092915050565b5f8115159050919050565b613f4281613f2e565b82525050565b5f602082019050613f5b5f830184613f39565b92915050565b5f81519050919050565b5f82825260208201905092915050565b5f5b83811015613f98578082015181840152602081019050613f7d565b5f8484015250505050565b5f601f19601f8301169050919050565b5f613fbd82613f61565b613fc78185613f6b565b9350613fd7818560208601613f7b565b613fe081613fa3565b840191505092915050565b5f6020820190508181035f8301526140038184613fb3565b905092915050565b5f819050919050565b61401d8161400b565b8114614027575f80fd5b50565b5f8135905061403881614014565b92915050565b5f6020828403121561405357614052613ea6565b5b5f6140608482850161402a565b91505092915050565b5f73ffffffffffffffffffffffffffffffffffffffff82169050919050565b5f61409282614069565b9050919050565b6140a281614088565b82525050565b5f6020820190506140bb5f830184614099565b92915050565b6140ca81614088565b81146140d4575f80fd5b50565b5f813590506140e5816140c1565b92915050565b5f806040838503121561410157614100613ea6565b5b5f61410e858286016140d7565b925050602061411f8582860161402a565b9150509250929050565b5f806040838503121561413f5761413e613ea6565b5b5f61414c8582860161402a565b925050602061415d8582860161402a565b9150509250929050565b5f805f6060848603121561417e5761417d613ea6565b5b5f61418b868287016140d7565b935050602061419c868287016140d7565b92505060406141ad8682870161402a565b9150509250925092565b5f602082840312156141cc576141cb613ea6565b5b5f6141d9848285016140d7565b91505092915050565b6141eb8161400b565b82525050565b5f6020820190506142045f8301846141e2565b92915050565b5f82825260208201905092915050565b5f61422482613f61565b61422e818561420a565b935061423e818560208601613f7b565b61424781613fa3565b840191505092915050565b61425b8161400b565b82525050565b61426a81613f2e565b82525050565b5f81519050919050565b5f82825260208201905092915050565b5f819050602082019050919050565b5f6142a48383614252565b60208301905092915050565b5f602082019050919050565b5f6142c682614270565b6142d0818561427a565b93506142db8361428a565b805f5b8381101561430b5781516142f28882614299565b97506142fd836142b0565b9250506001810190506142de565b5085935050505092915050565b5f61018083015f8301518482035f860152614333828261421a565b9150506020830151848203602086015261434d828261421a565b91505060408301516143626040860182614252565b5060608301516143756060860182614252565b5060808301516143886080860182614252565b5060a083015161439b60a0860182614252565b5060c083015184820360c08601526143b3828261421a565b91505060e08301516143c860e0860182614261565b506101008301516143dd610100860182614261565b506101208301518482036101208601526143f782826142bc565b915050610140830151848203610140860152614413828261421a565b91505061016083015184820361016086015261442f828261421a565b9150508091505092915050565b5f60a08201905061444f5f8301886141e2565b61445c6020830187614099565b61446960408301866141e2565b61447660608301856141e2565b81810360808301526144888184614318565b90509695505050505050565b61449d81613f2e565b81146144a7575f80fd5b50565b5f813590506144b881614494565b92915050565b5f80604083850312156144d4576144d3613ea6565b5b5f6144e1858286016140d7565b92505060206144f2858286016144aa565b9150509250929050565b5f80fd5b5f80fd5b7f4e487b71000000000000000000000000000000000000000000000000000000005f52604160045260245ffd5b61453a82613fa3565b810181811067ffffffffffffffff8211171561455957614558614504565b5b80604052505050565b5f61456b613e9d565b90506145778282614531565b919050565b5f67ffffffffffffffff82111561459657614595614504565b5b61459f82613fa3565b9050602081019050919050565b828183375f83830152505050565b5f6145cc6145c78461457c565b614562565b9050828152602081018484840111156145e8576145e7614500565b5b6145f38482856145ac565b509392505050565b5f82601f83011261460f5761460e6144fc565b5b813561461f8482602086016145ba565b91505092915050565b5f805f80608085870312156146405761463f613ea6565b5b5f61464d878288016140d7565b945050602061465e878288016140d7565b935050604061466f8782880161402a565b925050606085013567ffffffffffffffff8111156146905761468f613eaa565b5b61469c878288016145fb565b91505092959194509250565b5f80604083850312156146be576146bd613ea6565b5b5f6146cb858286016140d7565b92505060206146dc858286016140d7565b9150509250929050565b5f819050919050565b5f6147096147046146ff84614069565b6146e6565b614069565b9050919050565b5f61471a826146ef565b9050919050565b5f61472b82614710565b9050919050565b61473b81614721565b82525050565b5f6020820190506147545f830184614732565b92915050565b7f4e487b71000000000000000000000000000000000000000000000000000000005f52602260045260245ffd5b5f600282049050600182168061479e57607f821691505b6020821081036147b1576147b061475a565b5b50919050565b7f46617468657220686970706f20646f6573206e6f7420657869737400000000005f82015250565b5f6147eb601b83613f6b565b91506147f6826147b7565b602082019050919050565b5f6020820190508181035f830152614818816147df565b9050919050565b7f4d6f7468657220686970706f20646f6573206e6f7420657869737400000000005f82015250565b5f614853601b83613f6b565b915061485e8261481f565b602082019050919050565b5f6020820190508181035f83015261488081614847565b9050919050565b7f416c6c20686970706f732068617665206265656e2062726564000000000000005f82015250565b5f6148bb601983613f6b565b91506148c682614887565b602082019050919050565b5f6020820190508181035f8301526148e8816148af565b9050919050565b7f496e73756666696369656e742066756e647320666f72206272656564696e67005f82015250565b5f614923601f83613f6b565b915061492e826148ef565b602082019050919050565b5f6020820190508181035f83015261495081614917565b9050919050565b5f819050815f5260205f209050919050565b5f6020601f8301049050919050565b5f82821b905092915050565b5f600883026149b37fffffffffffffffffffffffffffffffffffffffffffffffffffffffffffffffff82614978565b6149bd8683614978565b95508019841693508086168417925050509392505050565b5f6149ef6149ea6149e58461400b565b6146e6565b61400b565b9050919050565b5f819050919050565b614a08836149d5565b614a1c614a14826149f6565b848454614984565b825550505050565b5f90565b614a30614a24565b614a3b8184846149ff565b505050565b5b81811015614a5e57614a535f82614a28565b600181019050614a41565b5050565b601f821115614aa357614a7481614957565b614a7d84614969565b81016020851015614a8c578190505b614aa0614a9885614969565b830182614a40565b50505b505050565b5f82821c905092915050565b5f614ac35f1984600802614aa8565b1980831691505092915050565b5f614adb8383614ab4565b9150826002028217905092915050565b614af482613f61565b67ffffffffffffffff811115614b0d57614b0c614504565b5b614b178254614787565b614b22828285614a62565b5f60209050601f831160018114614b53575f8415614b41578287015190505b614b4b8582614ad0565b865550614bb2565b601f198416614b6186614957565b5f5b82811015614b8857848901518255600182019150602085019450602081019050614b63565b86831015614ba55784890151614ba1601f891682614ab4565b8355505b6001600288020188555050505b505050505050565b5f606082019050614bcd5f830186614099565b614bda60208301856141e2565b614be76040830184614099565b949350505050565b7f596f7520646f206e6f74206f776e207468697320746f6b656e000000000000005f82015250565b5f614c23601983613f6b565b9150614c2e82614bef565b602082019050919050565b5f6020820190508181035f830152614c5081614c17565b9050919050565b7f416c6c206c6567656e6461727920686970706f732068617665206265656e206d5f8201527f696e746564000000000000000000000000000000000000000000000000000000602082015250565b5f614cb1602583613f6b565b9150614cbc82614c57565b604082019050919050565b5f6020820190508181035f830152614cde81614ca5565b9050919050565b7f496e73756666696369656e742066756e647320666f72206d696e74696e6700005f82015250565b5f614d19601e83613f6b565b9150614d2482614ce5565b602082019050919050565b5f6020820190508181035f830152614d4681614d0d565b9050919050565b5f81519050614d5b81614014565b92915050565b5f60208284031215614d7657614d75613ea6565b5b5f614d8384828501614d4d565b91505092915050565b7f596f75206e656564203130302c303030202444554e4720746f206d696e7420615f8201527f206c6567656e6461727920686970706f00000000000000000000000000000000602082015250565b5f614de6603083613f6b565b9150614df182614d8c565b604082019050919050565b5f6020820190508181035f830152614e1381614dda565b9050919050565b7f5265656e7472616e637947756172643a207265656e7472616e742063616c6c005f82015250565b5f614e4e601f83613f6b565b9150614e5982614e1a565b602082019050919050565b5f6020820190508181035f830152614e7b81614e42565b9050919050565b5f81905092915050565b7f4272656420486970706f202300000000000000000000000000000000000000005f82015250565b5f614ec0600c83614e82565b9150614ecb82614e8c565b600c82019050919050565b5f614ee082613f61565b614eea8185614e82565b9350614efa818560208601613f7b565b80840191505092915050565b5f614f1082614eb4565b9150614f1c8284614ed6565b915081905092915050565b7f4e487b71000000000000000000000000000000000000000000000000000000005f52601160045260245ffd5b5f614f5e8261400b565b9150614f698361400b565b9250828201905080821115614f8157614f80614f27565b5b92915050565b7f4e487b71000000000000000000000000000000000000000000000000000000005f52601260045260245ffd5b5f614fbe8261400b565b9150614fc98361400b565b925082614fd957614fd8614f87565b5b828204905092915050565b7f4e487b71000000000000000000000000000000000000000000000000000000005f52603260045260245ffd5b5f81905092915050565b50565b5f6150295f83615011565b91506150348261501b565b5f82019050919050565b5f6150488261501e565b9150819050919050565b7f5472616e73666572206661696c65642e000000000000000000000000000000005f82015250565b5f615086601083613f6b565b915061509182615052565b602082019050919050565b5f6020820190508181035f8301526150b38161507a565b9050919050565b5f81519050919050565b5f82825260208201905092915050565b5f6150de826150ba565b6150e881856150c4565b93506150f8818560208601613f7b565b61510181613fa3565b840191505092915050565b5f60808201905061511f5f830187614099565b61512c6020830186614099565b61513960408301856141e2565b818103606083015261514b81846150d4565b905095945050505050565b5f8151905061516481613ed9565b92915050565b5f6020828403121561517f5761517e613ea6565b5b5f61518c84828501615156565b91505092915050565b7f7b226964223a22000000000000000000000000000000000000000000000000005f82015250565b5f6151c9600783614e82565b91506151d482615195565b600782019050919050565b7f222c226e616d65223a22000000000000000000000000000000000000000000005f82015250565b5f615213600a83614e82565b915061521e826151df565b600a82019050919050565b7f222c226465736372697074696f6e223a220000000000000000000000000000005f82015250565b5f61525d601183614e82565b915061526882615229565b601182019050919050565b7f222c2261747472696275746573223a00000000000000000000000000000000005f82015250565b5f6152a7600f83614e82565b91506152b282615273565b600f82019050919050565b5f6152c7826150ba565b6152d18185615011565b93506152e1818560208601613f7b565b80840191505092915050565b7f7d000000000000000000000000000000000000000000000000000000000000005f82015250565b5f615321600183614e82565b915061532c826152ed565b600182019050919050565b5f615341826151bd565b915061534d8287614ed6565b915061535882615207565b91506153648286614ed6565b915061536f82615251565b915061537b8285614ed6565b91506153868261529b565b915061539282846152bd565b915061539d82615315565b915081905095945050505050565b7f646174613a6170706c69636174696f6e2f6a736f6e3b6261736536342c0000005f82015250565b5f6153df601d83614e82565b91506153ea826153ab565b601d82019050919050565b5f6153ff826153d3565b915061540b8284614ed6565b915081905092915050565b7f4c6567656e6461727920486970706f20230000000000000000000000000000005f82015250565b5f61544a601183614e82565b915061545582615416565b601182019050919050565b5f61546a8261543e565b91506154768284614ed6565b915081905092915050565b5f819050919050565b61549b6154968261400b565b615481565b82525050565b5f8160601b9050919050565b5f6154b7826154a1565b9050919050565b5f6154c8826154ad565b9050919050565b6154e06154db82614088565b6154be565b82525050565b5f6154f1828761548a565b60208201915061550182866154cf565b601482019150615511828561548a565b602082019150615521828461548a565b60208201915081905095945050505050565b5f61553d8261400b565b91506155488361400b565b92508261555857615557614f87565b5b828206905092915050565b5f6040820190506155765f830185614099565b61558360208301846141e2565b9392505050565b7f5b7b2274726169745f74797065223a22456e7669726f6e6d656e74222c2276615f8201527f6c7565223a220000000000000000000000000000000000000000000000000000602082015250565b5f6155e4602683614e82565b91506155ef8261558a565b602682019050919050565b7f227d2c00000000000000000000000000000000000000000000000000000000005f82015250565b5f61562e600383614e82565b9150615639826155fa565b600382019050919050565b7f7b2274726169745f74797065223a22537472656e677468222c2276616c7565225f8201527f3a22000000000000000000000000000000000000000000000000000000000000602082015250565b5f61569e602283614e82565b91506156a982615644565b602282019050919050565b7f7b2274726169745f74797065223a22456e647572616e6365222c2276616c75655f8201527f223a220000000000000000000000000000000000000000000000000000000000602082015250565b5f61570e602383614e82565b9150615719826156b4565b602382019050919050565b7f7b2274726169745f74797065223a225370656564222c2276616c7565223a22005f82015250565b5f615758601f83614e82565b915061576382615724565b601f82019050919050565b7f7b2274726169745f74797065223a224a7569636564204c6576656c222c2276615f8201527f6c7565223a220000000000000000000000000000000000000000000000000000602082015250565b5f6157c8602683614e82565b91506157d38261576e565b602682019050919050565b7f7b2274726169745f74797065223a22526172697479222c2276616c7565223a225f82015250565b5f615812602083614e82565b915061581d826157de565b602082019050919050565b7f7b2274726169745f74797065223a225370656369616c205472616974222c22765f8201527f616c7565223a2200000000000000000000000000000000000000000000000000602082015250565b5f615882602783614e82565b915061588d82615828565b602782019050919050565b7f227d5d00000000000000000000000000000000000000000000000000000000005f82015250565b5f6158cc600383614e82565b91506158d782615898565b600382019050919050565b5f6158ec826155d8565b91506158f8828a614ed6565b915061590382615622565b915061590e82615692565b915061591a8289614ed6565b915061592582615622565b915061593082615702565b915061593c8288614ed6565b915061594782615622565b91506159528261574c565b915061595e8287614ed6565b915061596982615622565b9150615974826157bc565b91506159808286614ed6565b915061598b82615622565b915061599682615806565b91506159a28285614ed6565b91506159ad82615622565b91506159b882615876565b91506159c48284614ed6565b91506159cf826158c0565b915081905098975050505050505050565b5f6159ea8261400b565b91506159f58361400b565b9250828202615a038161400b565b91508282048414831517615a1a57615a19614f27565b5b509291505056fe4120686970706f20627265642066726f6d2074776f206c6567656e6461727920706172656e74732e4142434445464748494a4b4c4d4e4f505152535455565758595a6162636465666768696a6b6c6d6e6f707172737475767778797a303132333435363738392b2f41206c6567656e6461727920686970706f207769746820756e69717565207472616974732ea26469706673582212209f2c9792f242d74142d4c3d625bc5bbb9458d808e6cccab98e9535024ca3169d64736f6c63430008140033",
			"opcodes": "PUSH1 0x80 PUSH1 0x40 MSTORE PUSH1 0x1 PUSH1 0xB SSTORE PUSH1 0x1 PUSH1 0xC SSTORE PUSH0 PUSH1 0xD SSTORE PUSH2 0x3E8 PUSH1 0x10 SSTORE PUSH1 0x40 MLOAD DUP1 PUSH1 0xA0 ADD PUSH1 0x40 MSTORE DUP1 PUSH1 0x40 MLOAD DUP1 PUSH1 0x40 ADD PUSH1 0x40 MSTORE DUP1 PUSH1 0x8 DUP2 MSTORE PUSH1 0x20 ADD PUSH32 0x536176616E6E6168000000000000000000000000000000000000000000000000 DUP2 MSTORE POP DUP2 MSTORE PUSH1 0x20 ADD PUSH1 0x40 MLOAD DUP1 PUSH1 0x40 ADD PUSH1 0x40 MSTORE DUP1 PUSH1 0x8 DUP2 MSTORE PUSH1 0x20 ADD PUSH32 0x4D75642042617468000000000000000000000000000000000000000000000000 DUP2 MSTORE POP DUP2 MSTORE PUSH1 0x20 ADD PUSH1 0x40 MLOAD DUP1 PUSH1 0x40 ADD PUSH1 0x40 MSTORE DUP1 PUSH1 0xA DUP2 MSTORE PUSH1 0x20 ADD PUSH32 0x4465657020526976657200000000000000000000000000000000000000000000 DUP2 MSTORE POP DUP2 MSTORE PUSH1 0x20 ADD PUSH1 0x40 MLOAD DUP1 PUSH1 0x40 ADD PUSH1 0x40 MSTORE DUP1 PUSH1 0x6 DUP2 MSTORE PUSH1 0x20 ADD PUSH32 0x4A756E676C650000000000000000000000000000000000000000000000000000 DUP2 MSTORE POP DUP2 MSTORE PUSH1 0x20 ADD PUSH1 0x40 MLOAD DUP1 PUSH1 0x40 ADD PUSH1 0x40 MSTORE DUP1 PUSH1 0x10 DUP2 MSTORE PUSH1 0x20 ADD PUSH32 0x4C757875727920486970706F2053706100000000000000000000000000000000 DUP2 MSTORE POP DUP2 MSTORE POP PUSH1 0x15 SWAP1 PUSH1 0x5 PUSH3 0x15A SWAP3 SWAP2 SWAP1 PUSH3 0x61A JUMP JUMPDEST POP PUSH1 0x40 MLOAD DUP1 PUSH1 0xE0 ADD PUSH1 0x40 MSTORE DUP1 PUSH1 0x40 MLOAD DUP1 PUSH1 0x40 ADD PUSH1 0x40 MSTORE DUP1 PUSH1 0x10 DUP2 MSTORE PUSH1 0x20 ADD PUSH32 0x42726F6B656E20437261636B7069706500000000000000000000000000000000 DUP2 MSTORE POP DUP2 MSTORE PUSH1 0x20 ADD PUSH1 0x40 MLOAD DUP1 PUSH1 0x40 ADD PUSH1 0x40 MSTORE DUP1 PUSH1 0xA DUP2 MSTORE PUSH1 0x20 ADD PUSH32 0x4C61736572204579657300000000000000000000000000000000000000000000 DUP2 MSTORE POP DUP2 MSTORE PUSH1 0x20 ADD PUSH1 0x40 MLOAD DUP1 PUSH1 0x40 ADD PUSH1 0x40 MSTORE DUP1 PUSH1 0xB DUP2 MSTORE PUSH1 0x20 ADD PUSH32 0x476F6C64656E20486F726E000000000000000000000000000000000000000000 DUP2 MSTORE POP DUP2 MSTORE PUSH1 0x20 ADD PUSH1 0x40 MLOAD DUP1 PUSH1 0x40 ADD PUSH1 0x40 MSTORE DUP1 PUSH1 0xC DUP2 MSTORE PUSH1 0x20 ADD PUSH32 0x4469616D6F6E6420536B696E0000000000000000000000000000000000000000 DUP2 MSTORE POP DUP2 MSTORE PUSH1 0x20 ADD PUSH1 0x40 MLOAD DUP1 PUSH1 0x40 ADD PUSH1 0x40 MSTORE DUP1 PUSH1 0xE DUP2 MSTORE PUSH1 0x20 ADD PUSH32 0x466C616D696E67204D6F6861776B000000000000000000000000000000000000 DUP2 MSTORE POP DUP2 MSTORE PUSH1 0x20 ADD PUSH1 0x40 MLOAD DUP1 PUSH1 0x40 ADD PUSH1 0x40 MSTORE DUP1 PUSH1 0x9 DUP2 MSTORE PUSH1 0x20 ADD PUSH32 0x4E656F6E205475736B0000000000000000000000000000000000000000000000 DUP2 MSTORE POP DUP2 MSTORE PUSH1 0x20 ADD PUSH1 0x40 MLOAD DUP1 PUSH1 0x40 ADD PUSH1 0x40 MSTORE DUP1 PUSH1 0x10 DUP2 MSTORE PUSH1 0x20 ADD PUSH32 0x42756C6C657470726F6F66204869646500000000000000000000000000000000 DUP2 MSTORE POP DUP2 MSTORE POP PUSH1 0x16 SWAP1 PUSH1 0x7 PUSH3 0x313 SWAP3 SWAP2 SWAP1 PUSH3 0x678 JUMP JUMPDEST POP PUSH1 0x40 MLOAD DUP1 PUSH1 0x80 ADD PUSH1 0x40 MSTORE DUP1 PUSH1 0x40 MLOAD DUP1 PUSH1 0x40 ADD PUSH1 0x40 MSTORE DUP1 PUSH1 0x9 DUP2 MSTORE PUSH1 0x20 ADD PUSH32 0x4C6567656E646172790000000000000000000000000000000000000000000000 DUP2 MSTORE POP DUP2 MSTORE PUSH1 0x20 ADD PUSH1 0x40 MLOAD DUP1 PUSH1 0x40 ADD PUSH1 0x40 MSTORE DUP1 PUSH1 0x4 DUP2 MSTORE PUSH1 0x20 ADD PUSH32 0x4570696300000000000000000000000000000000000000000000000000000000 DUP2 MSTORE POP DUP2 MSTORE PUSH1 0x20 ADD PUSH1 0x40 MLOAD DUP1 PUSH1 0x40 ADD PUSH1 0x40 MSTORE DUP1 PUSH1 0x8 DUP2 MSTORE PUSH1 0x20 ADD PUSH32 0x4D7974686963616C000000000000000000000000000000000000000000000000 DUP2 MSTORE POP DUP2 MSTORE PUSH1 0x20 ADD PUSH1 0x40 MLOAD DUP1 PUSH1 0x40 ADD PUSH1 0x40 MSTORE DUP1 PUSH1 0x6 DUP2 MSTORE PUSH1 0x20 ADD PUSH32 0x446976696E650000000000000000000000000000000000000000000000000000 DUP2 MSTORE POP DUP2 MSTORE POP PUSH1 0x17 SWAP1 PUSH1 0x4 PUSH3 0x41B SWAP3 SWAP2 SWAP1 PUSH3 0x6D6 JUMP JUMPDEST POP CALLVALUE DUP1 ISZERO PUSH3 0x428 JUMPI PUSH0 DUP1 REVERT JUMPDEST POP PUSH1 0x40 MLOAD PUSH3 0x689C CODESIZE SUB DUP1 PUSH3 0x689C DUP4 CODECOPY DUP2 DUP2 ADD PUSH1 0x40 MSTORE DUP2 ADD SWAP1 PUSH3 0x44E SWAP2 SWAP1 PUSH3 0x9A1 JUMP JUMPDEST PUSH20 0x7936FFE8FBE49ED325B650359FC1A91E73158553 DUP6 PUSH1 0x40 MLOAD DUP1 PUSH1 0x40 ADD PUSH1 0x40 MSTORE DUP1 PUSH1 0x2 DUP2 MSTORE PUSH1 0x20 ADD PUSH32 0x4842000000000000000000000000000000000000000000000000000000000000 DUP2 MSTORE POP DUP2 PUSH0 SWAP1 DUP2 PUSH3 0x4AA SWAP2 SWAP1 PUSH3 0xC9A JUMP JUMPDEST POP DUP1 PUSH1 0x1 SWAP1 DUP2 PUSH3 0x4BC SWAP2 SWAP1 PUSH3 0xC9A JUMP JUMPDEST POP POP POP PUSH0 PUSH20 0xFFFFFFFFFFFFFFFFFFFFFFFFFFFFFFFFFFFFFFFF AND DUP2 PUSH20 0xFFFFFFFFFFFFFFFFFFFFFFFFFFFFFFFFFFFFFFFF AND SUB PUSH3 0x532 JUMPI PUSH0 PUSH1 0x40 MLOAD PUSH32 0x1E4FBDF700000000000000000000000000000000000000000000000000000000 DUP2 MSTORE PUSH1 0x4 ADD PUSH3 0x529 SWAP2 SWAP1 PUSH3 0xD8F JUMP JUMPDEST PUSH1 0x40 MLOAD DUP1 SWAP2 SUB SWAP1 REVERT JUMPDEST PUSH3 0x543 DUP2 PUSH3 0x557 PUSH1 0x20 SHL PUSH1 0x20 SHR JUMP JUMPDEST POP PUSH1 0x1 PUSH1 0x8 DUP2 SWAP1 SSTORE POP POP POP POP POP POP PUSH3 0xDAA JUMP JUMPDEST PUSH0 PUSH1 0x7 PUSH0 SWAP1 SLOAD SWAP1 PUSH2 0x100 EXP SWAP1 DIV PUSH20 0xFFFFFFFFFFFFFFFFFFFFFFFFFFFFFFFFFFFFFFFF AND SWAP1 POP DUP2 PUSH1 0x7 PUSH0 PUSH2 0x100 EXP DUP2 SLOAD DUP2 PUSH20 0xFFFFFFFFFFFFFFFFFFFFFFFFFFFFFFFFFFFFFFFF MUL NOT AND SWAP1 DUP4 PUSH20 0xFFFFFFFFFFFFFFFFFFFFFFFFFFFFFFFFFFFFFFFF AND MUL OR SWAP1 SSTORE POP DUP2 PUSH20 0xFFFFFFFFFFFFFFFFFFFFFFFFFFFFFFFFFFFFFFFF AND DUP2 PUSH20 0xFFFFFFFFFFFFFFFFFFFFFFFFFFFFFFFFFFFFFFFF AND PUSH32 0x8BE0079C531659141344CD1FD0A4F28419497F9722A3DAAFE3B4186F6B6457E0 PUSH1 0x40 MLOAD PUSH1 0x40 MLOAD DUP1 SWAP2 SUB SWAP1 LOG3 POP POP JUMP JUMPDEST DUP3 DUP1 SLOAD DUP3 DUP3 SSTORE SWAP1 PUSH0 MSTORE PUSH1 0x20 PUSH0 KECCAK256 SWAP1 DUP2 ADD SWAP3 DUP3 ISZERO PUSH3 0x665 JUMPI SWAP2 PUSH1 0x20 MUL DUP3 ADD JUMPDEST DUP3 DUP2 GT ISZERO PUSH3 0x664 JUMPI DUP3 MLOAD DUP3 SWAP1 DUP2 PUSH3 0x653 SWAP2 SWAP1 PUSH3 0xC9A JUMP JUMPDEST POP SWAP2 PUSH1 0x20 ADD SWAP2 SWAP1 PUSH1 0x1 ADD SWAP1 PUSH3 0x639 JUMP JUMPDEST JUMPDEST POP SWAP1 POP PUSH3 0x674 SWAP2 SWAP1 PUSH3 0x734 JUMP JUMPDEST POP SWAP1 JUMP JUMPDEST DUP3 DUP1 SLOAD DUP3 DUP3 SSTORE SWAP1 PUSH0 MSTORE PUSH1 0x20 PUSH0 KECCAK256 SWAP1 DUP2 ADD SWAP3 DUP3 ISZERO PUSH3 0x6C3 JUMPI SWAP2 PUSH1 0x20 MUL DUP3 ADD JUMPDEST DUP3 DUP2 GT ISZERO PUSH3 0x6C2 JUMPI DUP3 MLOAD DUP3 SWAP1 DUP2 PUSH3 0x6B1 SWAP2 SWAP1 PUSH3 0xC9A JUMP JUMPDEST POP SWAP2 PUSH1 0x20 ADD SWAP2 SWAP1 PUSH1 0x1 ADD SWAP1 PUSH3 0x697 JUMP JUMPDEST JUMPDEST POP SWAP1 POP PUSH3 0x6D2 SWAP2 SWAP1 PUSH3 0x734 JUMP JUMPDEST POP SWAP1 JUMP JUMPDEST DUP3 DUP1 SLOAD DUP3 DUP3 SSTORE SWAP1 PUSH0 MSTORE PUSH1 0x20 PUSH0 KECCAK256 SWAP1 DUP2 ADD SWAP3 DUP3 ISZERO PUSH3 0x721 JUMPI SWAP2 PUSH1 0x20 MUL DUP3 ADD JUMPDEST DUP3 DUP2 GT ISZERO PUSH3 0x720 JUMPI DUP3 MLOAD DUP3 SWAP1 DUP2 PUSH3 0x70F SWAP2 SWAP1 PUSH3 0xC9A JUMP JUMPDEST POP SWAP2 PUSH1 0x20 ADD SWAP2 SWAP1 PUSH1 0x1 ADD SWAP1 PUSH3 0x6F5 JUMP JUMPDEST JUMPDEST POP SWAP1 POP PUSH3 0x730 SWAP2 SWAP1 PUSH3 0x734 JUMP JUMPDEST POP SWAP1 JUMP JUMPDEST JUMPDEST DUP1 DUP3 GT ISZERO PUSH3 0x757 JUMPI PUSH0 DUP2 DUP2 PUSH3 0x74D SWAP2 SWAP1 PUSH3 0x75B JUMP JUMPDEST POP PUSH1 0x1 ADD PUSH3 0x735 JUMP JUMPDEST POP SWAP1 JUMP JUMPDEST POP DUP1 SLOAD PUSH3 0x769 SWAP1 PUSH3 0xA9A JUMP JUMPDEST PUSH0 DUP3 SSTORE DUP1 PUSH1 0x1F LT PUSH3 0x77C JUMPI POP PUSH3 0x79B JUMP JUMPDEST PUSH1 0x1F ADD PUSH1 0x20 SWAP1 DIV SWAP1 PUSH0 MSTORE PUSH1 0x20 PUSH0 KECCAK256 SWAP1 DUP2 ADD SWAP1 PUSH3 0x79A SWAP2 SWAP1 PUSH3 0x79E JUMP JUMPDEST JUMPDEST POP JUMP JUMPDEST JUMPDEST DUP1 DUP3 GT ISZERO PUSH3 0x7B7 JUMPI PUSH0 DUP2 PUSH0 SWAP1 SSTORE POP PUSH1 0x1 ADD PUSH3 0x79F JUMP JUMPDEST POP SWAP1 JUMP JUMPDEST PUSH0 PUSH1 0x40 MLOAD SWAP1 POP SWAP1 JUMP JUMPDEST PUSH0 DUP1 REVERT JUMPDEST PUSH0 DUP1 REVERT JUMPDEST PUSH0 DUP1 REVERT JUMPDEST PUSH0 DUP1 REVERT JUMPDEST PUSH0 PUSH1 0x1F NOT PUSH1 0x1F DUP4 ADD AND SWAP1 POP SWAP2 SWAP1 POP JUMP JUMPDEST PUSH32 0x4E487B7100000000000000000000000000000000000000000000000000000000 PUSH0 MSTORE PUSH1 0x41 PUSH1 0x4 MSTORE PUSH1 0x24 PUSH0 REVERT JUMPDEST PUSH3 0x81C DUP3 PUSH3 0x7D4 JUMP JUMPDEST DUP2 ADD DUP2 DUP2 LT PUSH8 0xFFFFFFFFFFFFFFFF DUP3 GT OR ISZERO PUSH3 0x83E JUMPI PUSH3 0x83D PUSH3 0x7E4 JUMP JUMPDEST JUMPDEST DUP1 PUSH1 0x40 MSTORE POP POP POP JUMP JUMPDEST PUSH0 PUSH3 0x852 PUSH3 0x7BB JUMP JUMPDEST SWAP1 POP PUSH3 0x860 DUP3 DUP3 PUSH3 0x811 JUMP JUMPDEST SWAP2 SWAP1 POP JUMP JUMPDEST PUSH0 PUSH8 0xFFFFFFFFFFFFFFFF DUP3 GT ISZERO PUSH3 0x882 JUMPI PUSH3 0x881 PUSH3 0x7E4 JUMP JUMPDEST JUMPDEST PUSH3 0x88D DUP3 PUSH3 0x7D4 JUMP JUMPDEST SWAP1 POP PUSH1 0x20 DUP2 ADD SWAP1 POP SWAP2 SWAP1 POP JUMP JUMPDEST PUSH0 JUMPDEST DUP4 DUP2 LT ISZERO PUSH3 0x8B9 JUMPI DUP1 DUP3 ADD MLOAD DUP2 DUP5 ADD MSTORE PUSH1 0x20 DUP2 ADD SWAP1 POP PUSH3 0x89C JUMP JUMPDEST PUSH0 DUP5 DUP5 ADD MSTORE POP POP POP POP JUMP JUMPDEST PUSH0 PUSH3 0x8DA PUSH3 0x8D4 DUP5 PUSH3 0x865 JUMP JUMPDEST PUSH3 0x847 JUMP JUMPDEST SWAP1 POP DUP3 DUP2 MSTORE PUSH1 0x20 DUP2 ADD DUP5 DUP5 DUP5 ADD GT ISZERO PUSH3 0x8F9 JUMPI PUSH3 0x8F8 PUSH3 0x7D0 JUMP JUMPDEST JUMPDEST PUSH3 0x906 DUP5 DUP3 DUP6 PUSH3 0x89A JUMP JUMPDEST POP SWAP4 SWAP3 POP POP POP JUMP JUMPDEST PUSH0 DUP3 PUSH1 0x1F DUP4 ADD SLT PUSH3 0x925 JUMPI PUSH3 0x924 PUSH3 0x7CC JUMP JUMPDEST JUMPDEST DUP2 MLOAD PUSH3 0x937 DUP5 DUP3 PUSH1 0x20 DUP7 ADD PUSH3 0x8C4 JUMP JUMPDEST SWAP2 POP POP SWAP3 SWAP2 POP POP JUMP JUMPDEST PUSH0 PUSH20 0xFFFFFFFFFFFFFFFFFFFFFFFFFFFFFFFFFFFFFFFF DUP3 AND SWAP1 POP SWAP2 SWAP1 POP JUMP JUMPDEST PUSH0 PUSH3 0x96B DUP3 PUSH3 0x940 JUMP JUMPDEST SWAP1 POP SWAP2 SWAP1 POP JUMP JUMPDEST PUSH3 0x97D DUP2 PUSH3 0x95F JUMP JUMPDEST DUP2 EQ PUSH3 0x988 JUMPI PUSH0 DUP1 REVERT JUMPDEST POP JUMP JUMPDEST PUSH0 DUP2 MLOAD SWAP1 POP PUSH3 0x99B DUP2 PUSH3 0x972 JUMP JUMPDEST SWAP3 SWAP2 POP POP JUMP JUMPDEST PUSH0 DUP1 PUSH0 DUP1 PUSH0 PUSH1 0xA0 DUP7 DUP9 SUB SLT ISZERO PUSH3 0x9BD JUMPI PUSH3 0x9BC PUSH3 0x7C4 JUMP JUMPDEST JUMPDEST PUSH0 DUP7 ADD MLOAD PUSH8 0xFFFFFFFFFFFFFFFF DUP2 GT ISZERO PUSH3 0x9DD JUMPI PUSH3 0x9DC PUSH3 0x7C8 JUMP JUMPDEST JUMPDEST PUSH3 0x9EB DUP9 DUP3 DUP10 ADD PUSH3 0x90E JUMP JUMPDEST SWAP6 POP POP PUSH1 0x20 DUP7 ADD MLOAD PUSH8 0xFFFFFFFFFFFFFFFF DUP2 GT ISZERO PUSH3 0xA0F JUMPI PUSH3 0xA0E PUSH3 0x7C8 JUMP JUMPDEST JUMPDEST PUSH3 0xA1D DUP9 DUP3 DUP10 ADD PUSH3 0x90E JUMP JUMPDEST SWAP5 POP POP PUSH1 0x40 PUSH3 0xA30 DUP9 DUP3 DUP10 ADD PUSH3 0x98B JUMP JUMPDEST SWAP4 POP POP PUSH1 0x60 PUSH3 0xA43 DUP9 DUP3 DUP10 ADD PUSH3 0x98B JUMP JUMPDEST SWAP3 POP POP PUSH1 0x80 PUSH3 0xA56 DUP9 DUP3 DUP10 ADD PUSH3 0x98B JUMP JUMPDEST SWAP2 POP POP SWAP3 SWAP6 POP SWAP3 SWAP6 SWAP1 SWAP4 POP JUMP JUMPDEST PUSH0 DUP2 MLOAD SWAP1 POP SWAP2 SWAP1 POP JUMP JUMPDEST PUSH32 0x4E487B7100000000000000000000000000000000000000000000000000000000 PUSH0 MSTORE PUSH1 0x22 PUSH1 0x4 MSTORE PUSH1 0x24 PUSH0 REVERT JUMPDEST PUSH0 PUSH1 0x2 DUP3 DIV SWAP1 POP PUSH1 0x1 DUP3 AND DUP1 PUSH3 0xAB2 JUMPI PUSH1 0x7F DUP3 AND SWAP2 POP JUMPDEST PUSH1 0x20 DUP3 LT DUP2 SUB PUSH3 0xAC8 JUMPI PUSH3 0xAC7 PUSH3 0xA6D JUMP JUMPDEST JUMPDEST POP SWAP2 SWAP1 POP JUMP JUMPDEST PUSH0 DUP2 SWAP1 POP DUP2 PUSH0 MSTORE PUSH1 0x20 PUSH0 KECCAK256 SWAP1 POP SWAP2 SWAP1 POP JUMP JUMPDEST PUSH0 PUSH1 0x20 PUSH1 0x1F DUP4 ADD DIV SWAP1 POP SWAP2 SWAP1 POP JUMP JUMPDEST PUSH0 DUP3 DUP3 SHL SWAP1 POP SWAP3 SWAP2 POP POP JUMP JUMPDEST PUSH0 PUSH1 0x8 DUP4 MUL PUSH3 0xB2C PUSH32 0xFFFFFFFFFFFFFFFFFFFFFFFFFFFFFFFFFFFFFFFFFFFFFFFFFFFFFFFFFFFFFFFF DUP3 PUSH3 0xAEF JUMP JUMPDEST PUSH3 0xB38 DUP7 DUP4 PUSH3 0xAEF JUMP JUMPDEST SWAP6 POP DUP1 NOT DUP5 AND SWAP4 POP DUP1 DUP7 AND DUP5 OR SWAP3 POP POP POP SWAP4 SWAP3 POP POP POP JUMP JUMPDEST PUSH0 DUP2 SWAP1 POP SWAP2 SWAP1 POP JUMP JUMPDEST PUSH0 DUP2 SWAP1 POP SWAP2 SWAP1 POP JUMP JUMPDEST PUSH0 PUSH3 0xB82 PUSH3 0xB7C PUSH3 0xB76 DUP5 PUSH3 0xB50 JUMP JUMPDEST PUSH3 0xB59 JUMP JUMPDEST PUSH3 0xB50 JUMP JUMPDEST SWAP1 POP SWAP2 SWAP1 POP JUMP JUMPDEST PUSH0 DUP2 SWAP1 POP SWAP2 SWAP1 POP JUMP JUMPDEST PUSH3 0xB9D DUP4 PUSH3 0xB62 JUMP JUMPDEST PUSH3 0xBB5 PUSH3 0xBAC DUP3 PUSH3 0xB89 JUMP JUMPDEST DUP5 DUP5 SLOAD PUSH3 0xAFB JUMP JUMPDEST DUP3 SSTORE POP POP POP POP JUMP JUMPDEST PUSH0 SWAP1 JUMP JUMPDEST PUSH3 0xBCB PUSH3 0xBBD JUMP JUMPDEST PUSH3 0xBD8 DUP2 DUP5 DUP5 PUSH3 0xB92 JUMP JUMPDEST POP POP POP JUMP JUMPDEST JUMPDEST DUP2 DUP2 LT ISZERO PUSH3 0xBFF JUMPI PUSH3 0xBF3 PUSH0 DUP3 PUSH3 0xBC1 JUMP JUMPDEST PUSH1 0x1 DUP2 ADD SWAP1 POP PUSH3 0xBDE JUMP JUMPDEST POP POP JUMP JUMPDEST PUSH1 0x1F DUP3 GT ISZERO PUSH3 0xC4E JUMPI PUSH3 0xC18 DUP2 PUSH3 0xACE JUMP JUMPDEST PUSH3 0xC23 DUP5 PUSH3 0xAE0 JUMP JUMPDEST DUP2 ADD PUSH1 0x20 DUP6 LT ISZERO PUSH3 0xC33 JUMPI DUP2 SWAP1 POP JUMPDEST PUSH3 0xC4B PUSH3 0xC42 DUP6 PUSH3 0xAE0 JUMP JUMPDEST DUP4 ADD DUP3 PUSH3 0xBDD JUMP JUMPDEST POP POP JUMPDEST POP POP POP JUMP JUMPDEST PUSH0 DUP3 DUP3 SHR SWAP1 POP SWAP3 SWAP2 POP POP JUMP JUMPDEST PUSH0 PUSH3 0xC70 PUSH0 NOT DUP5 PUSH1 0x8 MUL PUSH3 0xC53 JUMP JUMPDEST NOT DUP1 DUP4 AND SWAP2 POP POP SWAP3 SWAP2 POP POP JUMP JUMPDEST PUSH0 PUSH3 0xC8A DUP4 DUP4 PUSH3 0xC5F JUMP JUMPDEST SWAP2 POP DUP3 PUSH1 0x2 MUL DUP3 OR SWAP1 POP SWAP3 SWAP2 POP POP JUMP JUMPDEST PUSH3 0xCA5 DUP3 PUSH3 0xA63 JUMP JUMPDEST PUSH8 0xFFFFFFFFFFFFFFFF DUP2 GT ISZERO PUSH3 0xCC1 JUMPI PUSH3 0xCC0 PUSH3 0x7E4 JUMP JUMPDEST JUMPDEST PUSH3 0xCCD DUP3 SLOAD PUSH3 0xA9A JUMP JUMPDEST PUSH3 0xCDA DUP3 DUP3 DUP6 PUSH3 0xC03 JUMP JUMPDEST PUSH0 PUSH1 0x20 SWAP1 POP PUSH1 0x1F DUP4 GT PUSH1 0x1 DUP2 EQ PUSH3 0xD10 JUMPI PUSH0 DUP5 ISZERO PUSH3 0xCFB JUMPI DUP3 DUP8 ADD MLOAD SWAP1 POP JUMPDEST PUSH3 0xD07 DUP6 DUP3 PUSH3 0xC7D JUMP JUMPDEST DUP7 SSTORE POP PUSH3 0xD76 JUMP JUMPDEST PUSH1 0x1F NOT DUP5 AND PUSH3 0xD20 DUP7 PUSH3 0xACE JUMP JUMPDEST PUSH0 JUMPDEST DUP3 DUP2 LT ISZERO PUSH3 0xD49 JUMPI DUP5 DUP10 ADD MLOAD DUP3 SSTORE PUSH1 0x1 DUP3 ADD SWAP2 POP PUSH1 0x20 DUP6 ADD SWAP5 POP PUSH1 0x20 DUP2 ADD SWAP1 POP PUSH3 0xD22 JUMP JUMPDEST DUP7 DUP4 LT ISZERO PUSH3 0xD69 JUMPI DUP5 DUP10 ADD MLOAD PUSH3 0xD65 PUSH1 0x1F DUP10 AND DUP3 PUSH3 0xC5F JUMP JUMPDEST DUP4 SSTORE POP JUMPDEST PUSH1 0x1 PUSH1 0x2 DUP9 MUL ADD DUP9 SSTORE POP POP POP JUMPDEST POP POP POP POP POP POP JUMP JUMPDEST PUSH3 0xD89 DUP2 PUSH3 0x95F JUMP JUMPDEST DUP3 MSTORE POP POP JUMP JUMPDEST PUSH0 PUSH1 0x20 DUP3 ADD SWAP1 POP PUSH3 0xDA4 PUSH0 DUP4 ADD DUP5 PUSH3 0xD7E JUMP JUMPDEST SWAP3 SWAP2 POP POP JUMP JUMPDEST PUSH2 0x5AE4 DUP1 PUSH3 0xDB8 PUSH0 CODECOPY PUSH0 RETURN INVALID PUSH1 0x80 PUSH1 0x40 MSTORE PUSH1 0x4 CALLDATASIZE LT PUSH2 0x1ED JUMPI PUSH0 CALLDATALOAD PUSH1 0xE0 SHR DUP1 PUSH4 0x8DA5CB5B GT PUSH2 0x10C JUMPI DUP1 PUSH4 0xC87B56DD GT PUSH2 0x9F JUMPI DUP1 PUSH4 0xDA4E1817 GT PUSH2 0x6E JUMPI DUP1 PUSH4 0xDA4E1817 EQ PUSH2 0x6F3 JUMPI DUP1 PUSH4 0xDB187F8D EQ PUSH2 0x72F JUMPI DUP1 PUSH4 0xE985E9C5 EQ PUSH2 0x759 JUMPI DUP1 PUSH4 0xF2FDE38B EQ PUSH2 0x795 JUMPI DUP1 PUSH4 0xFD557633 EQ PUSH2 0x7BD JUMPI PUSH2 0x1ED JUMP JUMPDEST DUP1 PUSH4 0xC87B56DD EQ PUSH2 0x647 JUMPI DUP1 PUSH4 0xCD5661F0 EQ PUSH2 0x683 JUMPI DUP1 PUSH4 0xCF63EDEA EQ PUSH2 0x68D JUMPI DUP1 PUSH4 0xD5ABEB01 EQ PUSH2 0x6C9 JUMPI PUSH2 0x1ED JUMP JUMPDEST DUP1 PUSH4 0xA22CB465 GT PUSH2 0xDB JUMPI DUP1 PUSH4 0xA22CB465 EQ PUSH2 0x591 JUMPI DUP1 PUSH4 0xB88D4FDE EQ PUSH2 0x5B9 JUMPI DUP1 PUSH4 0xBDB4B848 EQ PUSH2 0x5E1 JUMPI DUP1 PUSH4 0xC3784536 EQ PUSH2 0x60B JUMPI PUSH2 0x1ED JUMP JUMPDEST DUP1 PUSH4 0x8DA5CB5B EQ PUSH2 0x4E9 JUMPI DUP1 PUSH4 0x8EA5220F EQ PUSH2 0x513 JUMPI DUP1 PUSH4 0x933A4601 EQ PUSH2 0x53D JUMPI DUP1 PUSH4 0x95D89B41 EQ PUSH2 0x567 JUMPI PUSH2 0x1ED JUMP JUMPDEST DUP1 PUSH4 0x42842E0E GT PUSH2 0x184 JUMPI DUP1 PUSH4 0x715018A6 GT PUSH2 0x153 JUMPI DUP1 PUSH4 0x715018A6 EQ PUSH2 0x42F JUMPI DUP1 PUSH4 0x7B47EC1A EQ PUSH2 0x445 JUMPI DUP1 PUSH4 0x7DC0BF3F EQ PUSH2 0x46D JUMPI DUP1 PUSH4 0x7E9BAEC2 EQ PUSH2 0x4AD JUMPI PUSH2 0x1ED JUMP JUMPDEST DUP1 PUSH4 0x42842E0E EQ PUSH2 0x365 JUMPI DUP1 PUSH4 0x6352211E EQ PUSH2 0x38D JUMPI DUP1 PUSH4 0x6C0360EB EQ PUSH2 0x3C9 JUMPI DUP1 PUSH4 0x70A08231 EQ PUSH2 0x3F3 JUMPI PUSH2 0x1ED JUMP JUMPDEST DUP1 PUSH4 0x11F5A1D4 GT PUSH2 0x1C0 JUMPI DUP1 PUSH4 0x11F5A1D4 EQ PUSH2 0x2BB JUMPI DUP1 PUSH4 0x17B8E1CF EQ PUSH2 0x2D7 JUMPI DUP1 PUSH4 0x23B872DD EQ PUSH2 0x313 JUMPI DUP1 PUSH4 0x26190B47 EQ PUSH2 0x33B JUMPI PUSH2 0x1ED JUMP JUMPDEST DUP1 PUSH4 0x1FFC9A7 EQ PUSH2 0x1F1 JUMPI DUP1 PUSH4 0x6FDDE03 EQ PUSH2 0x22D JUMPI DUP1 PUSH4 0x81812FC EQ PUSH2 0x257 JUMPI DUP1 PUSH4 0x95EA7B3 EQ PUSH2 0x293 JUMPI JUMPDEST PUSH0 DUP1 REVERT JUMPDEST CALLVALUE DUP1 ISZERO PUSH2 0x1FC JUMPI PUSH0 DUP1 REVERT JUMPDEST POP PUSH2 0x217 PUSH1 0x4 DUP1 CALLDATASIZE SUB DUP2 ADD SWAP1 PUSH2 0x212 SWAP2 SWAP1 PUSH2 0x3F03 JUMP JUMPDEST PUSH2 0x7E7 JUMP JUMPDEST PUSH1 0x40 MLOAD PUSH2 0x224 SWAP2 SWAP1 PUSH2 0x3F48 JUMP JUMPDEST PUSH1 0x40 MLOAD DUP1 SWAP2 SUB SWAP1 RETURN JUMPDEST CALLVALUE DUP1 ISZERO PUSH2 0x238 JUMPI PUSH0 DUP1 REVERT JUMPDEST POP PUSH2 0x241 PUSH2 0x7F8 JUMP JUMPDEST PUSH1 0x40 MLOAD PUSH2 0x24E SWAP2 SWAP1 PUSH2 0x3FEB JUMP JUMPDEST PUSH1 0x40 MLOAD DUP1 SWAP2 SUB SWAP1 RETURN JUMPDEST CALLVALUE DUP1 ISZERO PUSH2 0x262 JUMPI PUSH0 DUP1 REVERT JUMPDEST POP PUSH2 0x27D PUSH1 0x4 DUP1 CALLDATASIZE SUB DUP2 ADD SWAP1 PUSH2 0x278 SWAP2 SWAP1 PUSH2 0x403E JUMP JUMPDEST PUSH2 0x887 JUMP JUMPDEST PUSH1 0x40 MLOAD PUSH2 0x28A SWAP2 SWAP1 PUSH2 0x40A8 JUMP JUMPDEST PUSH1 0x40 MLOAD DUP1 SWAP2 SUB SWAP1 RETURN JUMPDEST CALLVALUE DUP1 ISZERO PUSH2 0x29E JUMPI PUSH0 DUP1 REVERT JUMPDEST POP PUSH2 0x2B9 PUSH1 0x4 DUP1 CALLDATASIZE SUB DUP2 ADD SWAP1 PUSH2 0x2B4 SWAP2 SWAP1 PUSH2 0x40EB JUMP JUMPDEST PUSH2 0x8A2 JUMP JUMPDEST STOP JUMPDEST PUSH2 0x2D5 PUSH1 0x4 DUP1 CALLDATASIZE SUB DUP2 ADD SWAP1 PUSH2 0x2D0 SWAP2 SWAP1 PUSH2 0x4129 JUMP JUMPDEST PUSH2 0x8B8 JUMP JUMPDEST STOP JUMPDEST CALLVALUE DUP1 ISZERO PUSH2 0x2E2 JUMPI PUSH0 DUP1 REVERT JUMPDEST POP PUSH2 0x2FD PUSH1 0x4 DUP1 CALLDATASIZE SUB DUP2 ADD SWAP1 PUSH2 0x2F8 SWAP2 SWAP1 PUSH2 0x403E JUMP JUMPDEST PUSH2 0xBC2 JUMP JUMPDEST PUSH1 0x40 MLOAD PUSH2 0x30A SWAP2 SWAP1 PUSH2 0x3FEB JUMP JUMPDEST PUSH1 0x40 MLOAD DUP1 SWAP2 SUB SWAP1 RETURN JUMPDEST CALLVALUE DUP1 ISZERO PUSH2 0x31E JUMPI PUSH0 DUP1 REVERT JUMPDEST POP PUSH2 0x339 PUSH1 0x4 DUP1 CALLDATASIZE SUB DUP2 ADD SWAP1 PUSH2 0x334 SWAP2 SWAP1 PUSH2 0x4167 JUMP JUMPDEST PUSH2 0xC68 JUMP JUMPDEST STOP JUMPDEST CALLVALUE DUP1 ISZERO PUSH2 0x346 JUMPI PUSH0 DUP1 REVERT JUMPDEST POP PUSH2 0x34F PUSH2 0xD67 JUMP JUMPDEST PUSH1 0x40 MLOAD PUSH2 0x35C SWAP2 SWAP1 PUSH2 0x40A8 JUMP JUMPDEST PUSH1 0x40 MLOAD DUP1 SWAP2 SUB SWAP1 RETURN JUMPDEST CALLVALUE DUP1 ISZERO PUSH2 0x370 JUMPI PUSH0 DUP1 REVERT JUMPDEST POP PUSH2 0x38B PUSH1 0x4 DUP1 CALLDATASIZE SUB DUP2 ADD SWAP1 PUSH2 0x386 SWAP2 SWAP1 PUSH2 0x4167 JUMP JUMPDEST PUSH2 0xD8C JUMP JUMPDEST STOP JUMPDEST CALLVALUE DUP1 ISZERO PUSH2 0x398 JUMPI PUSH0 DUP1 REVERT JUMPDEST POP PUSH2 0x3B3 PUSH1 0x4 DUP1 CALLDATASIZE SUB DUP2 ADD SWAP1 PUSH2 0x3AE SWAP2 SWAP1 PUSH2 0x403E JUMP JUMPDEST PUSH2 0xDAB JUMP JUMPDEST PUSH1 0x40 MLOAD PUSH2 0x3C0 SWAP2 SWAP1 PUSH2 0x40A8 JUMP JUMPDEST PUSH1 0x40 MLOAD DUP1 SWAP2 SUB SWAP1 RETURN JUMPDEST CALLVALUE DUP1 ISZERO PUSH2 0x3D4 JUMPI PUSH0 DUP1 REVERT JUMPDEST POP PUSH2 0x3DD PUSH2 0xDBC JUMP JUMPDEST PUSH1 0x40 MLOAD PUSH2 0x3EA SWAP2 SWAP1 PUSH2 0x3FEB JUMP JUMPDEST PUSH1 0x40 MLOAD DUP1 SWAP2 SUB SWAP1 RETURN JUMPDEST CALLVALUE DUP1 ISZERO PUSH2 0x3FE JUMPI PUSH0 DUP1 REVERT JUMPDEST POP PUSH2 0x419 PUSH1 0x4 DUP1 CALLDATASIZE SUB DUP2 ADD SWAP1 PUSH2 0x414 SWAP2 SWAP1 PUSH2 0x41B7 JUMP JUMPDEST PUSH2 0xE48 JUMP JUMPDEST PUSH1 0x40 MLOAD PUSH2 0x426 SWAP2 SWAP1 PUSH2 0x41F1 JUMP JUMPDEST PUSH1 0x40 MLOAD DUP1 SWAP2 SUB SWAP1 RETURN JUMPDEST CALLVALUE DUP1 ISZERO PUSH2 0x43A JUMPI PUSH0 DUP1 REVERT JUMPDEST POP PUSH2 0x443 PUSH2 0xEFE JUMP JUMPDEST STOP JUMPDEST CALLVALUE DUP1 ISZERO PUSH2 0x450 JUMPI PUSH0 DUP1 REVERT JUMPDEST POP PUSH2 0x46B PUSH1 0x4 DUP1 CALLDATASIZE SUB DUP2 ADD SWAP1 PUSH2 0x466 SWAP2 SWAP1 PUSH2 0x403E JUMP JUMPDEST PUSH2 0xF11 JUMP JUMPDEST STOP JUMPDEST CALLVALUE DUP1 ISZERO PUSH2 0x478 JUMPI PUSH0 DUP1 REVERT JUMPDEST POP PUSH2 0x493 PUSH1 0x4 DUP1 CALLDATASIZE SUB DUP2 ADD SWAP1 PUSH2 0x48E SWAP2 SWAP1 PUSH2 0x403E JUMP JUMPDEST PUSH2 0x10A4 JUMP JUMPDEST PUSH1 0x40 MLOAD PUSH2 0x4A4 SWAP6 SWAP5 SWAP4 SWAP3 SWAP2 SWAP1 PUSH2 0x443C JUMP JUMPDEST PUSH1 0x40 MLOAD DUP1 SWAP2 SUB SWAP1 RETURN JUMPDEST CALLVALUE DUP1 ISZERO PUSH2 0x4B8 JUMPI PUSH0 DUP1 REVERT JUMPDEST POP PUSH2 0x4D3 PUSH1 0x4 DUP1 CALLDATASIZE SUB DUP2 ADD SWAP1 PUSH2 0x4CE SWAP2 SWAP1 PUSH2 0x41B7 JUMP JUMPDEST PUSH2 0x1482 JUMP JUMPDEST PUSH1 0x40 MLOAD PUSH2 0x4E0 SWAP2 SWAP1 PUSH2 0x41F1 JUMP JUMPDEST PUSH1 0x40 MLOAD DUP1 SWAP2 SUB SWAP1 RETURN JUMPDEST CALLVALUE DUP1 ISZERO PUSH2 0x4F4 JUMPI PUSH0 DUP1 REVERT JUMPDEST POP PUSH2 0x4FD PUSH2 0x1497 JUMP JUMPDEST PUSH1 0x40 MLOAD PUSH2 0x50A SWAP2 SWAP1 PUSH2 0x40A8 JUMP JUMPDEST PUSH1 0x40 MLOAD DUP1 SWAP2 SUB SWAP1 RETURN JUMPDEST CALLVALUE DUP1 ISZERO PUSH2 0x51E JUMPI PUSH0 DUP1 REVERT JUMPDEST POP PUSH2 0x527 PUSH2 0x14BF JUMP JUMPDEST PUSH1 0x40 MLOAD PUSH2 0x534 SWAP2 SWAP1 PUSH2 0x40A8 JUMP JUMPDEST PUSH1 0x40 MLOAD DUP1 SWAP2 SUB SWAP1 RETURN JUMPDEST CALLVALUE DUP1 ISZERO PUSH2 0x548 JUMPI PUSH0 DUP1 REVERT JUMPDEST POP PUSH2 0x551 PUSH2 0x14E4 JUMP JUMPDEST PUSH1 0x40 MLOAD PUSH2 0x55E SWAP2 SWAP1 PUSH2 0x41F1 JUMP JUMPDEST PUSH1 0x40 MLOAD DUP1 SWAP2 SUB SWAP1 RETURN JUMPDEST CALLVALUE DUP1 ISZERO PUSH2 0x572 JUMPI PUSH0 DUP1 REVERT JUMPDEST POP PUSH2 0x57B PUSH2 0x14EA JUMP JUMPDEST PUSH1 0x40 MLOAD PUSH2 0x588 SWAP2 SWAP1 PUSH2 0x3FEB JUMP JUMPDEST PUSH1 0x40 MLOAD DUP1 SWAP2 SUB SWAP1 RETURN JUMPDEST CALLVALUE DUP1 ISZERO PUSH2 0x59C JUMPI PUSH0 DUP1 REVERT JUMPDEST POP PUSH2 0x5B7 PUSH1 0x4 DUP1 CALLDATASIZE SUB DUP2 ADD SWAP1 PUSH2 0x5B2 SWAP2 SWAP1 PUSH2 0x44BE JUMP JUMPDEST PUSH2 0x157A JUMP JUMPDEST STOP JUMPDEST CALLVALUE DUP1 ISZERO PUSH2 0x5C4 JUMPI PUSH0 DUP1 REVERT JUMPDEST POP PUSH2 0x5DF PUSH1 0x4 DUP1 CALLDATASIZE SUB DUP2 ADD SWAP1 PUSH2 0x5DA SWAP2 SWAP1 PUSH2 0x4628 JUMP JUMPDEST PUSH2 0x1590 JUMP JUMPDEST STOP JUMPDEST CALLVALUE DUP1 ISZERO PUSH2 0x5EC JUMPI PUSH0 DUP1 REVERT JUMPDEST POP PUSH2 0x5F5 PUSH2 0x15AD JUMP JUMPDEST PUSH1 0x40 MLOAD PUSH2 0x602 SWAP2 SWAP1 PUSH2 0x41F1 JUMP JUMPDEST PUSH1 0x40 MLOAD DUP1 SWAP2 SUB SWAP1 RETURN JUMPDEST CALLVALUE DUP1 ISZERO PUSH2 0x616 JUMPI PUSH0 DUP1 REVERT JUMPDEST POP PUSH2 0x631 PUSH1 0x4 DUP1 CALLDATASIZE SUB DUP2 ADD SWAP1 PUSH2 0x62C SWAP2 SWAP1 PUSH2 0x403E JUMP JUMPDEST PUSH2 0x15B3 JUMP JUMPDEST PUSH1 0x40 MLOAD PUSH2 0x63E SWAP2 SWAP1 PUSH2 0x3FEB JUMP JUMPDEST PUSH1 0x40 MLOAD DUP1 SWAP2 SUB SWAP1 RETURN JUMPDEST CALLVALUE DUP1 ISZERO PUSH2 0x652 JUMPI PUSH0 DUP1 REVERT JUMPDEST POP PUSH2 0x66D PUSH1 0x4 DUP1 CALLDATASIZE SUB DUP2 ADD SWAP1 PUSH2 0x668 SWAP2 SWAP1 PUSH2 0x403E JUMP JUMPDEST PUSH2 0x1659 JUMP JUMPDEST PUSH1 0x40 MLOAD PUSH2 0x67A SWAP2 SWAP1 PUSH2 0x3FEB JUMP JUMPDEST PUSH1 0x40 MLOAD DUP1 SWAP2 SUB SWAP1 RETURN JUMPDEST PUSH2 0x68B PUSH2 0x166B JUMP JUMPDEST STOP JUMPDEST CALLVALUE DUP1 ISZERO PUSH2 0x698 JUMPI PUSH0 DUP1 REVERT JUMPDEST POP PUSH2 0x6B3 PUSH1 0x4 DUP1 CALLDATASIZE SUB DUP2 ADD SWAP1 PUSH2 0x6AE SWAP2 SWAP1 PUSH2 0x403E JUMP JUMPDEST PUSH2 0x19AE JUMP JUMPDEST PUSH1 0x40 MLOAD PUSH2 0x6C0 SWAP2 SWAP1 PUSH2 0x3F48 JUMP JUMPDEST PUSH1 0x40 MLOAD DUP1 SWAP2 SUB SWAP1 RETURN JUMPDEST CALLVALUE DUP1 ISZERO PUSH2 0x6D4 JUMPI PUSH0 DUP1 REVERT JUMPDEST POP PUSH2 0x6DD PUSH2 0x19CB JUMP JUMPDEST PUSH1 0x40 MLOAD PUSH2 0x6EA SWAP2 SWAP1 PUSH2 0x41F1 JUMP JUMPDEST PUSH1 0x40 MLOAD DUP1 SWAP2 SUB SWAP1 RETURN JUMPDEST CALLVALUE DUP1 ISZERO PUSH2 0x6FE JUMPI PUSH0 DUP1 REVERT JUMPDEST POP PUSH2 0x719 PUSH1 0x4 DUP1 CALLDATASIZE SUB DUP2 ADD SWAP1 PUSH2 0x714 SWAP2 SWAP1 PUSH2 0x403E JUMP JUMPDEST PUSH2 0x19D1 JUMP JUMPDEST PUSH1 0x40 MLOAD PUSH2 0x726 SWAP2 SWAP1 PUSH2 0x3FEB JUMP JUMPDEST PUSH1 0x40 MLOAD DUP1 SWAP2 SUB SWAP1 RETURN JUMPDEST CALLVALUE DUP1 ISZERO PUSH2 0x73A JUMPI PUSH0 DUP1 REVERT JUMPDEST POP PUSH2 0x743 PUSH2 0x1A77 JUMP JUMPDEST PUSH1 0x40 MLOAD PUSH2 0x750 SWAP2 SWAP1 PUSH2 0x41F1 JUMP JUMPDEST PUSH1 0x40 MLOAD DUP1 SWAP2 SUB SWAP1 RETURN JUMPDEST CALLVALUE DUP1 ISZERO PUSH2 0x764 JUMPI PUSH0 DUP1 REVERT JUMPDEST POP PUSH2 0x77F PUSH1 0x4 DUP1 CALLDATASIZE SUB DUP2 ADD SWAP1 PUSH2 0x77A SWAP2 SWAP1 PUSH2 0x46A8 JUMP JUMPDEST PUSH2 0x1A7D JUMP JUMPDEST PUSH1 0x40 MLOAD PUSH2 0x78C SWAP2 SWAP1 PUSH2 0x3F48 JUMP JUMPDEST PUSH1 0x40 MLOAD DUP1 SWAP2 SUB SWAP1 RETURN JUMPDEST CALLVALUE DUP1 ISZERO PUSH2 0x7A0 JUMPI PUSH0 DUP1 REVERT JUMPDEST POP PUSH2 0x7BB PUSH1 0x4 DUP1 CALLDATASIZE SUB DUP2 ADD SWAP1 PUSH2 0x7B6 SWAP2 SWAP1 PUSH2 0x41B7 JUMP JUMPDEST PUSH2 0x1B0B JUMP JUMPDEST STOP JUMPDEST CALLVALUE DUP1 ISZERO PUSH2 0x7C8 JUMPI PUSH0 DUP1 REVERT JUMPDEST POP PUSH2 0x7D1 PUSH2 0x1B8F JUMP JUMPDEST PUSH1 0x40 MLOAD PUSH2 0x7DE SWAP2 SWAP1 PUSH2 0x4741 JUMP JUMPDEST PUSH1 0x40 MLOAD DUP1 SWAP2 SUB SWAP1 RETURN JUMPDEST PUSH0 PUSH2 0x7F1 DUP3 PUSH2 0x1BB4 JUMP JUMPDEST SWAP1 POP SWAP2 SWAP1 POP JUMP JUMPDEST PUSH1 0x60 PUSH0 DUP1 SLOAD PUSH2 0x806 SWAP1 PUSH2 0x4787 JUMP JUMPDEST DUP1 PUSH1 0x1F ADD PUSH1 0x20 DUP1 SWAP2 DIV MUL PUSH1 0x20 ADD PUSH1 0x40 MLOAD SWAP1 DUP2 ADD PUSH1 0x40 MSTORE DUP1 SWAP3 SWAP2 SWAP1 DUP2 DUP2 MSTORE PUSH1 0x20 ADD DUP3 DUP1 SLOAD PUSH2 0x832 SWAP1 PUSH2 0x4787 JUMP JUMPDEST DUP1 ISZERO PUSH2 0x87D JUMPI DUP1 PUSH1 0x1F LT PUSH2 0x854 JUMPI PUSH2 0x100 DUP1 DUP4 SLOAD DIV MUL DUP4 MSTORE SWAP2 PUSH1 0x20 ADD SWAP2 PUSH2 0x87D JUMP JUMPDEST DUP3 ADD SWAP2 SWAP1 PUSH0 MSTORE PUSH1 0x20 PUSH0 KECCAK256 SWAP1 JUMPDEST DUP2 SLOAD DUP2 MSTORE SWAP1 PUSH1 0x1 ADD SWAP1 PUSH1 0x20 ADD DUP1 DUP4 GT PUSH2 0x860 JUMPI DUP3 SWAP1 SUB PUSH1 0x1F AND DUP3 ADD SWAP2 JUMPDEST POP POP POP POP POP SWAP1 POP SWAP1 JUMP JUMPDEST PUSH0 PUSH2 0x891 DUP3 PUSH2 0x1C14 JUMP JUMPDEST POP PUSH2 0x89B DUP3 PUSH2 0x1C9A JUMP JUMPDEST SWAP1 POP SWAP2 SWAP1 POP JUMP JUMPDEST PUSH2 0x8B4 DUP3 DUP3 PUSH2 0x8AF PUSH2 0x1CD3 JUMP JUMPDEST PUSH2 0x1CDA JUMP JUMPDEST POP POP JUMP JUMPDEST PUSH2 0x8C0 PUSH2 0x1CEC JUMP JUMPDEST PUSH1 0x13 PUSH0 DUP4 DUP2 MSTORE PUSH1 0x20 ADD SWAP1 DUP2 MSTORE PUSH1 0x20 ADD PUSH0 KECCAK256 PUSH0 SWAP1 SLOAD SWAP1 PUSH2 0x100 EXP SWAP1 DIV PUSH1 0xFF AND PUSH2 0x91D JUMPI PUSH1 0x40 MLOAD PUSH32 0x8C379A000000000000000000000000000000000000000000000000000000000 DUP2 MSTORE PUSH1 0x4 ADD PUSH2 0x914 SWAP1 PUSH2 0x4801 JUMP JUMPDEST PUSH1 0x40 MLOAD DUP1 SWAP2 SUB SWAP1 REVERT JUMPDEST PUSH1 0x13 PUSH0 DUP3 DUP2 MSTORE PUSH1 0x20 ADD SWAP1 DUP2 MSTORE PUSH1 0x20 ADD PUSH0 KECCAK256 PUSH0 SWAP1 SLOAD SWAP1 PUSH2 0x100 EXP SWAP1 DIV PUSH1 0xFF AND PUSH2 0x97A JUMPI PUSH1 0x40 MLOAD PUSH32 0x8C379A000000000000000000000000000000000000000000000000000000000 DUP2 MSTORE PUSH1 0x4 ADD PUSH2 0x971 SWAP1 PUSH2 0x4869 JUMP JUMPDEST PUSH1 0x40 MLOAD DUP1 SWAP2 SUB SWAP1 REVERT JUMPDEST PUSH1 0x10 SLOAD PUSH2 0x987 PUSH1 0xA PUSH2 0x1D3B JUMP JUMPDEST LT PUSH2 0x9C7 JUMPI PUSH1 0x40 MLOAD PUSH32 0x8C379A000000000000000000000000000000000000000000000000000000000 DUP2 MSTORE PUSH1 0x4 ADD PUSH2 0x9BE SWAP1 PUSH2 0x48D1 JUMP JUMPDEST PUSH1 0x40 MLOAD DUP1 SWAP2 SUB SWAP1 REVERT JUMPDEST PUSH1 0xB SLOAD CALLVALUE LT ISZERO PUSH2 0xA0C JUMPI PUSH1 0x40 MLOAD PUSH32 0x8C379A000000000000000000000000000000000000000000000000000000000 DUP2 MSTORE PUSH1 0x4 ADD PUSH2 0xA03 SWAP1 PUSH2 0x4939 JUMP JUMPDEST PUSH1 0x40 MLOAD DUP1 SWAP2 SUB SWAP1 REVERT JUMPDEST PUSH2 0xA16 PUSH1 0xA PUSH2 0x1D47 JUMP JUMPDEST PUSH0 PUSH2 0xA21 PUSH1 0xA PUSH2 0x1D3B JUMP JUMPDEST SWAP1 POP PUSH2 0xA2C DUP2 PUSH2 0x1D5B JUMP JUMPDEST PUSH0 PUSH2 0xA37 DUP5 DUP5 PUSH2 0x1F6D JUMP JUMPDEST SWAP1 POP DUP1 PUSH1 0x12 PUSH0 DUP5 DUP2 MSTORE PUSH1 0x20 ADD SWAP1 DUP2 MSTORE PUSH1 0x20 ADD PUSH0 KECCAK256 PUSH1 0x4 ADD PUSH0 DUP3 ADD MLOAD DUP2 PUSH0 ADD SWAP1 DUP2 PUSH2 0xA61 SWAP2 SWAP1 PUSH2 0x4AEB JUMP JUMPDEST POP PUSH1 0x20 DUP3 ADD MLOAD DUP2 PUSH1 0x1 ADD SWAP1 DUP2 PUSH2 0xA77 SWAP2 SWAP1 PUSH2 0x4AEB JUMP JUMPDEST POP PUSH1 0x40 DUP3 ADD MLOAD DUP2 PUSH1 0x2 ADD SSTORE PUSH1 0x60 DUP3 ADD MLOAD DUP2 PUSH1 0x3 ADD SSTORE PUSH1 0x80 DUP3 ADD MLOAD DUP2 PUSH1 0x4 ADD SSTORE PUSH1 0xA0 DUP3 ADD MLOAD DUP2 PUSH1 0x5 ADD SSTORE PUSH1 0xC0 DUP3 ADD MLOAD DUP2 PUSH1 0x6 ADD SWAP1 DUP2 PUSH2 0xAB5 SWAP2 SWAP1 PUSH2 0x4AEB JUMP JUMPDEST POP PUSH1 0xE0 DUP3 ADD MLOAD DUP2 PUSH1 0x7 ADD PUSH0 PUSH2 0x100 EXP DUP2 SLOAD DUP2 PUSH1 0xFF MUL NOT AND SWAP1 DUP4 ISZERO ISZERO MUL OR SWAP1 SSTORE POP PUSH2 0x100 DUP3 ADD MLOAD DUP2 PUSH1 0x7 ADD PUSH1 0x1 PUSH2 0x100 EXP DUP2 SLOAD DUP2 PUSH1 0xFF MUL NOT AND SWAP1 DUP4 ISZERO ISZERO MUL OR SWAP1 SSTORE POP PUSH2 0x120 DUP3 ADD MLOAD DUP2 PUSH1 0x8 ADD SWAP1 DUP1 MLOAD SWAP1 PUSH1 0x20 ADD SWAP1 PUSH2 0xB13 SWAP3 SWAP2 SWAP1 PUSH2 0x3D36 JUMP JUMPDEST POP PUSH2 0x140 DUP3 ADD MLOAD DUP2 PUSH1 0x9 ADD SWAP1 DUP2 PUSH2 0xB2A SWAP2 SWAP1 PUSH2 0x4AEB JUMP JUMPDEST POP PUSH2 0x160 DUP3 ADD MLOAD DUP2 PUSH1 0xA ADD SWAP1 DUP2 PUSH2 0xB41 SWAP2 SWAP1 PUSH2 0x4AEB JUMP JUMPDEST POP SWAP1 POP POP PUSH2 0xB70 PUSH1 0xE PUSH0 SWAP1 SLOAD SWAP1 PUSH2 0x100 EXP SWAP1 DIV PUSH20 0xFFFFFFFFFFFFFFFFFFFFFFFFFFFFFFFFFFFFFFFF AND CALLVALUE PUSH2 0x23C5 JUMP JUMPDEST DUP2 CALLER PUSH20 0xFFFFFFFFFFFFFFFFFFFFFFFFFFFFFFFFFFFFFFFF AND PUSH32 0x3706AB2C6D967ABB932E8F22BD9CD7192DA65E00B816500C5CDDAD3738595046 PUSH1 0x40 MLOAD PUSH1 0x40 MLOAD DUP1 SWAP2 SUB SWAP1 LOG3 POP POP PUSH2 0xBBE PUSH2 0x2472 JUMP JUMPDEST POP POP JUMP JUMPDEST PUSH1 0x17 DUP2 DUP2 SLOAD DUP2 LT PUSH2 0xBD1 JUMPI PUSH0 DUP1 REVERT JUMPDEST SWAP1 PUSH0 MSTORE PUSH1 0x20 PUSH0 KECCAK256 ADD PUSH0 SWAP2 POP SWAP1 POP DUP1 SLOAD PUSH2 0xBE9 SWAP1 PUSH2 0x4787 JUMP JUMPDEST DUP1 PUSH1 0x1F ADD PUSH1 0x20 DUP1 SWAP2 DIV MUL PUSH1 0x20 ADD PUSH1 0x40 MLOAD SWAP1 DUP2 ADD PUSH1 0x40 MSTORE DUP1 SWAP3 SWAP2 SWAP1 DUP2 DUP2 MSTORE PUSH1 0x20 ADD DUP3 DUP1 SLOAD PUSH2 0xC15 SWAP1 PUSH2 0x4787 JUMP JUMPDEST DUP1 ISZERO PUSH2 0xC60 JUMPI DUP1 PUSH1 0x1F LT PUSH2 0xC37 JUMPI PUSH2 0x100 DUP1 DUP4 SLOAD DIV MUL DUP4 MSTORE SWAP2 PUSH1 0x20 ADD SWAP2 PUSH2 0xC60 JUMP JUMPDEST DUP3 ADD SWAP2 SWAP1 PUSH0 MSTORE PUSH1 0x20 PUSH0 KECCAK256 SWAP1 JUMPDEST DUP2 SLOAD DUP2 MSTORE SWAP1 PUSH1 0x1 ADD SWAP1 PUSH1 0x20 ADD DUP1 DUP4 GT PUSH2 0xC43 JUMPI DUP3 SWAP1 SUB PUSH1 0x1F AND DUP3 ADD SWAP2 JUMPDEST POP POP POP POP POP DUP2 JUMP JUMPDEST PUSH0 PUSH20 0xFFFFFFFFFFFFFFFFFFFFFFFFFFFFFFFFFFFFFFFF AND DUP3 PUSH20 0xFFFFFFFFFFFFFFFFFFFFFFFFFFFFFFFFFFFFFFFF AND SUB PUSH2 0xCD8 JUMPI PUSH0 PUSH1 0x40 MLOAD PUSH32 0x64A0AE9200000000000000000000000000000000000000000000000000000000 DUP2 MSTORE PUSH1 0x4 ADD PUSH2 0xCCF SWAP2 SWAP1 PUSH2 0x40A8 JUMP JUMPDEST PUSH1 0x40 MLOAD DUP1 SWAP2 SUB SWAP1 REVERT JUMPDEST PUSH0 PUSH2 0xCEB DUP4 DUP4 PUSH2 0xCE6 PUSH2 0x1CD3 JUMP JUMPDEST PUSH2 0x247C JUMP JUMPDEST SWAP1 POP DUP4 PUSH20 0xFFFFFFFFFFFFFFFFFFFFFFFFFFFFFFFFFFFFFFFF AND DUP2 PUSH20 0xFFFFFFFFFFFFFFFFFFFFFFFFFFFFFFFFFFFFFFFF AND EQ PUSH2 0xD61 JUMPI DUP4 DUP3 DUP3 PUSH1 0x40 MLOAD PUSH32 0x64283D7B00000000000000000000000000000000000000000000000000000000 DUP2 MSTORE PUSH1 0x4 ADD PUSH2 0xD58 SWAP4 SWAP3 SWAP2 SWAP1 PUSH2 0x4BBA JUMP JUMPDEST PUSH1 0x40 MLOAD DUP1 SWAP2 SUB SWAP1 REVERT JUMPDEST POP POP POP POP JUMP JUMPDEST PUSH1 0xF PUSH0 SWAP1 SLOAD SWAP1 PUSH2 0x100 EXP SWAP1 DIV PUSH20 0xFFFFFFFFFFFFFFFFFFFFFFFFFFFFFFFFFFFFFFFF AND DUP2 JUMP JUMPDEST PUSH2 0xDA6 DUP4 DUP4 DUP4 PUSH1 0x40 MLOAD DUP1 PUSH1 0x20 ADD PUSH1 0x40 MSTORE DUP1 PUSH0 DUP2 MSTORE POP PUSH2 0x1590 JUMP JUMPDEST POP POP POP JUMP JUMPDEST PUSH0 PUSH2 0xDB5 DUP3 PUSH2 0x1C14 JUMP JUMPDEST SWAP1 POP SWAP2 SWAP1 POP JUMP JUMPDEST PUSH1 0x9 DUP1 SLOAD PUSH2 0xDC9 SWAP1 PUSH2 0x4787 JUMP JUMPDEST DUP1 PUSH1 0x1F ADD PUSH1 0x20 DUP1 SWAP2 DIV MUL PUSH1 0x20 ADD PUSH1 0x40 MLOAD SWAP1 DUP2 ADD PUSH1 0x40 MSTORE DUP1 SWAP3 SWAP2 SWAP1 DUP2 DUP2 MSTORE PUSH1 0x20 ADD DUP3 DUP1 SLOAD PUSH2 0xDF5 SWAP1 PUSH2 0x4787 JUMP JUMPDEST DUP1 ISZERO PUSH2 0xE40 JUMPI DUP1 PUSH1 0x1F LT PUSH2 0xE17 JUMPI PUSH2 0x100 DUP1 DUP4 SLOAD DIV MUL DUP4 MSTORE SWAP2 PUSH1 0x20 ADD SWAP2 PUSH2 0xE40 JUMP JUMPDEST DUP3 ADD SWAP2 SWAP1 PUSH0 MSTORE PUSH1 0x20 PUSH0 KECCAK256 SWAP1 JUMPDEST DUP2 SLOAD DUP2 MSTORE SWAP1 PUSH1 0x1 ADD SWAP1 PUSH1 0x20 ADD DUP1 DUP4 GT PUSH2 0xE23 JUMPI DUP3 SWAP1 SUB PUSH1 0x1F AND DUP3 ADD SWAP2 JUMPDEST POP POP POP POP POP DUP2 JUMP JUMPDEST PUSH0 DUP1 PUSH20 0xFFFFFFFFFFFFFFFFFFFFFFFFFFFFFFFFFFFFFFFF AND DUP3 PUSH20 0xFFFFFFFFFFFFFFFFFFFFFFFFFFFFFFFFFFFFFFFF AND SUB PUSH2 0xEB9 JUMPI PUSH0 PUSH1 0x40 MLOAD PUSH32 0x89C62B6400000000000000000000000000000000000000000000000000000000 DUP2 MSTORE PUSH1 0x4 ADD PUSH2 0xEB0 SWAP2 SWAP1 PUSH2 0x40A8 JUMP JUMPDEST PUSH1 0x40 MLOAD DUP1 SWAP2 SUB SWAP1 REVERT JUMPDEST PUSH1 0x3 PUSH0 DUP4 PUSH20 0xFFFFFFFFFFFFFFFFFFFFFFFFFFFFFFFFFFFFFFFF AND PUSH20 0xFFFFFFFFFFFFFFFFFFFFFFFFFFFFFFFFFFFFFFFF AND DUP2 MSTORE PUSH1 0x20 ADD SWAP1 DUP2 MSTORE PUSH1 0x20 ADD PUSH0 KECCAK256 SLOAD SWAP1 POP SWAP2 SWAP1 POP JUMP JUMPDEST PUSH2 0xF06 PUSH2 0x2687 JUMP JUMPDEST PUSH2 0xF0F PUSH0 PUSH2 0x270E JUMP JUMPDEST JUMP JUMPDEST CALLER PUSH20 0xFFFFFFFFFFFFFFFFFFFFFFFFFFFFFFFFFFFFFFFF AND PUSH2 0xF31 DUP3 PUSH2 0xDAB JUMP JUMPDEST PUSH20 0xFFFFFFFFFFFFFFFFFFFFFFFFFFFFFFFFFFFFFFFF AND EQ PUSH2 0xF87 JUMPI PUSH1 0x40 MLOAD PUSH32 0x8C379A000000000000000000000000000000000000000000000000000000000 DUP2 MSTORE PUSH1 0x4 ADD PUSH2 0xF7E SWAP1 PUSH2 0x4C39 JUMP JUMPDEST PUSH1 0x40 MLOAD DUP1 SWAP2 SUB SWAP1 REVERT JUMPDEST PUSH2 0xF90 DUP2 PUSH2 0x27D1 JUMP JUMPDEST PUSH1 0x12 PUSH0 DUP3 DUP2 MSTORE PUSH1 0x20 ADD SWAP1 DUP2 MSTORE PUSH1 0x20 ADD PUSH0 KECCAK256 PUSH0 DUP1 DUP3 ADD PUSH0 SWAP1 SSTORE PUSH1 0x1 DUP3 ADD PUSH0 PUSH2 0x100 EXP DUP2 SLOAD SWAP1 PUSH20 0xFFFFFFFFFFFFFFFFFFFFFFFFFFFFFFFFFFFFFFFF MUL NOT AND SWAP1 SSTORE PUSH1 0x2 DUP3 ADD PUSH0 SWAP1 SSTORE PUSH1 0x3 DUP3 ADD PUSH0 SWAP1 SSTORE PUSH1 0x4 DUP3 ADD PUSH0 DUP1 DUP3 ADD PUSH0 PUSH2 0xFEF SWAP2 SWAP1 PUSH2 0x3D81 JUMP JUMPDEST PUSH1 0x1 DUP3 ADD PUSH0 PUSH2 0xFFE SWAP2 SWAP1 PUSH2 0x3D81 JUMP JUMPDEST PUSH1 0x2 DUP3 ADD PUSH0 SWAP1 SSTORE PUSH1 0x3 DUP3 ADD PUSH0 SWAP1 SSTORE PUSH1 0x4 DUP3 ADD PUSH0 SWAP1 SSTORE PUSH1 0x5 DUP3 ADD PUSH0 SWAP1 SSTORE PUSH1 0x6 DUP3 ADD PUSH0 PUSH2 0x1029 SWAP2 SWAP1 PUSH2 0x3D81 JUMP JUMPDEST PUSH1 0x7 DUP3 ADD PUSH0 PUSH2 0x100 EXP DUP2 SLOAD SWAP1 PUSH1 0xFF MUL NOT AND SWAP1 SSTORE PUSH1 0x7 DUP3 ADD PUSH1 0x1 PUSH2 0x100 EXP DUP2 SLOAD SWAP1 PUSH1 0xFF MUL NOT AND SWAP1 SSTORE PUSH1 0x8 DUP3 ADD PUSH0 PUSH2 0x105F SWAP2 SWAP1 PUSH2 0x3DBE JUMP JUMPDEST PUSH1 0x9 DUP3 ADD PUSH0 PUSH2 0x106E SWAP2 SWAP1 PUSH2 0x3D81 JUMP JUMPDEST PUSH1 0xA DUP3 ADD PUSH0 PUSH2 0x107D SWAP2 SWAP1 PUSH2 0x3D81 JUMP JUMPDEST POP POP POP POP PUSH1 0x13 PUSH0 DUP3 DUP2 MSTORE PUSH1 0x20 ADD SWAP1 DUP2 MSTORE PUSH1 0x20 ADD PUSH0 KECCAK256 PUSH0 PUSH2 0x100 EXP DUP2 SLOAD SWAP1 PUSH1 0xFF MUL NOT AND SWAP1 SSTORE POP JUMP JUMPDEST PUSH1 0x12 PUSH1 0x20 MSTORE DUP1 PUSH0 MSTORE PUSH1 0x40 PUSH0 KECCAK256 PUSH0 SWAP2 POP SWAP1 POP DUP1 PUSH0 ADD SLOAD SWAP1 DUP1 PUSH1 0x1 ADD PUSH0 SWAP1 SLOAD SWAP1 PUSH2 0x100 EXP SWAP1 DIV PUSH20 0xFFFFFFFFFFFFFFFFFFFFFFFFFFFFFFFFFFFFFFFF AND SWAP1 DUP1 PUSH1 0x2 ADD SLOAD SWAP1 DUP1 PUSH1 0x3 ADD SLOAD SWAP1 DUP1 PUSH1 0x4 ADD PUSH1 0x40 MLOAD DUP1 PUSH2 0x180 ADD PUSH1 0x40 MSTORE SWAP1 DUP2 PUSH0 DUP3 ADD DUP1 SLOAD PUSH2 0x110A SWAP1 PUSH2 0x4787 JUMP JUMPDEST DUP1 PUSH1 0x1F ADD PUSH1 0x20 DUP1 SWAP2 DIV MUL PUSH1 0x20 ADD PUSH1 0x40 MLOAD SWAP1 DUP2 ADD PUSH1 0x40 MSTORE DUP1 SWAP3 SWAP2 SWAP1 DUP2 DUP2 MSTORE PUSH1 0x20 ADD DUP3 DUP1 SLOAD PUSH2 0x1136 SWAP1 PUSH2 0x4787 JUMP JUMPDEST DUP1 ISZERO PUSH2 0x1181 JUMPI DUP1 PUSH1 0x1F LT PUSH2 0x1158 JUMPI PUSH2 0x100 DUP1 DUP4 SLOAD DIV MUL DUP4 MSTORE SWAP2 PUSH1 0x20 ADD SWAP2 PUSH2 0x1181 JUMP JUMPDEST DUP3 ADD SWAP2 SWAP1 PUSH0 MSTORE PUSH1 0x20 PUSH0 KECCAK256 SWAP1 JUMPDEST DUP2 SLOAD DUP2 MSTORE SWAP1 PUSH1 0x1 ADD SWAP1 PUSH1 0x20 ADD DUP1 DUP4 GT PUSH2 0x1164 JUMPI DUP3 SWAP1 SUB PUSH1 0x1F AND DUP3 ADD SWAP2 JUMPDEST POP POP POP POP POP DUP2 MSTORE PUSH1 0x20 ADD PUSH1 0x1 DUP3 ADD DUP1 SLOAD PUSH2 0x119A SWAP1 PUSH2 0x4787 JUMP JUMPDEST DUP1 PUSH1 0x1F ADD PUSH1 0x20 DUP1 SWAP2 DIV MUL PUSH1 0x20 ADD PUSH1 0x40 MLOAD SWAP1 DUP2 ADD PUSH1 0x40 MSTORE DUP1 SWAP3 SWAP2 SWAP1 DUP2 DUP2 MSTORE PUSH1 0x20 ADD DUP3 DUP1 SLOAD PUSH2 0x11C6 SWAP1 PUSH2 0x4787 JUMP JUMPDEST DUP1 ISZERO PUSH2 0x1211 JUMPI DUP1 PUSH1 0x1F LT PUSH2 0x11E8 JUMPI PUSH2 0x100 DUP1 DUP4 SLOAD DIV MUL DUP4 MSTORE SWAP2 PUSH1 0x20 ADD SWAP2 PUSH2 0x1211 JUMP JUMPDEST DUP3 ADD SWAP2 SWAP1 PUSH0 MSTORE PUSH1 0x20 PUSH0 KECCAK256 SWAP1 JUMPDEST DUP2 SLOAD DUP2 MSTORE SWAP1 PUSH1 0x1 ADD SWAP1 PUSH1 0x20 ADD DUP1 DUP4 GT PUSH2 0x11F4 JUMPI DUP3 SWAP1 SUB PUSH1 0x1F AND DUP3 ADD SWAP2 JUMPDEST POP POP POP POP POP DUP2 MSTORE PUSH1 0x20 ADD PUSH1 0x2 DUP3 ADD SLOAD DUP2 MSTORE PUSH1 0x20 ADD PUSH1 0x3 DUP3 ADD SLOAD DUP2 MSTORE PUSH1 0x20 ADD PUSH1 0x4 DUP3 ADD SLOAD DUP2 MSTORE PUSH1 0x20 ADD PUSH1 0x5 DUP3 ADD SLOAD DUP2 MSTORE PUSH1 0x20 ADD PUSH1 0x6 DUP3 ADD DUP1 SLOAD PUSH2 0x1252 SWAP1 PUSH2 0x4787 JUMP JUMPDEST DUP1 PUSH1 0x1F ADD PUSH1 0x20 DUP1 SWAP2 DIV MUL PUSH1 0x20 ADD PUSH1 0x40 MLOAD SWAP1 DUP2 ADD PUSH1 0x40 MSTORE DUP1 SWAP3 SWAP2 SWAP1 DUP2 DUP2 MSTORE PUSH1 0x20 ADD DUP3 DUP1 SLOAD PUSH2 0x127E SWAP1 PUSH2 0x4787 JUMP JUMPDEST DUP1 ISZERO PUSH2 0x12C9 JUMPI DUP1 PUSH1 0x1F LT PUSH2 0x12A0 JUMPI PUSH2 0x100 DUP1 DUP4 SLOAD DIV MUL DUP4 MSTORE SWAP2 PUSH1 0x20 ADD SWAP2 PUSH2 0x12C9 JUMP JUMPDEST DUP3 ADD SWAP2 SWAP1 PUSH0 MSTORE PUSH1 0x20 PUSH0 KECCAK256 SWAP1 JUMPDEST DUP2 SLOAD DUP2 MSTORE SWAP1 PUSH1 0x1 ADD SWAP1 PUSH1 0x20 ADD DUP1 DUP4 GT PUSH2 0x12AC JUMPI DUP3 SWAP1 SUB PUSH1 0x1F AND DUP3 ADD SWAP2 JUMPDEST POP POP POP POP POP DUP2 MSTORE PUSH1 0x20 ADD PUSH1 0x7 DUP3 ADD PUSH0 SWAP1 SLOAD SWAP1 PUSH2 0x100 EXP SWAP1 DIV PUSH1 0xFF AND ISZERO ISZERO ISZERO ISZERO DUP2 MSTORE PUSH1 0x20 ADD PUSH1 0x7 DUP3 ADD PUSH1 0x1 SWAP1 SLOAD SWAP1 PUSH2 0x100 EXP SWAP1 DIV PUSH1 0xFF AND ISZERO ISZERO ISZERO ISZERO DUP2 MSTORE PUSH1 0x20 ADD PUSH1 0x8 DUP3 ADD DUP1 SLOAD DUP1 PUSH1 0x20 MUL PUSH1 0x20 ADD PUSH1 0x40 MLOAD SWAP1 DUP2 ADD PUSH1 0x40 MSTORE DUP1 SWAP3 SWAP2 SWAP1 DUP2 DUP2 MSTORE PUSH1 0x20 ADD DUP3 DUP1 SLOAD DUP1 ISZERO PUSH2 0x1354 JUMPI PUSH1 0x20 MUL DUP3 ADD SWAP2 SWAP1 PUSH0 MSTORE PUSH1 0x20 PUSH0 KECCAK256 SWAP1 JUMPDEST DUP2 SLOAD DUP2 MSTORE PUSH1 0x20 ADD SWAP1 PUSH1 0x1 ADD SWAP1 DUP1 DUP4 GT PUSH2 0x1340 JUMPI JUMPDEST POP POP POP POP POP DUP2 MSTORE PUSH1 0x20 ADD PUSH1 0x9 DUP3 ADD DUP1 SLOAD PUSH2 0x136D SWAP1 PUSH2 0x4787 JUMP JUMPDEST DUP1 PUSH1 0x1F ADD PUSH1 0x20 DUP1 SWAP2 DIV MUL PUSH1 0x20 ADD PUSH1 0x40 MLOAD SWAP1 DUP2 ADD PUSH1 0x40 MSTORE DUP1 SWAP3 SWAP2 SWAP1 DUP2 DUP2 MSTORE PUSH1 0x20 ADD DUP3 DUP1 SLOAD PUSH2 0x1399 SWAP1 PUSH2 0x4787 JUMP JUMPDEST DUP1 ISZERO PUSH2 0x13E4 JUMPI DUP1 PUSH1 0x1F LT PUSH2 0x13BB JUMPI PUSH2 0x100 DUP1 DUP4 SLOAD DIV MUL DUP4 MSTORE SWAP2 PUSH1 0x20 ADD SWAP2 PUSH2 0x13E4 JUMP JUMPDEST DUP3 ADD SWAP2 SWAP1 PUSH0 MSTORE PUSH1 0x20 PUSH0 KECCAK256 SWAP1 JUMPDEST DUP2 SLOAD DUP2 MSTORE SWAP1 PUSH1 0x1 ADD SWAP1 PUSH1 0x20 ADD DUP1 DUP4 GT PUSH2 0x13C7 JUMPI DUP3 SWAP1 SUB PUSH1 0x1F AND DUP3 ADD SWAP2 JUMPDEST POP POP POP POP POP DUP2 MSTORE PUSH1 0x20 ADD PUSH1 0xA DUP3 ADD DUP1 SLOAD PUSH2 0x13FD SWAP1 PUSH2 0x4787 JUMP JUMPDEST DUP1 PUSH1 0x1F ADD PUSH1 0x20 DUP1 SWAP2 DIV MUL PUSH1 0x20 ADD PUSH1 0x40 MLOAD SWAP1 DUP2 ADD PUSH1 0x40 MSTORE DUP1 SWAP3 SWAP2 SWAP1 DUP2 DUP2 MSTORE PUSH1 0x20 ADD DUP3 DUP1 SLOAD PUSH2 0x1429 SWAP1 PUSH2 0x4787 JUMP JUMPDEST DUP1 ISZERO PUSH2 0x1474 JUMPI DUP1 PUSH1 0x1F LT PUSH2 0x144B JUMPI PUSH2 0x100 DUP1 DUP4 SLOAD DIV MUL DUP4 MSTORE SWAP2 PUSH1 0x20 ADD SWAP2 PUSH2 0x1474 JUMP JUMPDEST DUP3 ADD SWAP2 SWAP1 PUSH0 MSTORE PUSH1 0x20 PUSH0 KECCAK256 SWAP1 JUMPDEST DUP2 SLOAD DUP2 MSTORE SWAP1 PUSH1 0x1 ADD SWAP1 PUSH1 0x20 ADD DUP1 DUP4 GT PUSH2 0x1457 JUMPI DUP3 SWAP1 SUB PUSH1 0x1F AND DUP3 ADD SWAP2 JUMPDEST POP POP POP POP POP DUP2 MSTORE POP POP SWAP1 POP DUP6 JUMP JUMPDEST PUSH1 0x14 PUSH1 0x20 MSTORE DUP1 PUSH0 MSTORE PUSH1 0x40 PUSH0 KECCAK256 PUSH0 SWAP2 POP SWAP1 POP SLOAD DUP2 JUMP JUMPDEST PUSH0 PUSH1 0x7 PUSH0 SWAP1 SLOAD SWAP1 PUSH2 0x100 EXP SWAP1 DIV PUSH20 0xFFFFFFFFFFFFFFFFFFFFFFFFFFFFFFFFFFFFFFFF AND SWAP1 POP SWAP1 JUMP JUMPDEST PUSH1 0xE PUSH0 SWAP1 SLOAD SWAP1 PUSH2 0x100 EXP SWAP1 DIV PUSH20 0xFFFFFFFFFFFFFFFFFFFFFFFFFFFFFFFFFFFFFFFF AND DUP2 JUMP JUMPDEST PUSH1 0xC SLOAD DUP2 JUMP JUMPDEST PUSH1 0x60 PUSH1 0x1 DUP1 SLOAD PUSH2 0x14F9 SWAP1 PUSH2 0x4787 JUMP JUMPDEST DUP1 PUSH1 0x1F ADD PUSH1 0x20 DUP1 SWAP2 DIV MUL PUSH1 0x20 ADD PUSH1 0x40 MLOAD SWAP1 DUP2 ADD PUSH1 0x40 MSTORE DUP1 SWAP3 SWAP2 SWAP1 DUP2 DUP2 MSTORE PUSH1 0x20 ADD DUP3 DUP1 SLOAD PUSH2 0x1525 SWAP1 PUSH2 0x4787 JUMP JUMPDEST DUP1 ISZERO PUSH2 0x1570 JUMPI DUP1 PUSH1 0x1F LT PUSH2 0x1547 JUMPI PUSH2 0x100 DUP1 DUP4 SLOAD DIV MUL DUP4 MSTORE SWAP2 PUSH1 0x20 ADD SWAP2 PUSH2 0x1570 JUMP JUMPDEST DUP3 ADD SWAP2 SWAP1 PUSH0 MSTORE PUSH1 0x20 PUSH0 KECCAK256 SWAP1 JUMPDEST DUP2 SLOAD DUP2 MSTORE SWAP1 PUSH1 0x1 ADD SWAP1 PUSH1 0x20 ADD DUP1 DUP4 GT PUSH2 0x1553 JUMPI DUP3 SWAP1 SUB PUSH1 0x1F AND DUP3 ADD SWAP2 JUMPDEST POP POP POP POP POP SWAP1 POP SWAP1 JUMP JUMPDEST PUSH2 0x158C PUSH2 0x1585 PUSH2 0x1CD3 JUMP JUMPDEST DUP4 DUP4 PUSH2 0x2853 JUMP JUMPDEST POP POP JUMP JUMPDEST PUSH2 0x159B DUP5 DUP5 DUP5 PUSH2 0xC68 JUMP JUMPDEST PUSH2 0x15A7 DUP5 DUP5 DUP5 DUP5 PUSH2 0x29BC JUMP JUMPDEST POP POP POP POP JUMP JUMPDEST PUSH1 0xB SLOAD DUP2 JUMP JUMPDEST PUSH1 0x15 DUP2 DUP2 SLOAD DUP2 LT PUSH2 0x15C2 JUMPI PUSH0 DUP1 REVERT JUMPDEST SWAP1 PUSH0 MSTORE PUSH1 0x20 PUSH0 KECCAK256 ADD PUSH0 SWAP2 POP SWAP1 POP DUP1 SLOAD PUSH2 0x15DA SWAP1 PUSH2 0x4787 JUMP JUMPDEST DUP1 PUSH1 0x1F ADD PUSH1 0x20 DUP1 SWAP2 DIV MUL PUSH1 0x20 ADD PUSH1 0x40 MLOAD SWAP1 DUP2 ADD PUSH1 0x40 MSTORE DUP1 SWAP3 SWAP2 SWAP1 DUP2 DUP2 MSTORE PUSH1 0x20 ADD DUP3 DUP1 SLOAD PUSH2 0x1606 SWAP1 PUSH2 0x4787 JUMP JUMPDEST DUP1 ISZERO PUSH2 0x1651 JUMPI DUP1 PUSH1 0x1F LT PUSH2 0x1628 JUMPI PUSH2 0x100 DUP1 DUP4 SLOAD DIV MUL DUP4 MSTORE SWAP2 PUSH1 0x20 ADD SWAP2 PUSH2 0x1651 JUMP JUMPDEST DUP3 ADD SWAP2 SWAP1 PUSH0 MSTORE PUSH1 0x20 PUSH0 KECCAK256 SWAP1 JUMPDEST DUP2 SLOAD DUP2 MSTORE SWAP1 PUSH1 0x1 ADD SWAP1 PUSH1 0x20 ADD DUP1 DUP4 GT PUSH2 0x1634 JUMPI DUP3 SWAP1 SUB PUSH1 0x1F AND DUP3 ADD SWAP2 JUMPDEST POP POP POP POP POP DUP2 JUMP JUMPDEST PUSH1 0x60 PUSH2 0x1664 DUP3 PUSH2 0x2B6E JUMP JUMPDEST SWAP1 POP SWAP2 SWAP1 POP JUMP JUMPDEST PUSH2 0x1673 PUSH2 0x1CEC JUMP JUMPDEST PUSH1 0x10 SLOAD PUSH2 0x1680 PUSH1 0xA PUSH2 0x1D3B JUMP JUMPDEST LT PUSH2 0x16C0 JUMPI PUSH1 0x40 MLOAD PUSH32 0x8C379A000000000000000000000000000000000000000000000000000000000 DUP2 MSTORE PUSH1 0x4 ADD PUSH2 0x16B7 SWAP1 PUSH2 0x4CC7 JUMP JUMPDEST PUSH1 0x40 MLOAD DUP1 SWAP2 SUB SWAP1 REVERT JUMPDEST PUSH1 0xB SLOAD CALLVALUE LT ISZERO PUSH2 0x1705 JUMPI PUSH1 0x40 MLOAD PUSH32 0x8C379A000000000000000000000000000000000000000000000000000000000 DUP2 MSTORE PUSH1 0x4 ADD PUSH2 0x16FC SWAP1 PUSH2 0x4D2F JUMP JUMPDEST PUSH1 0x40 MLOAD DUP1 SWAP2 SUB SWAP1 REVERT JUMPDEST PUSH1 0xD SLOAD PUSH1 0x11 PUSH0 SWAP1 SLOAD SWAP1 PUSH2 0x100 EXP SWAP1 DIV PUSH20 0xFFFFFFFFFFFFFFFFFFFFFFFFFFFFFFFFFFFFFFFF AND PUSH20 0xFFFFFFFFFFFFFFFFFFFFFFFFFFFFFFFFFFFFFFFF AND PUSH4 0x70A08231 CALLER PUSH1 0x40 MLOAD DUP3 PUSH4 0xFFFFFFFF AND PUSH1 0xE0 SHL DUP2 MSTORE PUSH1 0x4 ADD PUSH2 0x1762 SWAP2 SWAP1 PUSH2 0x40A8 JUMP JUMPDEST PUSH1 0x20 PUSH1 0x40 MLOAD DUP1 DUP4 SUB DUP2 DUP7 GAS STATICCALL ISZERO DUP1 ISZERO PUSH2 0x177D JUMPI RETURNDATASIZE PUSH0 DUP1 RETURNDATACOPY RETURNDATASIZE PUSH0 REVERT JUMPDEST POP POP POP POP PUSH1 0x40 MLOAD RETURNDATASIZE PUSH1 0x1F NOT PUSH1 0x1F DUP3 ADD AND DUP3 ADD DUP1 PUSH1 0x40 MSTORE POP DUP2 ADD SWAP1 PUSH2 0x17A1 SWAP2 SWAP1 PUSH2 0x4D61 JUMP JUMPDEST LT ISZERO PUSH2 0x17E2 JUMPI PUSH1 0x40 MLOAD PUSH32 0x8C379A000000000000000000000000000000000000000000000000000000000 DUP2 MSTORE PUSH1 0x4 ADD PUSH2 0x17D9 SWAP1 PUSH2 0x4DFC JUMP JUMPDEST PUSH1 0x40 MLOAD DUP1 SWAP2 SUB SWAP1 REVERT JUMPDEST PUSH2 0x17EC PUSH1 0xA PUSH2 0x1D47 JUMP JUMPDEST PUSH0 PUSH2 0x17F7 PUSH1 0xA PUSH2 0x1D3B JUMP JUMPDEST SWAP1 POP PUSH2 0x1802 DUP2 PUSH2 0x1D5B JUMP JUMPDEST PUSH0 PUSH2 0x180C DUP3 PUSH2 0x2FAA JUMP JUMPDEST SWAP1 POP DUP1 PUSH1 0x12 PUSH0 DUP5 DUP2 MSTORE PUSH1 0x20 ADD SWAP1 DUP2 MSTORE PUSH1 0x20 ADD PUSH0 KECCAK256 PUSH1 0x4 ADD PUSH0 DUP3 ADD MLOAD DUP2 PUSH0 ADD SWAP1 DUP2 PUSH2 0x1836 SWAP2 SWAP1 PUSH2 0x4AEB JUMP JUMPDEST POP PUSH1 0x20 DUP3 ADD MLOAD DUP2 PUSH1 0x1 ADD SWAP1 DUP2 PUSH2 0x184C SWAP2 SWAP1 PUSH2 0x4AEB JUMP JUMPDEST POP PUSH1 0x40 DUP3 ADD MLOAD DUP2 PUSH1 0x2 ADD SSTORE PUSH1 0x60 DUP3 ADD MLOAD DUP2 PUSH1 0x3 ADD SSTORE PUSH1 0x80 DUP3 ADD MLOAD DUP2 PUSH1 0x4 ADD SSTORE PUSH1 0xA0 DUP3 ADD MLOAD DUP2 PUSH1 0x5 ADD SSTORE PUSH1 0xC0 DUP3 ADD MLOAD DUP2 PUSH1 0x6 ADD SWAP1 DUP2 PUSH2 0x188A SWAP2 SWAP1 PUSH2 0x4AEB JUMP JUMPDEST POP PUSH1 0xE0 DUP3 ADD MLOAD DUP2 PUSH1 0x7 ADD PUSH0 PUSH2 0x100 EXP DUP2 SLOAD DUP2 PUSH1 0xFF MUL NOT AND SWAP1 DUP4 ISZERO ISZERO MUL OR SWAP1 SSTORE POP PUSH2 0x100 DUP3 ADD MLOAD DUP2 PUSH1 0x7 ADD PUSH1 0x1 PUSH2 0x100 EXP DUP2 SLOAD DUP2 PUSH1 0xFF MUL NOT AND SWAP1 DUP4 ISZERO ISZERO MUL OR SWAP1 SSTORE POP PUSH2 0x120 DUP3 ADD MLOAD DUP2 PUSH1 0x8 ADD SWAP1 DUP1 MLOAD SWAP1 PUSH1 0x20 ADD SWAP1 PUSH2 0x18E8 SWAP3 SWAP2 SWAP1 PUSH2 0x3D36 JUMP JUMPDEST POP PUSH2 0x140 DUP3 ADD MLOAD DUP2 PUSH1 0x9 ADD SWAP1 DUP2 PUSH2 0x18FF SWAP2 SWAP1 PUSH2 0x4AEB JUMP JUMPDEST POP PUSH2 0x160 DUP3 ADD MLOAD DUP2 PUSH1 0xA ADD SWAP1 DUP2 PUSH2 0x1916 SWAP2 SWAP1 PUSH2 0x4AEB JUMP JUMPDEST POP SWAP1 POP POP CALLVALUE PUSH1 0x12 PUSH0 DUP5 DUP2 MSTORE PUSH1 0x20 ADD SWAP1 DUP2 MSTORE PUSH1 0x20 ADD PUSH0 KECCAK256 PUSH1 0x2 ADD DUP2 SWAP1 SSTORE POP PUSH2 0x195E PUSH1 0xE PUSH0 SWAP1 SLOAD SWAP1 PUSH2 0x100 EXP SWAP1 DIV PUSH20 0xFFFFFFFFFFFFFFFFFFFFFFFFFFFFFFFFFFFFFFFF AND CALLVALUE PUSH2 0x23C5 JUMP JUMPDEST DUP2 CALLER PUSH20 0xFFFFFFFFFFFFFFFFFFFFFFFFFFFFFFFFFFFFFFFF AND PUSH32 0x9C806DF7023FAD0F5998BFE70725C0F334A52B43810DB7E7CFD475C35E1C76D PUSH1 0x40 MLOAD PUSH1 0x40 MLOAD DUP1 SWAP2 SUB SWAP1 LOG3 POP POP PUSH2 0x19AC PUSH2 0x2472 JUMP JUMPDEST JUMP JUMPDEST PUSH1 0x13 PUSH1 0x20 MSTORE DUP1 PUSH0 MSTORE PUSH1 0x40 PUSH0 KECCAK256 PUSH0 SWAP2 POP SLOAD SWAP1 PUSH2 0x100 EXP SWAP1 DIV PUSH1 0xFF AND DUP2 JUMP JUMPDEST PUSH1 0x10 SLOAD DUP2 JUMP JUMPDEST PUSH1 0x16 DUP2 DUP2 SLOAD DUP2 LT PUSH2 0x19E0 JUMPI PUSH0 DUP1 REVERT JUMPDEST SWAP1 PUSH0 MSTORE PUSH1 0x20 PUSH0 KECCAK256 ADD PUSH0 SWAP2 POP SWAP1 POP DUP1 SLOAD PUSH2 0x19F8 SWAP1 PUSH2 0x4787 JUMP JUMPDEST DUP1 PUSH1 0x1F ADD PUSH1 0x20 DUP1 SWAP2 DIV MUL PUSH1 0x20 ADD PUSH1 0x40 MLOAD SWAP1 DUP2 ADD PUSH1 0x40 MSTORE DUP1 SWAP3 SWAP2 SWAP1 DUP2 DUP2 MSTORE PUSH1 0x20 ADD DUP3 DUP1 SLOAD PUSH2 0x1A24 SWAP1 PUSH2 0x4787 JUMP JUMPDEST DUP1 ISZERO PUSH2 0x1A6F JUMPI DUP1 PUSH1 0x1F LT PUSH2 0x1A46 JUMPI PUSH2 0x100 DUP1 DUP4 SLOAD DIV MUL DUP4 MSTORE SWAP2 PUSH1 0x20 ADD SWAP2 PUSH2 0x1A6F JUMP JUMPDEST DUP3 ADD SWAP2 SWAP1 PUSH0 MSTORE PUSH1 0x20 PUSH0 KECCAK256 SWAP1 JUMPDEST DUP2 SLOAD DUP2 MSTORE SWAP1 PUSH1 0x1 ADD SWAP1 PUSH1 0x20 ADD DUP1 DUP4 GT PUSH2 0x1A52 JUMPI DUP3 SWAP1 SUB PUSH1 0x1F AND DUP3 ADD SWAP2 JUMPDEST POP POP POP POP POP DUP2 JUMP JUMPDEST PUSH1 0xD SLOAD DUP2 JUMP JUMPDEST PUSH0 PUSH1 0x5 PUSH0 DUP5 PUSH20 0xFFFFFFFFFFFFFFFFFFFFFFFFFFFFFFFFFFFFFFFF AND PUSH20 0xFFFFFFFFFFFFFFFFFFFFFFFFFFFFFFFFFFFFFFFF AND DUP2 MSTORE PUSH1 0x20 ADD SWAP1 DUP2 MSTORE PUSH1 0x20 ADD PUSH0 KECCAK256 PUSH0 DUP4 PUSH20 0xFFFFFFFFFFFFFFFFFFFFFFFFFFFFFFFFFFFFFFFF AND PUSH20 0xFFFFFFFFFFFFFFFFFFFFFFFFFFFFFFFFFFFFFFFF AND DUP2 MSTORE PUSH1 0x20 ADD SWAP1 DUP2 MSTORE PUSH1 0x20 ADD PUSH0 KECCAK256 PUSH0 SWAP1 SLOAD SWAP1 PUSH2 0x100 EXP SWAP1 DIV PUSH1 0xFF AND SWAP1 POP SWAP3 SWAP2 POP POP JUMP JUMPDEST PUSH2 0x1B13 PUSH2 0x2687 JUMP JUMPDEST PUSH0 PUSH20 0xFFFFFFFFFFFFFFFFFFFFFFFFFFFFFFFFFFFFFFFF AND DUP2 PUSH20 0xFFFFFFFFFFFFFFFFFFFFFFFFFFFFFFFFFFFFFFFF AND SUB PUSH2 0x1B83 JUMPI PUSH0 PUSH1 0x40 MLOAD PUSH32 0x1E4FBDF700000000000000000000000000000000000000000000000000000000 DUP2 MSTORE PUSH1 0x4 ADD PUSH2 0x1B7A SWAP2 SWAP1 PUSH2 0x40A8 JUMP JUMPDEST PUSH1 0x40 MLOAD DUP1 SWAP2 SUB SWAP1 REVERT JUMPDEST PUSH2 0x1B8C DUP2 PUSH2 0x270E JUMP JUMPDEST POP JUMP JUMPDEST PUSH1 0x11 PUSH0 SWAP1 SLOAD SWAP1 PUSH2 0x100 EXP SWAP1 DIV PUSH20 0xFFFFFFFFFFFFFFFFFFFFFFFFFFFFFFFFFFFFFFFF AND DUP2 JUMP JUMPDEST PUSH0 PUSH4 0x49064906 PUSH1 0xE0 SHL PUSH28 0xFFFFFFFFFFFFFFFFFFFFFFFFFFFFFFFFFFFFFFFFFFFFFFFFFFFFFFFF NOT AND DUP3 PUSH28 0xFFFFFFFFFFFFFFFFFFFFFFFFFFFFFFFFFFFFFFFFFFFFFFFFFFFFFFFF NOT AND EQ DUP1 PUSH2 0x1C0D JUMPI POP PUSH2 0x1C0C DUP3 PUSH2 0x32B3 JUMP JUMPDEST JUMPDEST SWAP1 POP SWAP2 SWAP1 POP JUMP JUMPDEST PUSH0 DUP1 PUSH2 0x1C1F DUP4 PUSH2 0x3394 JUMP JUMPDEST SWAP1 POP PUSH0 PUSH20 0xFFFFFFFFFFFFFFFFFFFFFFFFFFFFFFFFFFFFFFFF AND DUP2 PUSH20 0xFFFFFFFFFFFFFFFFFFFFFFFFFFFFFFFFFFFFFFFF AND SUB PUSH2 0x1C91 JUMPI DUP3 PUSH1 0x40 MLOAD PUSH32 0x7E27328900000000000000000000000000000000000000000000000000000000 DUP2 MSTORE PUSH1 0x4 ADD PUSH2 0x1C88 SWAP2 SWAP1 PUSH2 0x41F1 JUMP JUMPDEST PUSH1 0x40 MLOAD DUP1 SWAP2 SUB SWAP1 REVERT JUMPDEST DUP1 SWAP2 POP POP SWAP2 SWAP1 POP JUMP JUMPDEST PUSH0 PUSH1 0x4 PUSH0 DUP4 DUP2 MSTORE PUSH1 0x20 ADD SWAP1 DUP2 MSTORE PUSH1 0x20 ADD PUSH0 KECCAK256 PUSH0 SWAP1 SLOAD SWAP1 PUSH2 0x100 EXP SWAP1 DIV PUSH20 0xFFFFFFFFFFFFFFFFFFFFFFFFFFFFFFFFFFFFFFFF AND SWAP1 POP SWAP2 SWAP1 POP JUMP JUMPDEST PUSH0 CALLER SWAP1 POP SWAP1 JUMP JUMPDEST PUSH2 0x1CE7 DUP4 DUP4 DUP4 PUSH1 0x1 PUSH2 0x33CD JUMP JUMPDEST POP POP POP JUMP JUMPDEST PUSH1 0x2 PUSH1 0x8 SLOAD SUB PUSH2 0x1D31 JUMPI PUSH1 0x40 MLOAD PUSH32 0x8C379A000000000000000000000000000000000000000000000000000000000 DUP2 MSTORE PUSH1 0x4 ADD PUSH2 0x1D28 SWAP1 PUSH2 0x4E64 JUMP JUMPDEST PUSH1 0x40 MLOAD DUP1 SWAP2 SUB SWAP1 REVERT JUMPDEST PUSH1 0x2 PUSH1 0x8 DUP2 SWAP1 SSTORE POP JUMP JUMPDEST PUSH0 DUP2 PUSH0 ADD SLOAD SWAP1 POP SWAP2 SWAP1 POP JUMP JUMPDEST PUSH1 0x1 DUP2 PUSH0 ADD PUSH0 DUP3 DUP3 SLOAD ADD SWAP3 POP POP DUP2 SWAP1 SSTORE POP POP JUMP JUMPDEST PUSH2 0x1D65 CALLER DUP3 PUSH2 0x358C JUMP JUMPDEST PUSH2 0x1D77 DUP2 PUSH2 0x1D72 DUP4 PUSH2 0x1659 JUMP JUMPDEST PUSH2 0x35A9 JUMP JUMPDEST PUSH2 0x1D7F PUSH2 0x3DDC JUMP JUMPDEST DUP2 DUP2 PUSH0 ADD DUP2 DUP2 MSTORE POP POP CALLER DUP2 PUSH1 0x20 ADD SWAP1 PUSH20 0xFFFFFFFFFFFFFFFFFFFFFFFFFFFFFFFFFFFFFFFF AND SWAP1 DUP2 PUSH20 0xFFFFFFFFFFFFFFFFFFFFFFFFFFFFFFFFFFFFFFFF AND DUP2 MSTORE POP POP TIMESTAMP DUP2 PUSH1 0x60 ADD DUP2 DUP2 MSTORE POP POP DUP1 PUSH1 0x12 PUSH0 DUP5 DUP2 MSTORE PUSH1 0x20 ADD SWAP1 DUP2 MSTORE PUSH1 0x20 ADD PUSH0 KECCAK256 PUSH0 DUP3 ADD MLOAD DUP2 PUSH0 ADD SSTORE PUSH1 0x20 DUP3 ADD MLOAD DUP2 PUSH1 0x1 ADD PUSH0 PUSH2 0x100 EXP DUP2 SLOAD DUP2 PUSH20 0xFFFFFFFFFFFFFFFFFFFFFFFFFFFFFFFFFFFFFFFF MUL NOT AND SWAP1 DUP4 PUSH20 0xFFFFFFFFFFFFFFFFFFFFFFFFFFFFFFFFFFFFFFFF AND MUL OR SWAP1 SSTORE POP PUSH1 0x40 DUP3 ADD MLOAD DUP2 PUSH1 0x2 ADD SSTORE PUSH1 0x60 DUP3 ADD MLOAD DUP2 PUSH1 0x3 ADD SSTORE PUSH1 0x80 DUP3 ADD MLOAD DUP2 PUSH1 0x4 ADD PUSH0 DUP3 ADD MLOAD DUP2 PUSH0 ADD SWAP1 DUP2 PUSH2 0x1E5A SWAP2 SWAP1 PUSH2 0x4AEB JUMP JUMPDEST POP PUSH1 0x20 DUP3 ADD MLOAD DUP2 PUSH1 0x1 ADD SWAP1 DUP2 PUSH2 0x1E70 SWAP2 SWAP1 PUSH2 0x4AEB JUMP JUMPDEST POP PUSH1 0x40 DUP3 ADD MLOAD DUP2 PUSH1 0x2 ADD SSTORE PUSH1 0x60 DUP3 ADD MLOAD DUP2 PUSH1 0x3 ADD SSTORE PUSH1 0x80 DUP3 ADD MLOAD DUP2 PUSH1 0x4 ADD SSTORE PUSH1 0xA0 DUP3 ADD MLOAD DUP2 PUSH1 0x5 ADD SSTORE PUSH1 0xC0 DUP3 ADD MLOAD DUP2 PUSH1 0x6 ADD SWAP1 DUP2 PUSH2 0x1EAE SWAP2 SWAP1 PUSH2 0x4AEB JUMP JUMPDEST POP PUSH1 0xE0 DUP3 ADD MLOAD DUP2 PUSH1 0x7 ADD PUSH0 PUSH2 0x100 EXP DUP2 SLOAD DUP2 PUSH1 0xFF MUL NOT AND SWAP1 DUP4 ISZERO ISZERO MUL OR SWAP1 SSTORE POP PUSH2 0x100 DUP3 ADD MLOAD DUP2 PUSH1 0x7 ADD PUSH1 0x1 PUSH2 0x100 EXP DUP2 SLOAD DUP2 PUSH1 0xFF MUL NOT AND SWAP1 DUP4 ISZERO ISZERO MUL OR SWAP1 SSTORE POP PUSH2 0x120 DUP3 ADD MLOAD DUP2 PUSH1 0x8 ADD SWAP1 DUP1 MLOAD SWAP1 PUSH1 0x20 ADD SWAP1 PUSH2 0x1F0C SWAP3 SWAP2 SWAP1 PUSH2 0x3D36 JUMP JUMPDEST POP PUSH2 0x140 DUP3 ADD MLOAD DUP2 PUSH1 0x9 ADD SWAP1 DUP2 PUSH2 0x1F23 SWAP2 SWAP1 PUSH2 0x4AEB JUMP JUMPDEST POP PUSH2 0x160 DUP3 ADD MLOAD DUP2 PUSH1 0xA ADD SWAP1 DUP2 PUSH2 0x1F3A SWAP2 SWAP1 PUSH2 0x4AEB JUMP JUMPDEST POP POP POP SWAP1 POP POP PUSH1 0x1 PUSH1 0x13 PUSH0 DUP5 DUP2 MSTORE PUSH1 0x20 ADD SWAP1 DUP2 MSTORE PUSH1 0x20 ADD PUSH0 KECCAK256 PUSH0 PUSH2 0x100 EXP DUP2 SLOAD DUP2 PUSH1 0xFF MUL NOT AND SWAP1 DUP4 ISZERO ISZERO MUL OR SWAP1 SSTORE POP POP POP JUMP JUMPDEST PUSH2 0x1F75 PUSH2 0x3E23 JUMP JUMPDEST PUSH2 0x1F7D PUSH2 0x3E23 JUMP JUMPDEST PUSH2 0x1F8F PUSH2 0x1F8A PUSH1 0xA PUSH2 0x1D3B JUMP JUMPDEST PUSH2 0x3603 JUMP JUMPDEST PUSH1 0x40 MLOAD PUSH1 0x20 ADD PUSH2 0x1F9F SWAP2 SWAP1 PUSH2 0x4F06 JUMP JUMPDEST PUSH1 0x40 MLOAD PUSH1 0x20 DUP2 DUP4 SUB SUB DUP2 MSTORE SWAP1 PUSH1 0x40 MSTORE DUP2 PUSH0 ADD DUP2 SWAP1 MSTORE POP PUSH1 0x40 MLOAD DUP1 PUSH1 0x60 ADD PUSH1 0x40 MSTORE DUP1 PUSH1 0x28 DUP2 MSTORE PUSH1 0x20 ADD PUSH2 0x5A22 PUSH1 0x28 SWAP2 CODECOPY DUP2 PUSH1 0x20 ADD DUP2 SWAP1 MSTORE POP PUSH1 0x2 PUSH1 0x12 PUSH0 DUP6 DUP2 MSTORE PUSH1 0x20 ADD SWAP1 DUP2 MSTORE PUSH1 0x20 ADD PUSH0 KECCAK256 PUSH1 0x4 ADD PUSH1 0x2 ADD SLOAD PUSH1 0x12 PUSH0 DUP8 DUP2 MSTORE PUSH1 0x20 ADD SWAP1 DUP2 MSTORE PUSH1 0x20 ADD PUSH0 KECCAK256 PUSH1 0x4 ADD PUSH1 0x2 ADD SLOAD PUSH2 0x2012 SWAP2 SWAP1 PUSH2 0x4F54 JUMP JUMPDEST PUSH2 0x201C SWAP2 SWAP1 PUSH2 0x4FB4 JUMP JUMPDEST DUP2 PUSH1 0x40 ADD DUP2 DUP2 MSTORE POP POP PUSH1 0x2 PUSH1 0x12 PUSH0 DUP6 DUP2 MSTORE PUSH1 0x20 ADD SWAP1 DUP2 MSTORE PUSH1 0x20 ADD PUSH0 KECCAK256 PUSH1 0x4 ADD PUSH1 0x3 ADD SLOAD PUSH1 0x12 PUSH0 DUP8 DUP2 MSTORE PUSH1 0x20 ADD SWAP1 DUP2 MSTORE PUSH1 0x20 ADD PUSH0 KECCAK256 PUSH1 0x4 ADD PUSH1 0x3 ADD SLOAD PUSH2 0x2061 SWAP2 SWAP1 PUSH2 0x4F54 JUMP JUMPDEST PUSH2 0x206B SWAP2 SWAP1 PUSH2 0x4FB4 JUMP JUMPDEST DUP2 PUSH1 0x60 ADD DUP2 DUP2 MSTORE POP POP PUSH1 0x2 PUSH1 0x12 PUSH0 DUP6 DUP2 MSTORE PUSH1 0x20 ADD SWAP1 DUP2 MSTORE PUSH1 0x20 ADD PUSH0 KECCAK256 PUSH1 0x4 ADD PUSH1 0x4 ADD SLOAD PUSH1 0x12 PUSH0 DUP8 DUP2 MSTORE PUSH1 0x20 ADD SWAP1 DUP2 MSTORE PUSH1 0x20 ADD PUSH0 KECCAK256 PUSH1 0x4 ADD PUSH1 0x4 ADD SLOAD PUSH2 0x20B0 SWAP2 SWAP1 PUSH2 0x4F54 JUMP JUMPDEST PUSH2 0x20BA SWAP2 SWAP1 PUSH2 0x4FB4 JUMP JUMPDEST DUP2 PUSH1 0x80 ADD DUP2 DUP2 MSTORE POP POP PUSH0 DUP2 PUSH1 0xA0 ADD DUP2 DUP2 MSTORE POP POP PUSH1 0x15 PUSH2 0x20E0 PUSH1 0x15 DUP1 SLOAD SWAP1 POP TIMESTAMP PUSH1 0x7 PUSH2 0x36CD JUMP JUMPDEST DUP2 SLOAD DUP2 LT PUSH2 0x20F1 JUMPI PUSH2 0x20F0 PUSH2 0x4FE4 JUMP JUMPDEST JUMPDEST SWAP1 PUSH0 MSTORE PUSH1 0x20 PUSH0 KECCAK256 ADD DUP1 SLOAD PUSH2 0x2104 SWAP1 PUSH2 0x4787 JUMP JUMPDEST DUP1 PUSH1 0x1F ADD PUSH1 0x20 DUP1 SWAP2 DIV MUL PUSH1 0x20 ADD PUSH1 0x40 MLOAD SWAP1 DUP2 ADD PUSH1 0x40 MSTORE DUP1 SWAP3 SWAP2 SWAP1 DUP2 DUP2 MSTORE PUSH1 0x20 ADD DUP3 DUP1 SLOAD PUSH2 0x2130 SWAP1 PUSH2 0x4787 JUMP JUMPDEST DUP1 ISZERO PUSH2 0x217B JUMPI DUP1 PUSH1 0x1F LT PUSH2 0x2152 JUMPI PUSH2 0x100 DUP1 DUP4 SLOAD DIV MUL DUP4 MSTORE SWAP2 PUSH1 0x20 ADD SWAP2 PUSH2 0x217B JUMP JUMPDEST DUP3 ADD SWAP2 SWAP1 PUSH0 MSTORE PUSH1 0x20 PUSH0 KECCAK256 SWAP1 JUMPDEST DUP2 SLOAD DUP2 MSTORE SWAP1 PUSH1 0x1 ADD SWAP1 PUSH1 0x20 ADD DUP1 DUP4 GT PUSH2 0x215E JUMPI DUP3 SWAP1 SUB PUSH1 0x1F AND DUP3 ADD SWAP2 JUMPDEST POP POP POP POP POP DUP2 PUSH1 0xC0 ADD DUP2 SWAP1 MSTORE POP PUSH1 0x17 PUSH2 0x219B PUSH1 0x17 DUP1 SLOAD SWAP1 POP TIMESTAMP PUSH1 0x8 PUSH2 0x36CD JUMP JUMPDEST DUP2 SLOAD DUP2 LT PUSH2 0x21AC JUMPI PUSH2 0x21AB PUSH2 0x4FE4 JUMP JUMPDEST JUMPDEST SWAP1 PUSH0 MSTORE PUSH1 0x20 PUSH0 KECCAK256 ADD DUP1 SLOAD PUSH2 0x21BF SWAP1 PUSH2 0x4787 JUMP JUMPDEST DUP1 PUSH1 0x1F ADD PUSH1 0x20 DUP1 SWAP2 DIV MUL PUSH1 0x20 ADD PUSH1 0x40 MLOAD SWAP1 DUP2 ADD PUSH1 0x40 MSTORE DUP1 SWAP3 SWAP2 SWAP1 DUP2 DUP2 MSTORE PUSH1 0x20 ADD DUP3 DUP1 SLOAD PUSH2 0x21EB SWAP1 PUSH2 0x4787 JUMP JUMPDEST DUP1 ISZERO PUSH2 0x2236 JUMPI DUP1 PUSH1 0x1F LT PUSH2 0x220D JUMPI PUSH2 0x100 DUP1 DUP4 SLOAD DIV MUL DUP4 MSTORE SWAP2 PUSH1 0x20 ADD SWAP2 PUSH2 0x2236 JUMP JUMPDEST DUP3 ADD SWAP2 SWAP1 PUSH0 MSTORE PUSH1 0x20 PUSH0 KECCAK256 SWAP1 JUMPDEST DUP2 SLOAD DUP2 MSTORE SWAP1 PUSH1 0x1 ADD SWAP1 PUSH1 0x20 ADD DUP1 DUP4 GT PUSH2 0x2219 JUMPI DUP3 SWAP1 SUB PUSH1 0x1F AND DUP3 ADD SWAP2 JUMPDEST POP POP POP POP POP DUP2 PUSH2 0x140 ADD DUP2 SWAP1 MSTORE POP PUSH1 0x16 PUSH2 0x2257 PUSH1 0x16 DUP1 SLOAD SWAP1 POP TIMESTAMP PUSH1 0x9 PUSH2 0x36CD JUMP JUMPDEST DUP2 SLOAD DUP2 LT PUSH2 0x2268 JUMPI PUSH2 0x2267 PUSH2 0x4FE4 JUMP JUMPDEST JUMPDEST SWAP1 PUSH0 MSTORE PUSH1 0x20 PUSH0 KECCAK256 ADD DUP1 SLOAD PUSH2 0x227B SWAP1 PUSH2 0x4787 JUMP JUMPDEST DUP1 PUSH1 0x1F ADD PUSH1 0x20 DUP1 SWAP2 DIV MUL PUSH1 0x20 ADD PUSH1 0x40 MLOAD SWAP1 DUP2 ADD PUSH1 0x40 MSTORE DUP1 SWAP3 SWAP2 SWAP1 DUP2 DUP2 MSTORE PUSH1 0x20 ADD DUP3 DUP1 SLOAD PUSH2 0x22A7 SWAP1 PUSH2 0x4787 JUMP JUMPDEST DUP1 ISZERO PUSH2 0x22F2 JUMPI DUP1 PUSH1 0x1F LT PUSH2 0x22C9 JUMPI PUSH2 0x100 DUP1 DUP4 SLOAD DIV MUL DUP4 MSTORE SWAP2 PUSH1 0x20 ADD SWAP2 PUSH2 0x22F2 JUMP JUMPDEST DUP3 ADD SWAP2 SWAP1 PUSH0 MSTORE PUSH1 0x20 PUSH0 KECCAK256 SWAP1 JUMPDEST DUP2 SLOAD DUP2 MSTORE SWAP1 PUSH1 0x1 ADD SWAP1 PUSH1 0x20 ADD DUP1 DUP4 GT PUSH2 0x22D5 JUMPI DUP3 SWAP1 SUB PUSH1 0x1F AND DUP3 ADD SWAP2 JUMPDEST POP POP POP POP POP DUP2 PUSH2 0x160 ADD DUP2 SWAP1 MSTORE POP PUSH1 0x1 DUP2 PUSH1 0xE0 ADD SWAP1 ISZERO ISZERO SWAP1 DUP2 ISZERO ISZERO DUP2 MSTORE POP POP PUSH0 DUP2 PUSH2 0x100 ADD SWAP1 ISZERO ISZERO SWAP1 DUP2 ISZERO ISZERO DUP2 MSTORE POP POP PUSH0 PUSH1 0x2 PUSH8 0xFFFFFFFFFFFFFFFF DUP2 GT ISZERO PUSH2 0x233E JUMPI PUSH2 0x233D PUSH2 0x4504 JUMP JUMPDEST JUMPDEST PUSH1 0x40 MLOAD SWAP1 DUP1 DUP3 MSTORE DUP1 PUSH1 0x20 MUL PUSH1 0x20 ADD DUP3 ADD PUSH1 0x40 MSTORE DUP1 ISZERO PUSH2 0x236C JUMPI DUP2 PUSH1 0x20 ADD PUSH1 0x20 DUP3 MUL DUP1 CALLDATASIZE DUP4 CALLDATACOPY DUP1 DUP3 ADD SWAP2 POP POP SWAP1 POP JUMPDEST POP SWAP1 POP DUP5 DUP2 PUSH0 DUP2 MLOAD DUP2 LT PUSH2 0x2383 JUMPI PUSH2 0x2382 PUSH2 0x4FE4 JUMP JUMPDEST JUMPDEST PUSH1 0x20 MUL PUSH1 0x20 ADD ADD DUP2 DUP2 MSTORE POP POP DUP4 DUP2 PUSH1 0x1 DUP2 MLOAD DUP2 LT PUSH2 0x23A4 JUMPI PUSH2 0x23A3 PUSH2 0x4FE4 JUMP JUMPDEST JUMPDEST PUSH1 0x20 MUL PUSH1 0x20 ADD ADD DUP2 DUP2 MSTORE POP POP DUP1 DUP3 PUSH2 0x120 ADD DUP2 SWAP1 MSTORE POP DUP2 SWAP3 POP POP POP SWAP3 SWAP2 POP POP JUMP JUMPDEST PUSH0 DUP3 PUSH20 0xFFFFFFFFFFFFFFFFFFFFFFFFFFFFFFFFFFFFFFFF AND DUP3 PUSH1 0x40 MLOAD PUSH2 0x23EA SWAP1 PUSH2 0x503E JUMP JUMPDEST PUSH0 PUSH1 0x40 MLOAD DUP1 DUP4 SUB DUP2 DUP6 DUP8 GAS CALL SWAP3 POP POP POP RETURNDATASIZE DUP1 PUSH0 DUP2 EQ PUSH2 0x2424 JUMPI PUSH1 0x40 MLOAD SWAP2 POP PUSH1 0x1F NOT PUSH1 0x3F RETURNDATASIZE ADD AND DUP3 ADD PUSH1 0x40 MSTORE RETURNDATASIZE DUP3 MSTORE RETURNDATASIZE PUSH0 PUSH1 0x20 DUP5 ADD RETURNDATACOPY PUSH2 0x2429 JUMP JUMPDEST PUSH1 0x60 SWAP2 POP JUMPDEST POP POP SWAP1 POP DUP1 PUSH2 0x246D JUMPI PUSH1 0x40 MLOAD PUSH32 0x8C379A000000000000000000000000000000000000000000000000000000000 DUP2 MSTORE PUSH1 0x4 ADD PUSH2 0x2464 SWAP1 PUSH2 0x509C JUMP JUMPDEST PUSH1 0x40 MLOAD DUP1 SWAP2 SUB SWAP1 REVERT JUMPDEST POP POP POP JUMP JUMPDEST PUSH1 0x1 PUSH1 0x8 DUP2 SWAP1 SSTORE POP JUMP JUMPDEST PUSH0 DUP1 PUSH2 0x2487 DUP5 PUSH2 0x3394 JUMP JUMPDEST SWAP1 POP PUSH0 PUSH20 0xFFFFFFFFFFFFFFFFFFFFFFFFFFFFFFFFFFFFFFFF AND DUP4 PUSH20 0xFFFFFFFFFFFFFFFFFFFFFFFFFFFFFFFFFFFFFFFF AND EQ PUSH2 0x24C8 JUMPI PUSH2 0x24C7 DUP2 DUP5 DUP7 PUSH2 0x3711 JUMP JUMPDEST JUMPDEST PUSH0 PUSH20 0xFFFFFFFFFFFFFFFFFFFFFFFFFFFFFFFFFFFFFFFF AND DUP2 PUSH20 0xFFFFFFFFFFFFFFFFFFFFFFFFFFFFFFFFFFFFFFFF AND EQ PUSH2 0x2553 JUMPI PUSH2 0x2507 PUSH0 DUP6 PUSH0 DUP1 PUSH2 0x33CD JUMP JUMPDEST PUSH1 0x1 PUSH1 0x3 PUSH0 DUP4 PUSH20 0xFFFFFFFFFFFFFFFFFFFFFFFFFFFFFFFFFFFFFFFF AND PUSH20 0xFFFFFFFFFFFFFFFFFFFFFFFFFFFFFFFFFFFFFFFF AND DUP2 MSTORE PUSH1 0x20 ADD SWAP1 DUP2 MSTORE PUSH1 0x20 ADD PUSH0 KECCAK256 PUSH0 DUP3 DUP3 SLOAD SUB SWAP3 POP POP DUP2 SWAP1 SSTORE POP JUMPDEST PUSH0 PUSH20 0xFFFFFFFFFFFFFFFFFFFFFFFFFFFFFFFFFFFFFFFF AND DUP6 PUSH20 0xFFFFFFFFFFFFFFFFFFFFFFFFFFFFFFFFFFFFFFFF AND EQ PUSH2 0x25D2 JUMPI PUSH1 0x1 PUSH1 0x3 PUSH0 DUP8 PUSH20 0xFFFFFFFFFFFFFFFFFFFFFFFFFFFFFFFFFFFFFFFF AND PUSH20 0xFFFFFFFFFFFFFFFFFFFFFFFFFFFFFFFFFFFFFFFF AND DUP2 MSTORE PUSH1 0x20 ADD SWAP1 DUP2 MSTORE PUSH1 0x20 ADD PUSH0 KECCAK256 PUSH0 DUP3 DUP3 SLOAD ADD SWAP3 POP POP DUP2 SWAP1 SSTORE POP JUMPDEST DUP5 PUSH1 0x2 PUSH0 DUP7 DUP2 MSTORE PUSH1 0x20 ADD SWAP1 DUP2 MSTORE PUSH1 0x20 ADD PUSH0 KECCAK256 PUSH0 PUSH2 0x100 EXP DUP2 SLOAD DUP2 PUSH20 0xFFFFFFFFFFFFFFFFFFFFFFFFFFFFFFFFFFFFFFFF MUL NOT AND SWAP1 DUP4 PUSH20 0xFFFFFFFFFFFFFFFFFFFFFFFFFFFFFFFFFFFFFFFF AND MUL OR SWAP1 SSTORE POP DUP4 DUP6 PUSH20 0xFFFFFFFFFFFFFFFFFFFFFFFFFFFFFFFFFFFFFFFF AND DUP3 PUSH20 0xFFFFFFFFFFFFFFFFFFFFFFFFFFFFFFFFFFFFFFFF AND PUSH32 0xDDF252AD1BE2C89B69C2B068FC378DAA952BA7F163C4A11628F55A4DF523B3EF PUSH1 0x40 MLOAD PUSH1 0x40 MLOAD DUP1 SWAP2 SUB SWAP1 LOG4 DUP1 SWAP2 POP POP SWAP4 SWAP3 POP POP POP JUMP JUMPDEST PUSH2 0x268F PUSH2 0x1CD3 JUMP JUMPDEST PUSH20 0xFFFFFFFFFFFFFFFFFFFFFFFFFFFFFFFFFFFFFFFF AND PUSH2 0x26AD PUSH2 0x1497 JUMP JUMPDEST PUSH20 0xFFFFFFFFFFFFFFFFFFFFFFFFFFFFFFFFFFFFFFFF AND EQ PUSH2 0x270C JUMPI PUSH2 0x26D0 PUSH2 0x1CD3 JUMP JUMPDEST PUSH1 0x40 MLOAD PUSH32 0x118CDAA700000000000000000000000000000000000000000000000000000000 DUP2 MSTORE PUSH1 0x4 ADD PUSH2 0x2703 SWAP2 SWAP1 PUSH2 0x40A8 JUMP JUMPDEST PUSH1 0x40 MLOAD DUP1 SWAP2 SUB SWAP1 REVERT JUMPDEST JUMP JUMPDEST PUSH0 PUSH1 0x7 PUSH0 SWAP1 SLOAD SWAP1 PUSH2 0x100 EXP SWAP1 DIV PUSH20 0xFFFFFFFFFFFFFFFFFFFFFFFFFFFFFFFFFFFFFFFF AND SWAP1 POP DUP2 PUSH1 0x7 PUSH0 PUSH2 0x100 EXP DUP2 SLOAD DUP2 PUSH20 0xFFFFFFFFFFFFFFFFFFFFFFFFFFFFFFFFFFFFFFFF MUL NOT AND SWAP1 DUP4 PUSH20 0xFFFFFFFFFFFFFFFFFFFFFFFFFFFFFFFFFFFFFFFF AND MUL OR SWAP1 SSTORE POP DUP2 PUSH20 0xFFFFFFFFFFFFFFFFFFFFFFFFFFFFFFFFFFFFFFFF AND DUP2 PUSH20 0xFFFFFFFFFFFFFFFFFFFFFFFFFFFFFFFFFFFFFFFF AND PUSH32 0x8BE0079C531659141344CD1FD0A4F28419497F9722A3DAAFE3B4186F6B6457E0 PUSH1 0x40 MLOAD PUSH1 0x40 MLOAD DUP1 SWAP2 SUB SWAP1 LOG3 POP POP JUMP JUMPDEST PUSH0 PUSH2 0x27DD PUSH0 DUP4 PUSH0 PUSH2 0x247C JUMP JUMPDEST SWAP1 POP PUSH0 PUSH20 0xFFFFFFFFFFFFFFFFFFFFFFFFFFFFFFFFFFFFFFFF AND DUP2 PUSH20 0xFFFFFFFFFFFFFFFFFFFFFFFFFFFFFFFFFFFFFFFF AND SUB PUSH2 0x284F JUMPI DUP2 PUSH1 0x40 MLOAD PUSH32 0x7E27328900000000000000000000000000000000000000000000000000000000 DUP2 MSTORE PUSH1 0x4 ADD PUSH2 0x2846 SWAP2 SWAP1 PUSH2 0x41F1 JUMP JUMPDEST PUSH1 0x40 MLOAD DUP1 SWAP2 SUB SWAP1 REVERT JUMPDEST POP POP JUMP JUMPDEST PUSH0 PUSH20 0xFFFFFFFFFFFFFFFFFFFFFFFFFFFFFFFFFFFFFFFF AND DUP3 PUSH20 0xFFFFFFFFFFFFFFFFFFFFFFFFFFFFFFFFFFFFFFFF AND SUB PUSH2 0x28C3 JUMPI DUP2 PUSH1 0x40 MLOAD PUSH32 0x5B08BA1800000000000000000000000000000000000000000000000000000000 DUP2 MSTORE PUSH1 0x4 ADD PUSH2 0x28BA SWAP2 SWAP1 PUSH2 0x40A8 JUMP JUMPDEST PUSH1 0x40 MLOAD DUP1 SWAP2 SUB SWAP1 REVERT JUMPDEST DUP1 PUSH1 0x5 PUSH0 DUP6 PUSH20 0xFFFFFFFFFFFFFFFFFFFFFFFFFFFFFFFFFFFFFFFF AND PUSH20 0xFFFFFFFFFFFFFFFFFFFFFFFFFFFFFFFFFFFFFFFF AND DUP2 MSTORE PUSH1 0x20 ADD SWAP1 DUP2 MSTORE PUSH1 0x20 ADD PUSH0 KECCAK256 PUSH0 DUP5 PUSH20 0xFFFFFFFFFFFFFFFFFFFFFFFFFFFFFFFFFFFFFFFF AND PUSH20 0xFFFFFFFFFFFFFFFFFFFFFFFFFFFFFFFFFFFFFFFF AND DUP2 MSTORE PUSH1 0x20 ADD SWAP1 DUP2 MSTORE PUSH1 0x20 ADD PUSH0 KECCAK256 PUSH0 PUSH2 0x100 EXP DUP2 SLOAD DUP2 PUSH1 0xFF MUL NOT AND SWAP1 DUP4 ISZERO ISZERO MUL OR SWAP1 SSTORE POP DUP2 PUSH20 0xFFFFFFFFFFFFFFFFFFFFFFFFFFFFFFFFFFFFFFFF AND DUP4 PUSH20 0xFFFFFFFFFFFFFFFFFFFFFFFFFFFFFFFFFFFFFFFF AND PUSH32 0x17307EAB39AB6107E8899845AD3D59BD9653F200F220920489CA2B5937696C31 DUP4 PUSH1 0x40 MLOAD PUSH2 0x29AF SWAP2 SWAP1 PUSH2 0x3F48 JUMP JUMPDEST PUSH1 0x40 MLOAD DUP1 SWAP2 SUB SWAP1 LOG3 POP POP POP JUMP JUMPDEST PUSH0 DUP4 PUSH20 0xFFFFFFFFFFFFFFFFFFFFFFFFFFFFFFFFFFFFFFFF AND EXTCODESIZE GT ISZERO PUSH2 0x2B68 JUMPI DUP3 PUSH20 0xFFFFFFFFFFFFFFFFFFFFFFFFFFFFFFFFFFFFFFFF AND PUSH4 0x150B7A02 PUSH2 0x29FF PUSH2 0x1CD3 JUMP JUMPDEST DUP7 DUP6 DUP6 PUSH1 0x40 MLOAD DUP6 PUSH4 0xFFFFFFFF AND PUSH1 0xE0 SHL DUP2 MSTORE PUSH1 0x4 ADD PUSH2 0x2A21 SWAP5 SWAP4 SWAP3 SWAP2 SWAP1 PUSH2 0x510C JUMP JUMPDEST PUSH1 0x20 PUSH1 0x40 MLOAD DUP1 DUP4 SUB DUP2 PUSH0 DUP8 GAS CALL SWAP3 POP POP POP DUP1 ISZERO PUSH2 0x2A5C JUMPI POP PUSH1 0x40 MLOAD RETURNDATASIZE PUSH1 0x1F NOT PUSH1 0x1F DUP3 ADD AND DUP3 ADD DUP1 PUSH1 0x40 MSTORE POP DUP2 ADD SWAP1 PUSH2 0x2A59 SWAP2 SWAP1 PUSH2 0x516A JUMP JUMPDEST PUSH1 0x1 JUMPDEST PUSH2 0x2ADD JUMPI RETURNDATASIZE DUP1 PUSH0 DUP2 EQ PUSH2 0x2A8A JUMPI PUSH1 0x40 MLOAD SWAP2 POP PUSH1 0x1F NOT PUSH1 0x3F RETURNDATASIZE ADD AND DUP3 ADD PUSH1 0x40 MSTORE RETURNDATASIZE DUP3 MSTORE RETURNDATASIZE PUSH0 PUSH1 0x20 DUP5 ADD RETURNDATACOPY PUSH2 0x2A8F JUMP JUMPDEST PUSH1 0x60 SWAP2 POP JUMPDEST POP PUSH0 DUP2 MLOAD SUB PUSH2 0x2AD5 JUMPI DUP4 PUSH1 0x40 MLOAD PUSH32 0x64A0AE9200000000000000000000000000000000000000000000000000000000 DUP2 MSTORE PUSH1 0x4 ADD PUSH2 0x2ACC SWAP2 SWAP1 PUSH2 0x40A8 JUMP JUMPDEST PUSH1 0x40 MLOAD DUP1 SWAP2 SUB SWAP1 REVERT JUMPDEST DUP1 MLOAD DUP2 PUSH1 0x20 ADD REVERT JUMPDEST PUSH4 0x150B7A02 PUSH1 0xE0 SHL PUSH28 0xFFFFFFFFFFFFFFFFFFFFFFFFFFFFFFFFFFFFFFFFFFFFFFFFFFFFFFFF NOT AND DUP2 PUSH28 0xFFFFFFFFFFFFFFFFFFFFFFFFFFFFFFFFFFFFFFFFFFFFFFFFFFFFFFFF NOT AND EQ PUSH2 0x2B66 JUMPI DUP4 PUSH1 0x40 MLOAD PUSH32 0x64A0AE9200000000000000000000000000000000000000000000000000000000 DUP2 MSTORE PUSH1 0x4 ADD PUSH2 0x2B5D SWAP2 SWAP1 PUSH2 0x40A8 JUMP JUMPDEST PUSH1 0x40 MLOAD DUP1 SWAP2 SUB SWAP1 REVERT JUMPDEST POP JUMPDEST POP POP POP POP JUMP JUMPDEST PUSH1 0x60 PUSH0 PUSH1 0x12 PUSH0 DUP5 DUP2 MSTORE PUSH1 0x20 ADD SWAP1 DUP2 MSTORE PUSH1 0x20 ADD PUSH0 KECCAK256 PUSH1 0x4 ADD PUSH1 0x40 MLOAD DUP1 PUSH2 0x180 ADD PUSH1 0x40 MSTORE SWAP1 DUP2 PUSH0 DUP3 ADD DUP1 SLOAD PUSH2 0x2BA0 SWAP1 PUSH2 0x4787 JUMP JUMPDEST DUP1 PUSH1 0x1F ADD PUSH1 0x20 DUP1 SWAP2 DIV MUL PUSH1 0x20 ADD PUSH1 0x40 MLOAD SWAP1 DUP2 ADD PUSH1 0x40 MSTORE DUP1 SWAP3 SWAP2 SWAP1 DUP2 DUP2 MSTORE PUSH1 0x20 ADD DUP3 DUP1 SLOAD PUSH2 0x2BCC SWAP1 PUSH2 0x4787 JUMP JUMPDEST DUP1 ISZERO PUSH2 0x2C17 JUMPI DUP1 PUSH1 0x1F LT PUSH2 0x2BEE JUMPI PUSH2 0x100 DUP1 DUP4 SLOAD DIV MUL DUP4 MSTORE SWAP2 PUSH1 0x20 ADD SWAP2 PUSH2 0x2C17 JUMP JUMPDEST DUP3 ADD SWAP2 SWAP1 PUSH0 MSTORE PUSH1 0x20 PUSH0 KECCAK256 SWAP1 JUMPDEST DUP2 SLOAD DUP2 MSTORE SWAP1 PUSH1 0x1 ADD SWAP1 PUSH1 0x20 ADD DUP1 DUP4 GT PUSH2 0x2BFA JUMPI DUP3 SWAP1 SUB PUSH1 0x1F AND DUP3 ADD SWAP2 JUMPDEST POP POP POP POP POP DUP2 MSTORE PUSH1 0x20 ADD PUSH1 0x1 DUP3 ADD DUP1 SLOAD PUSH2 0x2C30 SWAP1 PUSH2 0x4787 JUMP JUMPDEST DUP1 PUSH1 0x1F ADD PUSH1 0x20 DUP1 SWAP2 DIV MUL PUSH1 0x20 ADD PUSH1 0x40 MLOAD SWAP1 DUP2 ADD PUSH1 0x40 MSTORE DUP1 SWAP3 SWAP2 SWAP1 DUP2 DUP2 MSTORE PUSH1 0x20 ADD DUP3 DUP1 SLOAD PUSH2 0x2C5C SWAP1 PUSH2 0x4787 JUMP JUMPDEST DUP1 ISZERO PUSH2 0x2CA7 JUMPI DUP1 PUSH1 0x1F LT PUSH2 0x2C7E JUMPI PUSH2 0x100 DUP1 DUP4 SLOAD DIV MUL DUP4 MSTORE SWAP2 PUSH1 0x20 ADD SWAP2 PUSH2 0x2CA7 JUMP JUMPDEST DUP3 ADD SWAP2 SWAP1 PUSH0 MSTORE PUSH1 0x20 PUSH0 KECCAK256 SWAP1 JUMPDEST DUP2 SLOAD DUP2 MSTORE SWAP1 PUSH1 0x1 ADD SWAP1 PUSH1 0x20 ADD DUP1 DUP4 GT PUSH2 0x2C8A JUMPI DUP3 SWAP1 SUB PUSH1 0x1F AND DUP3 ADD SWAP2 JUMPDEST POP POP POP POP POP DUP2 MSTORE PUSH1 0x20 ADD PUSH1 0x2 DUP3 ADD SLOAD DUP2 MSTORE PUSH1 0x20 ADD PUSH1 0x3 DUP3 ADD SLOAD DUP2 MSTORE PUSH1 0x20 ADD PUSH1 0x4 DUP3 ADD SLOAD DUP2 MSTORE PUSH1 0x20 ADD PUSH1 0x5 DUP3 ADD SLOAD DUP2 MSTORE PUSH1 0x20 ADD PUSH1 0x6 DUP3 ADD DUP1 SLOAD PUSH2 0x2CE8 SWAP1 PUSH2 0x4787 JUMP JUMPDEST DUP1 PUSH1 0x1F ADD PUSH1 0x20 DUP1 SWAP2 DIV MUL PUSH1 0x20 ADD PUSH1 0x40 MLOAD SWAP1 DUP2 ADD PUSH1 0x40 MSTORE DUP1 SWAP3 SWAP2 SWAP1 DUP2 DUP2 MSTORE PUSH1 0x20 ADD DUP3 DUP1 SLOAD PUSH2 0x2D14 SWAP1 PUSH2 0x4787 JUMP JUMPDEST DUP1 ISZERO PUSH2 0x2D5F JUMPI DUP1 PUSH1 0x1F LT PUSH2 0x2D36 JUMPI PUSH2 0x100 DUP1 DUP4 SLOAD DIV MUL DUP4 MSTORE SWAP2 PUSH1 0x20 ADD SWAP2 PUSH2 0x2D5F JUMP JUMPDEST DUP3 ADD SWAP2 SWAP1 PUSH0 MSTORE PUSH1 0x20 PUSH0 KECCAK256 SWAP1 JUMPDEST DUP2 SLOAD DUP2 MSTORE SWAP1 PUSH1 0x1 ADD SWAP1 PUSH1 0x20 ADD DUP1 DUP4 GT PUSH2 0x2D42 JUMPI DUP3 SWAP1 SUB PUSH1 0x1F AND DUP3 ADD SWAP2 JUMPDEST POP POP POP POP POP DUP2 MSTORE PUSH1 0x20 ADD PUSH1 0x7 DUP3 ADD PUSH0 SWAP1 SLOAD SWAP1 PUSH2 0x100 EXP SWAP1 DIV PUSH1 0xFF AND ISZERO ISZERO ISZERO ISZERO DUP2 MSTORE PUSH1 0x20 ADD PUSH1 0x7 DUP3 ADD PUSH1 0x1 SWAP1 SLOAD SWAP1 PUSH2 0x100 EXP SWAP1 DIV PUSH1 0xFF AND ISZERO ISZERO ISZERO ISZERO DUP2 MSTORE PUSH1 0x20 ADD PUSH1 0x8 DUP3 ADD DUP1 SLOAD DUP1 PUSH1 0x20 MUL PUSH1 0x20 ADD PUSH1 0x40 MLOAD SWAP1 DUP2 ADD PUSH1 0x40 MSTORE DUP1 SWAP3 SWAP2 SWAP1 DUP2 DUP2 MSTORE PUSH1 0x20 ADD DUP3 DUP1 SLOAD DUP1 ISZERO PUSH2 0x2DEA JUMPI PUSH1 0x20 MUL DUP3 ADD SWAP2 SWAP1 PUSH0 MSTORE PUSH1 0x20 PUSH0 KECCAK256 SWAP1 JUMPDEST DUP2 SLOAD DUP2 MSTORE PUSH1 0x20 ADD SWAP1 PUSH1 0x1 ADD SWAP1 DUP1 DUP4 GT PUSH2 0x2DD6 JUMPI JUMPDEST POP POP POP POP POP DUP2 MSTORE PUSH1 0x20 ADD PUSH1 0x9 DUP3 ADD DUP1 SLOAD PUSH2 0x2E03 SWAP1 PUSH2 0x4787 JUMP JUMPDEST DUP1 PUSH1 0x1F ADD PUSH1 0x20 DUP1 SWAP2 DIV MUL PUSH1 0x20 ADD PUSH1 0x40 MLOAD SWAP1 DUP2 ADD PUSH1 0x40 MSTORE DUP1 SWAP3 SWAP2 SWAP1 DUP2 DUP2 MSTORE PUSH1 0x20 ADD DUP3 DUP1 SLOAD PUSH2 0x2E2F SWAP1 PUSH2 0x4787 JUMP JUMPDEST DUP1 ISZERO PUSH2 0x2E7A JUMPI DUP1 PUSH1 0x1F LT PUSH2 0x2E51 JUMPI PUSH2 0x100 DUP1 DUP4 SLOAD DIV MUL DUP4 MSTORE SWAP2 PUSH1 0x20 ADD SWAP2 PUSH2 0x2E7A JUMP JUMPDEST DUP3 ADD SWAP2 SWAP1 PUSH0 MSTORE PUSH1 0x20 PUSH0 KECCAK256 SWAP1 JUMPDEST DUP2 SLOAD DUP2 MSTORE SWAP1 PUSH1 0x1 ADD SWAP1 PUSH1 0x20 ADD DUP1 DUP4 GT PUSH2 0x2E5D JUMPI DUP3 SWAP1 SUB PUSH1 0x1F AND DUP3 ADD SWAP2 JUMPDEST POP POP POP POP POP DUP2 MSTORE PUSH1 0x20 ADD PUSH1 0xA DUP3 ADD DUP1 SLOAD PUSH2 0x2E93 SWAP1 PUSH2 0x4787 JUMP JUMPDEST DUP1 PUSH1 0x1F ADD PUSH1 0x20 DUP1 SWAP2 DIV MUL PUSH1 0x20 ADD PUSH1 0x40 MLOAD SWAP1 DUP2 ADD PUSH1 0x40 MSTORE DUP1 SWAP3 SWAP2 SWAP1 DUP2 DUP2 MSTORE PUSH1 0x20 ADD DUP3 DUP1 SLOAD PUSH2 0x2EBF SWAP1 PUSH2 0x4787 JUMP JUMPDEST DUP1 ISZERO PUSH2 0x2F0A JUMPI DUP1 PUSH1 0x1F LT PUSH2 0x2EE1 JUMPI PUSH2 0x100 DUP1 DUP4 SLOAD DIV MUL DUP4 MSTORE SWAP2 PUSH1 0x20 ADD SWAP2 PUSH2 0x2F0A JUMP JUMPDEST DUP3 ADD SWAP2 SWAP1 PUSH0 MSTORE PUSH1 0x20 PUSH0 KECCAK256 SWAP1 JUMPDEST DUP2 SLOAD DUP2 MSTORE SWAP1 PUSH1 0x1 ADD SWAP1 PUSH1 0x20 ADD DUP1 DUP4 GT PUSH2 0x2EED JUMPI DUP3 SWAP1 SUB PUSH1 0x1F AND DUP3 ADD SWAP2 JUMPDEST POP POP POP POP POP DUP2 MSTORE POP POP SWAP1 POP PUSH0 PUSH2 0x2F43 DUP3 PUSH1 0xC0 ADD MLOAD DUP4 PUSH1 0x40 ADD MLOAD DUP5 PUSH1 0x60 ADD MLOAD DUP6 PUSH1 0x80 ADD MLOAD DUP7 PUSH1 0xA0 ADD MLOAD DUP8 PUSH2 0x140 ADD MLOAD DUP9 PUSH2 0x160 ADD MLOAD PUSH2 0x37D4 JUMP JUMPDEST SWAP1 POP PUSH2 0x2F82 PUSH2 0x2F51 DUP6 PUSH2 0x3603 JUMP JUMPDEST DUP4 PUSH0 ADD MLOAD DUP5 PUSH1 0x20 ADD MLOAD DUP5 PUSH1 0x40 MLOAD PUSH1 0x20 ADD PUSH2 0x2F6E SWAP5 SWAP4 SWAP3 SWAP2 SWAP1 PUSH2 0x5337 JUMP JUMPDEST PUSH1 0x40 MLOAD PUSH1 0x20 DUP2 DUP4 SUB SUB DUP2 MSTORE SWAP1 PUSH1 0x40 MSTORE PUSH2 0x382F JUMP JUMPDEST PUSH1 0x40 MLOAD PUSH1 0x20 ADD PUSH2 0x2F92 SWAP2 SWAP1 PUSH2 0x53F5 JUMP JUMPDEST PUSH1 0x40 MLOAD PUSH1 0x20 DUP2 DUP4 SUB SUB DUP2 MSTORE SWAP1 PUSH1 0x40 MSTORE SWAP3 POP POP POP SWAP2 SWAP1 POP JUMP JUMPDEST PUSH2 0x2FB2 PUSH2 0x3E23 JUMP JUMPDEST PUSH2 0x2FBA PUSH2 0x3E23 JUMP JUMPDEST PUSH2 0x2FC3 DUP4 PUSH2 0x3603 JUMP JUMPDEST PUSH1 0x40 MLOAD PUSH1 0x20 ADD PUSH2 0x2FD3 SWAP2 SWAP1 PUSH2 0x5460 JUMP JUMPDEST PUSH1 0x40 MLOAD PUSH1 0x20 DUP2 DUP4 SUB SUB DUP2 MSTORE SWAP1 PUSH1 0x40 MSTORE DUP2 PUSH0 ADD DUP2 SWAP1 MSTORE POP PUSH1 0x40 MLOAD DUP1 PUSH1 0x60 ADD PUSH1 0x40 MSTORE DUP1 PUSH1 0x25 DUP2 MSTORE PUSH1 0x20 ADD PUSH2 0x5A8A PUSH1 0x25 SWAP2 CODECOPY DUP2 PUSH1 0x20 ADD DUP2 SWAP1 MSTORE POP PUSH2 0x3017 PUSH1 0x64 TIMESTAMP PUSH1 0x1 PUSH2 0x36CD JUMP JUMPDEST DUP2 PUSH1 0x40 ADD DUP2 DUP2 MSTORE POP POP PUSH2 0x302D PUSH1 0x64 TIMESTAMP PUSH1 0x2 PUSH2 0x36CD JUMP JUMPDEST DUP2 PUSH1 0x60 ADD DUP2 DUP2 MSTORE POP POP PUSH2 0x3043 PUSH1 0x64 TIMESTAMP PUSH1 0x3 PUSH2 0x36CD JUMP JUMPDEST DUP2 PUSH1 0x80 ADD DUP2 DUP2 MSTORE POP POP PUSH0 DUP2 PUSH1 0xA0 ADD DUP2 DUP2 MSTORE POP POP PUSH1 0x15 PUSH2 0x3069 PUSH1 0x15 DUP1 SLOAD SWAP1 POP TIMESTAMP PUSH1 0x4 PUSH2 0x36CD JUMP JUMPDEST DUP2 SLOAD DUP2 LT PUSH2 0x307A JUMPI PUSH2 0x3079 PUSH2 0x4FE4 JUMP JUMPDEST JUMPDEST SWAP1 PUSH0 MSTORE PUSH1 0x20 PUSH0 KECCAK256 ADD DUP1 SLOAD PUSH2 0x308D SWAP1 PUSH2 0x4787 JUMP JUMPDEST DUP1 PUSH1 0x1F ADD PUSH1 0x20 DUP1 SWAP2 DIV MUL PUSH1 0x20 ADD PUSH1 0x40 MLOAD SWAP1 DUP2 ADD PUSH1 0x40 MSTORE DUP1 SWAP3 SWAP2 SWAP1 DUP2 DUP2 MSTORE PUSH1 0x20 ADD DUP3 DUP1 SLOAD PUSH2 0x30B9 SWAP1 PUSH2 0x4787 JUMP JUMPDEST DUP1 ISZERO PUSH2 0x3104 JUMPI DUP1 PUSH1 0x1F LT PUSH2 0x30DB JUMPI PUSH2 0x100 DUP1 DUP4 SLOAD DIV MUL DUP4 MSTORE SWAP2 PUSH1 0x20 ADD SWAP2 PUSH2 0x3104 JUMP JUMPDEST DUP3 ADD SWAP2 SWAP1 PUSH0 MSTORE PUSH1 0x20 PUSH0 KECCAK256 SWAP1 JUMPDEST DUP2 SLOAD DUP2 MSTORE SWAP1 PUSH1 0x1 ADD SWAP1 PUSH1 0x20 ADD DUP1 DUP4 GT PUSH2 0x30E7 JUMPI DUP3 SWAP1 SUB PUSH1 0x1F AND DUP3 ADD SWAP2 JUMPDEST POP POP POP POP POP DUP2 PUSH1 0xC0 ADD DUP2 SWAP1 MSTORE POP PUSH1 0x17 PUSH2 0x3124 PUSH1 0x17 DUP1 SLOAD SWAP1 POP TIMESTAMP PUSH1 0x5 PUSH2 0x36CD JUMP JUMPDEST DUP2 SLOAD DUP2 LT PUSH2 0x3135 JUMPI PUSH2 0x3134 PUSH2 0x4FE4 JUMP JUMPDEST JUMPDEST SWAP1 PUSH0 MSTORE PUSH1 0x20 PUSH0 KECCAK256 ADD DUP1 SLOAD PUSH2 0x3148 SWAP1 PUSH2 0x4787 JUMP JUMPDEST DUP1 PUSH1 0x1F ADD PUSH1 0x20 DUP1 SWAP2 DIV MUL PUSH1 0x20 ADD PUSH1 0x40 MLOAD SWAP1 DUP2 ADD PUSH1 0x40 MSTORE DUP1 SWAP3 SWAP2 SWAP1 DUP2 DUP2 MSTORE PUSH1 0x20 ADD DUP3 DUP1 SLOAD PUSH2 0x3174 SWAP1 PUSH2 0x4787 JUMP JUMPDEST DUP1 ISZERO PUSH2 0x31BF JUMPI DUP1 PUSH1 0x1F LT PUSH2 0x3196 JUMPI PUSH2 0x100 DUP1 DUP4 SLOAD DIV MUL DUP4 MSTORE SWAP2 PUSH1 0x20 ADD SWAP2 PUSH2 0x31BF JUMP JUMPDEST DUP3 ADD SWAP2 SWAP1 PUSH0 MSTORE PUSH1 0x20 PUSH0 KECCAK256 SWAP1 JUMPDEST DUP2 SLOAD DUP2 MSTORE SWAP1 PUSH1 0x1 ADD SWAP1 PUSH1 0x20 ADD DUP1 DUP4 GT PUSH2 0x31A2 JUMPI DUP3 SWAP1 SUB PUSH1 0x1F AND DUP3 ADD SWAP2 JUMPDEST POP POP POP POP POP DUP2 PUSH2 0x140 ADD DUP2 SWAP1 MSTORE POP PUSH1 0x16 PUSH2 0x31E0 PUSH1 0x16 DUP1 SLOAD SWAP1 POP TIMESTAMP PUSH1 0x6 PUSH2 0x36CD JUMP JUMPDEST DUP2 SLOAD DUP2 LT PUSH2 0x31F1 JUMPI PUSH2 0x31F0 PUSH2 0x4FE4 JUMP JUMPDEST JUMPDEST SWAP1 PUSH0 MSTORE PUSH1 0x20 PUSH0 KECCAK256 ADD DUP1 SLOAD PUSH2 0x3204 SWAP1 PUSH2 0x4787 JUMP JUMPDEST DUP1 PUSH1 0x1F ADD PUSH1 0x20 DUP1 SWAP2 DIV MUL PUSH1 0x20 ADD PUSH1 0x40 MLOAD SWAP1 DUP2 ADD PUSH1 0x40 MSTORE DUP1 SWAP3 SWAP2 SWAP1 DUP2 DUP2 MSTORE PUSH1 0x20 ADD DUP3 DUP1 SLOAD PUSH2 0x3230 SWAP1 PUSH2 0x4787 JUMP JUMPDEST DUP1 ISZERO PUSH2 0x327B JUMPI DUP1 PUSH1 0x1F LT PUSH2 0x3252 JUMPI PUSH2 0x100 DUP1 DUP4 SLOAD DIV MUL DUP4 MSTORE SWAP2 PUSH1 0x20 ADD SWAP2 PUSH2 0x327B JUMP JUMPDEST DUP3 ADD SWAP2 SWAP1 PUSH0 MSTORE PUSH1 0x20 PUSH0 KECCAK256 SWAP1 JUMPDEST DUP2 SLOAD DUP2 MSTORE SWAP1 PUSH1 0x1 ADD SWAP1 PUSH1 0x20 ADD DUP1 DUP4 GT PUSH2 0x325E JUMPI DUP3 SWAP1 SUB PUSH1 0x1F AND DUP3 ADD SWAP2 JUMPDEST POP POP POP POP POP DUP2 PUSH2 0x160 ADD DUP2 SWAP1 MSTORE POP PUSH0 DUP2 PUSH1 0xE0 ADD SWAP1 ISZERO ISZERO SWAP1 DUP2 ISZERO ISZERO DUP2 MSTORE POP POP PUSH0 DUP2 PUSH2 0x100 ADD SWAP1 ISZERO ISZERO SWAP1 DUP2 ISZERO ISZERO DUP2 MSTORE POP POP DUP1 SWAP2 POP POP SWAP2 SWAP1 POP JUMP JUMPDEST PUSH0 PUSH32 0x80AC58CD00000000000000000000000000000000000000000000000000000000 PUSH28 0xFFFFFFFFFFFFFFFFFFFFFFFFFFFFFFFFFFFFFFFFFFFFFFFFFFFFFFFF NOT AND DUP3 PUSH28 0xFFFFFFFFFFFFFFFFFFFFFFFFFFFFFFFFFFFFFFFFFFFFFFFFFFFFFFFF NOT AND EQ DUP1 PUSH2 0x337D JUMPI POP PUSH32 0x5B5E139F00000000000000000000000000000000000000000000000000000000 PUSH28 0xFFFFFFFFFFFFFFFFFFFFFFFFFFFFFFFFFFFFFFFFFFFFFFFFFFFFFFFF NOT AND DUP3 PUSH28 0xFFFFFFFFFFFFFFFFFFFFFFFFFFFFFFFFFFFFFFFFFFFFFFFFFFFFFFFF NOT AND EQ JUMPDEST DUP1 PUSH2 0x338D JUMPI POP PUSH2 0x338C DUP3 PUSH2 0x39AE JUMP JUMPDEST JUMPDEST SWAP1 POP SWAP2 SWAP1 POP JUMP JUMPDEST PUSH0 PUSH1 0x2 PUSH0 DUP4 DUP2 MSTORE PUSH1 0x20 ADD SWAP1 DUP2 MSTORE PUSH1 0x20 ADD PUSH0 KECCAK256 PUSH0 SWAP1 SLOAD SWAP1 PUSH2 0x100 EXP SWAP1 DIV PUSH20 0xFFFFFFFFFFFFFFFFFFFFFFFFFFFFFFFFFFFFFFFF AND SWAP1 POP SWAP2 SWAP1 POP JUMP JUMPDEST DUP1 DUP1 PUSH2 0x3405 JUMPI POP PUSH0 PUSH20 0xFFFFFFFFFFFFFFFFFFFFFFFFFFFFFFFFFFFFFFFF AND DUP3 PUSH20 0xFFFFFFFFFFFFFFFFFFFFFFFFFFFFFFFFFFFFFFFF AND EQ ISZERO JUMPDEST ISZERO PUSH2 0x3537 JUMPI PUSH0 PUSH2 0x3414 DUP5 PUSH2 0x1C14 JUMP JUMPDEST SWAP1 POP PUSH0 PUSH20 0xFFFFFFFFFFFFFFFFFFFFFFFFFFFFFFFFFFFFFFFF AND DUP4 PUSH20 0xFFFFFFFFFFFFFFFFFFFFFFFFFFFFFFFFFFFFFFFF AND EQ ISZERO DUP1 ISZERO PUSH2 0x347E JUMPI POP DUP3 PUSH20 0xFFFFFFFFFFFFFFFFFFFFFFFFFFFFFFFFFFFFFFFF AND DUP2 PUSH20 0xFFFFFFFFFFFFFFFFFFFFFFFFFFFFFFFFFFFFFFFF AND EQ ISZERO JUMPDEST DUP1 ISZERO PUSH2 0x3491 JUMPI POP PUSH2 0x348F DUP2 DUP5 PUSH2 0x1A7D JUMP JUMPDEST ISZERO JUMPDEST ISZERO PUSH2 0x34D3 JUMPI DUP3 PUSH1 0x40 MLOAD PUSH32 0xA9FBF51F00000000000000000000000000000000000000000000000000000000 DUP2 MSTORE PUSH1 0x4 ADD PUSH2 0x34CA SWAP2 SWAP1 PUSH2 0x40A8 JUMP JUMPDEST PUSH1 0x40 MLOAD DUP1 SWAP2 SUB SWAP1 REVERT JUMPDEST DUP2 ISZERO PUSH2 0x3535 JUMPI DUP4 DUP6 PUSH20 0xFFFFFFFFFFFFFFFFFFFFFFFFFFFFFFFFFFFFFFFF AND DUP3 PUSH20 0xFFFFFFFFFFFFFFFFFFFFFFFFFFFFFFFFFFFFFFFF AND PUSH32 0x8C5BE1E5EBEC7D5BD14F71427D1E84F3DD0314C0F7B2291E5B200AC8C7C3B925 PUSH1 0x40 MLOAD PUSH1 0x40 MLOAD DUP1 SWAP2 SUB SWAP1 LOG4 JUMPDEST POP JUMPDEST DUP4 PUSH1 0x4 PUSH0 DUP6 DUP2 MSTORE PUSH1 0x20 ADD SWAP1 DUP2 MSTORE PUSH1 0x20 ADD PUSH0 KECCAK256 PUSH0 PUSH2 0x100 EXP DUP2 SLOAD DUP2 PUSH20 0xFFFFFFFFFFFFFFFFFFFFFFFFFFFFFFFFFFFFFFFF MUL NOT AND SWAP1 DUP4 PUSH20 0xFFFFFFFFFFFFFFFFFFFFFFFFFFFFFFFFFFFFFFFF AND MUL OR SWAP1 SSTORE POP POP POP POP POP JUMP JUMPDEST PUSH2 0x35A5 DUP3 DUP3 PUSH1 0x40 MLOAD DUP1 PUSH1 0x20 ADD PUSH1 0x40 MSTORE DUP1 PUSH0 DUP2 MSTORE POP PUSH2 0x3A17 JUMP JUMPDEST POP POP JUMP JUMPDEST DUP1 PUSH1 0x6 PUSH0 DUP5 DUP2 MSTORE PUSH1 0x20 ADD SWAP1 DUP2 MSTORE PUSH1 0x20 ADD PUSH0 KECCAK256 SWAP1 DUP2 PUSH2 0x35C7 SWAP2 SWAP1 PUSH2 0x4AEB JUMP JUMPDEST POP PUSH32 0xF8E1A15ABA9398E019F0B49DF1A4FDE98EE17AE345CB5F6B5E2C27F5033E8CE7 DUP3 PUSH1 0x40 MLOAD PUSH2 0x35F7 SWAP2 SWAP1 PUSH2 0x41F1 JUMP JUMPDEST PUSH1 0x40 MLOAD DUP1 SWAP2 SUB SWAP1 LOG1 POP POP JUMP JUMPDEST PUSH1 0x60 PUSH0 PUSH1 0x1 PUSH2 0x3611 DUP5 PUSH2 0x3A32 JUMP JUMPDEST ADD SWAP1 POP PUSH0 DUP2 PUSH8 0xFFFFFFFFFFFFFFFF DUP2 GT ISZERO PUSH2 0x362F JUMPI PUSH2 0x362E PUSH2 0x4504 JUMP JUMPDEST JUMPDEST PUSH1 0x40 MLOAD SWAP1 DUP1 DUP3 MSTORE DUP1 PUSH1 0x1F ADD PUSH1 0x1F NOT AND PUSH1 0x20 ADD DUP3 ADD PUSH1 0x40 MSTORE DUP1 ISZERO PUSH2 0x3661 JUMPI DUP2 PUSH1 0x20 ADD PUSH1 0x1 DUP3 MUL DUP1 CALLDATASIZE DUP4 CALLDATACOPY DUP1 DUP3 ADD SWAP2 POP POP SWAP1 POP JUMPDEST POP SWAP1 POP PUSH0 DUP3 PUSH1 0x20 ADD DUP3 ADD SWAP1 POP JUMPDEST PUSH1 0x1 ISZERO PUSH2 0x36C2 JUMPI DUP1 DUP1 PUSH1 0x1 SWAP1 SUB SWAP2 POP POP PUSH32 0x3031323334353637383961626364656600000000000000000000000000000000 PUSH1 0xA DUP7 MOD BYTE DUP2 MSTORE8 PUSH1 0xA DUP6 DUP2 PUSH2 0x36B7 JUMPI PUSH2 0x36B6 PUSH2 0x4F87 JUMP JUMPDEST JUMPDEST DIV SWAP5 POP PUSH0 DUP6 SUB PUSH2 0x366E JUMPI JUMPDEST DUP2 SWAP4 POP POP POP POP SWAP2 SWAP1 POP JUMP JUMPDEST PUSH0 DUP4 TIMESTAMP CALLER DUP6 DUP6 PUSH1 0x40 MLOAD PUSH1 0x20 ADD PUSH2 0x36E6 SWAP5 SWAP4 SWAP3 SWAP2 SWAP1 PUSH2 0x54E6 JUMP JUMPDEST PUSH1 0x40 MLOAD PUSH1 0x20 DUP2 DUP4 SUB SUB DUP2 MSTORE SWAP1 PUSH1 0x40 MSTORE DUP1 MLOAD SWAP1 PUSH1 0x20 ADD KECCAK256 PUSH0 SHR PUSH2 0x3708 SWAP2 SWAP1 PUSH2 0x5533 JUMP JUMPDEST SWAP1 POP SWAP4 SWAP3 POP POP POP JUMP JUMPDEST PUSH2 0x371C DUP4 DUP4 DUP4 PUSH2 0x3B83 JUMP JUMPDEST PUSH2 0x37CF JUMPI PUSH0 PUSH20 0xFFFFFFFFFFFFFFFFFFFFFFFFFFFFFFFFFFFFFFFF AND DUP4 PUSH20 0xFFFFFFFFFFFFFFFFFFFFFFFFFFFFFFFFFFFFFFFF AND SUB PUSH2 0x3790 JUMPI DUP1 PUSH1 0x40 MLOAD PUSH32 0x7E27328900000000000000000000000000000000000000000000000000000000 DUP2 MSTORE PUSH1 0x4 ADD PUSH2 0x3787 SWAP2 SWAP1 PUSH2 0x41F1 JUMP JUMPDEST PUSH1 0x40 MLOAD DUP1 SWAP2 SUB SWAP1 REVERT JUMPDEST DUP2 DUP2 PUSH1 0x40 MLOAD PUSH32 0x177E802F00000000000000000000000000000000000000000000000000000000 DUP2 MSTORE PUSH1 0x4 ADD PUSH2 0x37C6 SWAP3 SWAP2 SWAP1 PUSH2 0x5563 JUMP JUMPDEST PUSH1 0x40 MLOAD DUP1 SWAP2 SUB SWAP1 REVERT JUMPDEST POP POP POP JUMP JUMPDEST PUSH1 0x60 DUP8 PUSH2 0x37E0 DUP9 PUSH2 0x3603 JUMP JUMPDEST PUSH2 0x37E9 DUP9 PUSH2 0x3603 JUMP JUMPDEST PUSH2 0x37F2 DUP9 PUSH2 0x3603 JUMP JUMPDEST PUSH2 0x37FB DUP9 PUSH2 0x3603 JUMP JUMPDEST DUP8 DUP8 PUSH1 0x40 MLOAD PUSH1 0x20 ADD PUSH2 0x3813 SWAP8 SWAP7 SWAP6 SWAP5 SWAP4 SWAP3 SWAP2 SWAP1 PUSH2 0x58E2 JUMP JUMPDEST PUSH1 0x40 MLOAD PUSH1 0x20 DUP2 DUP4 SUB SUB DUP2 MSTORE SWAP1 PUSH1 0x40 MSTORE SWAP1 POP SWAP8 SWAP7 POP POP POP POP POP POP POP JUMP JUMPDEST PUSH1 0x60 PUSH0 DUP3 MLOAD SUB PUSH2 0x384F JUMPI PUSH1 0x40 MLOAD DUP1 PUSH1 0x20 ADD PUSH1 0x40 MSTORE DUP1 PUSH0 DUP2 MSTORE POP SWAP1 POP PUSH2 0x39A9 JUMP JUMPDEST PUSH0 PUSH1 0x40 MLOAD DUP1 PUSH1 0x60 ADD PUSH1 0x40 MSTORE DUP1 PUSH1 0x40 DUP2 MSTORE PUSH1 0x20 ADD PUSH2 0x5A4A PUSH1 0x40 SWAP2 CODECOPY SWAP1 POP PUSH0 PUSH1 0x3 PUSH1 0x2 DUP6 MLOAD PUSH2 0x387C SWAP2 SWAP1 PUSH2 0x4F54 JUMP JUMPDEST PUSH2 0x3886 SWAP2 SWAP1 PUSH2 0x4FB4 JUMP JUMPDEST PUSH1 0x4 PUSH2 0x3892 SWAP2 SWAP1 PUSH2 0x59E0 JUMP JUMPDEST SWAP1 POP PUSH0 PUSH1 0x20 DUP3 PUSH2 0x38A2 SWAP2 SWAP1 PUSH2 0x4F54 JUMP JUMPDEST PUSH8 0xFFFFFFFFFFFFFFFF DUP2 GT ISZERO PUSH2 0x38BB JUMPI PUSH2 0x38BA PUSH2 0x4504 JUMP JUMPDEST JUMPDEST PUSH1 0x40 MLOAD SWAP1 DUP1 DUP3 MSTORE DUP1 PUSH1 0x1F ADD PUSH1 0x1F NOT AND PUSH1 0x20 ADD DUP3 ADD PUSH1 0x40 MSTORE DUP1 ISZERO PUSH2 0x38ED JUMPI DUP2 PUSH1 0x20 ADD PUSH1 0x1 DUP3 MUL DUP1 CALLDATASIZE DUP4 CALLDATACOPY DUP1 DUP3 ADD SWAP2 POP POP SWAP1 POP JUMPDEST POP SWAP1 POP DUP2 DUP2 MSTORE PUSH1 0x1 DUP4 ADD DUP6 DUP7 MLOAD DUP2 ADD PUSH1 0x20 DUP5 ADD JUMPDEST DUP2 DUP4 LT ISZERO PUSH2 0x3968 JUMPI PUSH1 0x3 DUP4 ADD SWAP3 POP DUP3 MLOAD PUSH1 0x3F DUP2 PUSH1 0x12 SHR AND DUP6 ADD MLOAD PUSH1 0xF8 SHL DUP3 MSTORE PUSH1 0x1 DUP3 ADD SWAP2 POP PUSH1 0x3F DUP2 PUSH1 0xC SHR AND DUP6 ADD MLOAD PUSH1 0xF8 SHL DUP3 MSTORE PUSH1 0x1 DUP3 ADD SWAP2 POP PUSH1 0x3F DUP2 PUSH1 0x6 SHR AND DUP6 ADD MLOAD PUSH1 0xF8 SHL DUP3 MSTORE PUSH1 0x1 DUP3 ADD SWAP2 POP PUSH1 0x3F DUP2 AND DUP6 ADD MLOAD PUSH1 0xF8 SHL DUP3 MSTORE PUSH1 0x1 DUP3 ADD SWAP2 POP POP PUSH2 0x3901 JUMP JUMPDEST PUSH1 0x3 DUP10 MLOAD MOD PUSH1 0x1 DUP2 EQ PUSH2 0x3982 JUMPI PUSH1 0x2 DUP2 EQ PUSH2 0x3992 JUMPI PUSH2 0x399D JUMP JUMPDEST PUSH2 0x3D3D PUSH1 0xF0 SHL PUSH1 0x2 DUP4 SUB MSTORE PUSH2 0x399D JUMP JUMPDEST PUSH1 0x3D PUSH1 0xF8 SHL PUSH1 0x1 DUP4 SUB MSTORE JUMPDEST POP POP POP POP POP DUP1 SWAP4 POP POP POP POP JUMPDEST SWAP2 SWAP1 POP JUMP JUMPDEST PUSH0 PUSH32 0x1FFC9A700000000000000000000000000000000000000000000000000000000 PUSH28 0xFFFFFFFFFFFFFFFFFFFFFFFFFFFFFFFFFFFFFFFFFFFFFFFFFFFFFFFF NOT AND DUP3 PUSH28 0xFFFFFFFFFFFFFFFFFFFFFFFFFFFFFFFFFFFFFFFFFFFFFFFFFFFFFFFF NOT AND EQ SWAP1 POP SWAP2 SWAP1 POP JUMP JUMPDEST PUSH2 0x3A21 DUP4 DUP4 PUSH2 0x3C43 JUMP JUMPDEST PUSH2 0x3A2D PUSH0 DUP5 DUP5 DUP5 PUSH2 0x29BC JUMP JUMPDEST POP POP POP JUMP JUMPDEST PUSH0 DUP1 PUSH0 SWAP1 POP PUSH27 0x184F03E93FF9F4DAA797ED6E38ED64BF6A1F010000000000000000 DUP4 LT PUSH2 0x3A8E JUMPI PUSH27 0x184F03E93FF9F4DAA797ED6E38ED64BF6A1F010000000000000000 DUP4 DUP2 PUSH2 0x3A84 JUMPI PUSH2 0x3A83 PUSH2 0x4F87 JUMP JUMPDEST JUMPDEST DIV SWAP3 POP PUSH1 0x40 DUP2 ADD SWAP1 POP JUMPDEST PUSH14 0x4EE2D6D415B85ACEF8100000000 DUP4 LT PUSH2 0x3ACB JUMPI PUSH14 0x4EE2D6D415B85ACEF8100000000 DUP4 DUP2 PUSH2 0x3AC1 JUMPI PUSH2 0x3AC0 PUSH2 0x4F87 JUMP JUMPDEST JUMPDEST DIV SWAP3 POP PUSH1 0x20 DUP2 ADD SWAP1 POP JUMPDEST PUSH7 0x2386F26FC10000 DUP4 LT PUSH2 0x3AFA JUMPI PUSH7 0x2386F26FC10000 DUP4 DUP2 PUSH2 0x3AF0 JUMPI PUSH2 0x3AEF PUSH2 0x4F87 JUMP JUMPDEST JUMPDEST DIV SWAP3 POP PUSH1 0x10 DUP2 ADD SWAP1 POP JUMPDEST PUSH4 0x5F5E100 DUP4 LT PUSH2 0x3B23 JUMPI PUSH4 0x5F5E100 DUP4 DUP2 PUSH2 0x3B19 JUMPI PUSH2 0x3B18 PUSH2 0x4F87 JUMP JUMPDEST JUMPDEST DIV SWAP3 POP PUSH1 0x8 DUP2 ADD SWAP1 POP JUMPDEST PUSH2 0x2710 DUP4 LT PUSH2 0x3B48 JUMPI PUSH2 0x2710 DUP4 DUP2 PUSH2 0x3B3E JUMPI PUSH2 0x3B3D PUSH2 0x4F87 JUMP JUMPDEST JUMPDEST DIV SWAP3 POP PUSH1 0x4 DUP2 ADD SWAP1 POP JUMPDEST PUSH1 0x64 DUP4 LT PUSH2 0x3B6B JUMPI PUSH1 0x64 DUP4 DUP2 PUSH2 0x3B61 JUMPI PUSH2 0x3B60 PUSH2 0x4F87 JUMP JUMPDEST JUMPDEST DIV SWAP3 POP PUSH1 0x2 DUP2 ADD SWAP1 POP JUMPDEST PUSH1 0xA DUP4 LT PUSH2 0x3B7A JUMPI PUSH1 0x1 DUP2 ADD SWAP1 POP JUMPDEST DUP1 SWAP2 POP POP SWAP2 SWAP1 POP JUMP JUMPDEST PUSH0 DUP1 PUSH20 0xFFFFFFFFFFFFFFFFFFFFFFFFFFFFFFFFFFFFFFFF AND DUP4 PUSH20 0xFFFFFFFFFFFFFFFFFFFFFFFFFFFFFFFFFFFFFFFF AND EQ ISZERO DUP1 ISZERO PUSH2 0x3C3A JUMPI POP DUP3 PUSH20 0xFFFFFFFFFFFFFFFFFFFFFFFFFFFFFFFFFFFFFFFF AND DUP5 PUSH20 0xFFFFFFFFFFFFFFFFFFFFFFFFFFFFFFFFFFFFFFFF AND EQ DUP1 PUSH2 0x3BFB JUMPI POP PUSH2 0x3BFA DUP5 DUP5 PUSH2 0x1A7D JUMP JUMPDEST JUMPDEST DUP1 PUSH2 0x3C39 JUMPI POP DUP3 PUSH20 0xFFFFFFFFFFFFFFFFFFFFFFFFFFFFFFFFFFFFFFFF AND PUSH2 0x3C21 DUP4 PUSH2 0x1C9A JUMP JUMPDEST PUSH20 0xFFFFFFFFFFFFFFFFFFFFFFFFFFFFFFFFFFFFFFFF AND EQ JUMPDEST JUMPDEST SWAP1 POP SWAP4 SWAP3 POP POP POP JUMP JUMPDEST PUSH0 PUSH20 0xFFFFFFFFFFFFFFFFFFFFFFFFFFFFFFFFFFFFFFFF AND DUP3 PUSH20 0xFFFFFFFFFFFFFFFFFFFFFFFFFFFFFFFFFFFFFFFF AND SUB PUSH2 0x3CB3 JUMPI PUSH0 PUSH1 0x40 MLOAD PUSH32 0x64A0AE9200000000000000000000000000000000000000000000000000000000 DUP2 MSTORE PUSH1 0x4 ADD PUSH2 0x3CAA SWAP2 SWAP1 PUSH2 0x40A8 JUMP JUMPDEST PUSH1 0x40 MLOAD DUP1 SWAP2 SUB SWAP1 REVERT JUMPDEST PUSH0 PUSH2 0x3CBF DUP4 DUP4 PUSH0 PUSH2 0x247C JUMP JUMPDEST SWAP1 POP PUSH0 PUSH20 0xFFFFFFFFFFFFFFFFFFFFFFFFFFFFFFFFFFFFFFFF AND DUP2 PUSH20 0xFFFFFFFFFFFFFFFFFFFFFFFFFFFFFFFFFFFFFFFF AND EQ PUSH2 0x3D31 JUMPI PUSH0 PUSH1 0x40 MLOAD PUSH32 0x73C6AC6E00000000000000000000000000000000000000000000000000000000 DUP2 MSTORE PUSH1 0x4 ADD PUSH2 0x3D28 SWAP2 SWAP1 PUSH2 0x40A8 JUMP JUMPDEST PUSH1 0x40 MLOAD DUP1 SWAP2 SUB SWAP1 REVERT JUMPDEST POP POP POP JUMP JUMPDEST DUP3 DUP1 SLOAD DUP3 DUP3 SSTORE SWAP1 PUSH0 MSTORE PUSH1 0x20 PUSH0 KECCAK256 SWAP1 DUP2 ADD SWAP3 DUP3 ISZERO PUSH2 0x3D70 JUMPI SWAP2 PUSH1 0x20 MUL DUP3 ADD JUMPDEST DUP3 DUP2 GT ISZERO PUSH2 0x3D6F JUMPI DUP3 MLOAD DUP3 SSTORE SWAP2 PUSH1 0x20 ADD SWAP2 SWAP1 PUSH1 0x1 ADD SWAP1 PUSH2 0x3D54 JUMP JUMPDEST JUMPDEST POP SWAP1 POP PUSH2 0x3D7D SWAP2 SWAP1 PUSH2 0x3E82 JUMP JUMPDEST POP SWAP1 JUMP JUMPDEST POP DUP1 SLOAD PUSH2 0x3D8D SWAP1 PUSH2 0x4787 JUMP JUMPDEST PUSH0 DUP3 SSTORE DUP1 PUSH1 0x1F LT PUSH2 0x3D9E JUMPI POP PUSH2 0x3DBB JUMP JUMPDEST PUSH1 0x1F ADD PUSH1 0x20 SWAP1 DIV SWAP1 PUSH0 MSTORE PUSH1 0x20 PUSH0 KECCAK256 SWAP1 DUP2 ADD SWAP1 PUSH2 0x3DBA SWAP2 SWAP1 PUSH2 0x3E82 JUMP JUMPDEST JUMPDEST POP JUMP JUMPDEST POP DUP1 SLOAD PUSH0 DUP3 SSTORE SWAP1 PUSH0 MSTORE PUSH1 0x20 PUSH0 KECCAK256 SWAP1 DUP2 ADD SWAP1 PUSH2 0x3DD9 SWAP2 SWAP1 PUSH2 0x3E82 JUMP JUMPDEST POP JUMP JUMPDEST PUSH1 0x40 MLOAD DUP1 PUSH1 0xA0 ADD PUSH1 0x40 MSTORE DUP1 PUSH0 DUP2 MSTORE PUSH1 0x20 ADD PUSH0 PUSH20 0xFFFFFFFFFFFFFFFFFFFFFFFFFFFFFFFFFFFFFFFF AND DUP2 MSTORE PUSH1 0x20 ADD PUSH0 DUP2 MSTORE PUSH1 0x20 ADD PUSH0 DUP2 MSTORE PUSH1 0x20 ADD PUSH2 0x3E1D PUSH2 0x3E23 JUMP JUMPDEST DUP2 MSTORE POP SWAP1 JUMP JUMPDEST PUSH1 0x40 MLOAD DUP1 PUSH2 0x180 ADD PUSH1 0x40 MSTORE DUP1 PUSH1 0x60 DUP2 MSTORE PUSH1 0x20 ADD PUSH1 0x60 DUP2 MSTORE PUSH1 0x20 ADD PUSH0 DUP2 MSTORE PUSH1 0x20 ADD PUSH0 DUP2 MSTORE PUSH1 0x20 ADD PUSH0 DUP2 MSTORE PUSH1 0x20 ADD PUSH0 DUP2 MSTORE PUSH1 0x20 ADD PUSH1 0x60 DUP2 MSTORE PUSH1 0x20 ADD PUSH0 ISZERO ISZERO DUP2 MSTORE PUSH1 0x20 ADD PUSH0 ISZERO ISZERO DUP2 MSTORE PUSH1 0x20 ADD PUSH1 0x60 DUP2 MSTORE PUSH1 0x20 ADD PUSH1 0x60 DUP2 MSTORE PUSH1 0x20 ADD PUSH1 0x60 DUP2 MSTORE POP SWAP1 JUMP JUMPDEST JUMPDEST DUP1 DUP3 GT ISZERO PUSH2 0x3E99 JUMPI PUSH0 DUP2 PUSH0 SWAP1 SSTORE POP PUSH1 0x1 ADD PUSH2 0x3E83 JUMP JUMPDEST POP SWAP1 JUMP JUMPDEST PUSH0 PUSH1 0x40 MLOAD SWAP1 POP SWAP1 JUMP JUMPDEST PUSH0 DUP1 REVERT JUMPDEST PUSH0 DUP1 REVERT JUMPDEST PUSH0 PUSH32 0xFFFFFFFF00000000000000000000000000000000000000000000000000000000 DUP3 AND SWAP1 POP SWAP2 SWAP1 POP JUMP JUMPDEST PUSH2 0x3EE2 DUP2 PUSH2 0x3EAE JUMP JUMPDEST DUP2 EQ PUSH2 0x3EEC JUMPI PUSH0 DUP1 REVERT JUMPDEST POP JUMP JUMPDEST PUSH0 DUP2 CALLDATALOAD SWAP1 POP PUSH2 0x3EFD DUP2 PUSH2 0x3ED9 JUMP JUMPDEST SWAP3 SWAP2 POP POP JUMP JUMPDEST PUSH0 PUSH1 0x20 DUP3 DUP5 SUB SLT ISZERO PUSH2 0x3F18 JUMPI PUSH2 0x3F17 PUSH2 0x3EA6 JUMP JUMPDEST JUMPDEST PUSH0 PUSH2 0x3F25 DUP5 DUP3 DUP6 ADD PUSH2 0x3EEF JUMP JUMPDEST SWAP2 POP POP SWAP3 SWAP2 POP POP JUMP JUMPDEST PUSH0 DUP2 ISZERO ISZERO SWAP1 POP SWAP2 SWAP1 POP JUMP JUMPDEST PUSH2 0x3F42 DUP2 PUSH2 0x3F2E JUMP JUMPDEST DUP3 MSTORE POP POP JUMP JUMPDEST PUSH0 PUSH1 0x20 DUP3 ADD SWAP1 POP PUSH2 0x3F5B PUSH0 DUP4 ADD DUP5 PUSH2 0x3F39 JUMP JUMPDEST SWAP3 SWAP2 POP POP JUMP JUMPDEST PUSH0 DUP2 MLOAD SWAP1 POP SWAP2 SWAP1 POP JUMP JUMPDEST PUSH0 DUP3 DUP3 MSTORE PUSH1 0x20 DUP3 ADD SWAP1 POP SWAP3 SWAP2 POP POP JUMP JUMPDEST PUSH0 JUMPDEST DUP4 DUP2 LT ISZERO PUSH2 0x3F98 JUMPI DUP1 DUP3 ADD MLOAD DUP2 DUP5 ADD MSTORE PUSH1 0x20 DUP2 ADD SWAP1 POP PUSH2 0x3F7D JUMP JUMPDEST PUSH0 DUP5 DUP5 ADD MSTORE POP POP POP POP JUMP JUMPDEST PUSH0 PUSH1 0x1F NOT PUSH1 0x1F DUP4 ADD AND SWAP1 POP SWAP2 SWAP1 POP JUMP JUMPDEST PUSH0 PUSH2 0x3FBD DUP3 PUSH2 0x3F61 JUMP JUMPDEST PUSH2 0x3FC7 DUP2 DUP6 PUSH2 0x3F6B JUMP JUMPDEST SWAP4 POP PUSH2 0x3FD7 DUP2 DUP6 PUSH1 0x20 DUP7 ADD PUSH2 0x3F7B JUMP JUMPDEST PUSH2 0x3FE0 DUP2 PUSH2 0x3FA3 JUMP JUMPDEST DUP5 ADD SWAP2 POP POP SWAP3 SWAP2 POP POP JUMP JUMPDEST PUSH0 PUSH1 0x20 DUP3 ADD SWAP1 POP DUP2 DUP2 SUB PUSH0 DUP4 ADD MSTORE PUSH2 0x4003 DUP2 DUP5 PUSH2 0x3FB3 JUMP JUMPDEST SWAP1 POP SWAP3 SWAP2 POP POP JUMP JUMPDEST PUSH0 DUP2 SWAP1 POP SWAP2 SWAP1 POP JUMP JUMPDEST PUSH2 0x401D DUP2 PUSH2 0x400B JUMP JUMPDEST DUP2 EQ PUSH2 0x4027 JUMPI PUSH0 DUP1 REVERT JUMPDEST POP JUMP JUMPDEST PUSH0 DUP2 CALLDATALOAD SWAP1 POP PUSH2 0x4038 DUP2 PUSH2 0x4014 JUMP JUMPDEST SWAP3 SWAP2 POP POP JUMP JUMPDEST PUSH0 PUSH1 0x20 DUP3 DUP5 SUB SLT ISZERO PUSH2 0x4053 JUMPI PUSH2 0x4052 PUSH2 0x3EA6 JUMP JUMPDEST JUMPDEST PUSH0 PUSH2 0x4060 DUP5 DUP3 DUP6 ADD PUSH2 0x402A JUMP JUMPDEST SWAP2 POP POP SWAP3 SWAP2 POP POP JUMP JUMPDEST PUSH0 PUSH20 0xFFFFFFFFFFFFFFFFFFFFFFFFFFFFFFFFFFFFFFFF DUP3 AND SWAP1 POP SWAP2 SWAP1 POP JUMP JUMPDEST PUSH0 PUSH2 0x4092 DUP3 PUSH2 0x4069 JUMP JUMPDEST SWAP1 POP SWAP2 SWAP1 POP JUMP JUMPDEST PUSH2 0x40A2 DUP2 PUSH2 0x4088 JUMP JUMPDEST DUP3 MSTORE POP POP JUMP JUMPDEST PUSH0 PUSH1 0x20 DUP3 ADD SWAP1 POP PUSH2 0x40BB PUSH0 DUP4 ADD DUP5 PUSH2 0x4099 JUMP JUMPDEST SWAP3 SWAP2 POP POP JUMP JUMPDEST PUSH2 0x40CA DUP2 PUSH2 0x4088 JUMP JUMPDEST DUP2 EQ PUSH2 0x40D4 JUMPI PUSH0 DUP1 REVERT JUMPDEST POP JUMP JUMPDEST PUSH0 DUP2 CALLDATALOAD SWAP1 POP PUSH2 0x40E5 DUP2 PUSH2 0x40C1 JUMP JUMPDEST SWAP3 SWAP2 POP POP JUMP JUMPDEST PUSH0 DUP1 PUSH1 0x40 DUP4 DUP6 SUB SLT ISZERO PUSH2 0x4101 JUMPI PUSH2 0x4100 PUSH2 0x3EA6 JUMP JUMPDEST JUMPDEST PUSH0 PUSH2 0x410E DUP6 DUP3 DUP7 ADD PUSH2 0x40D7 JUMP JUMPDEST SWAP3 POP POP PUSH1 0x20 PUSH2 0x411F DUP6 DUP3 DUP7 ADD PUSH2 0x402A JUMP JUMPDEST SWAP2 POP POP SWAP3 POP SWAP3 SWAP1 POP JUMP JUMPDEST PUSH0 DUP1 PUSH1 0x40 DUP4 DUP6 SUB SLT ISZERO PUSH2 0x413F JUMPI PUSH2 0x413E PUSH2 0x3EA6 JUMP JUMPDEST JUMPDEST PUSH0 PUSH2 0x414C DUP6 DUP3 DUP7 ADD PUSH2 0x402A JUMP JUMPDEST SWAP3 POP POP PUSH1 0x20 PUSH2 0x415D DUP6 DUP3 DUP7 ADD PUSH2 0x402A JUMP JUMPDEST SWAP2 POP POP SWAP3 POP SWAP3 SWAP1 POP JUMP JUMPDEST PUSH0 DUP1 PUSH0 PUSH1 0x60 DUP5 DUP7 SUB SLT ISZERO PUSH2 0x417E JUMPI PUSH2 0x417D PUSH2 0x3EA6 JUMP JUMPDEST JUMPDEST PUSH0 PUSH2 0x418B DUP7 DUP3 DUP8 ADD PUSH2 0x40D7 JUMP JUMPDEST SWAP4 POP POP PUSH1 0x20 PUSH2 0x419C DUP7 DUP3 DUP8 ADD PUSH2 0x40D7 JUMP JUMPDEST SWAP3 POP POP PUSH1 0x40 PUSH2 0x41AD DUP7 DUP3 DUP8 ADD PUSH2 0x402A JUMP JUMPDEST SWAP2 POP POP SWAP3 POP SWAP3 POP SWAP3 JUMP JUMPDEST PUSH0 PUSH1 0x20 DUP3 DUP5 SUB SLT ISZERO PUSH2 0x41CC JUMPI PUSH2 0x41CB PUSH2 0x3EA6 JUMP JUMPDEST JUMPDEST PUSH0 PUSH2 0x41D9 DUP5 DUP3 DUP6 ADD PUSH2 0x40D7 JUMP JUMPDEST SWAP2 POP POP SWAP3 SWAP2 POP POP JUMP JUMPDEST PUSH2 0x41EB DUP2 PUSH2 0x400B JUMP JUMPDEST DUP3 MSTORE POP POP JUMP JUMPDEST PUSH0 PUSH1 0x20 DUP3 ADD SWAP1 POP PUSH2 0x4204 PUSH0 DUP4 ADD DUP5 PUSH2 0x41E2 JUMP JUMPDEST SWAP3 SWAP2 POP POP JUMP JUMPDEST PUSH0 DUP3 DUP3 MSTORE PUSH1 0x20 DUP3 ADD SWAP1 POP SWAP3 SWAP2 POP POP JUMP JUMPDEST PUSH0 PUSH2 0x4224 DUP3 PUSH2 0x3F61 JUMP JUMPDEST PUSH2 0x422E DUP2 DUP6 PUSH2 0x420A JUMP JUMPDEST SWAP4 POP PUSH2 0x423E DUP2 DUP6 PUSH1 0x20 DUP7 ADD PUSH2 0x3F7B JUMP JUMPDEST PUSH2 0x4247 DUP2 PUSH2 0x3FA3 JUMP JUMPDEST DUP5 ADD SWAP2 POP POP SWAP3 SWAP2 POP POP JUMP JUMPDEST PUSH2 0x425B DUP2 PUSH2 0x400B JUMP JUMPDEST DUP3 MSTORE POP POP JUMP JUMPDEST PUSH2 0x426A DUP2 PUSH2 0x3F2E JUMP JUMPDEST DUP3 MSTORE POP POP JUMP JUMPDEST PUSH0 DUP2 MLOAD SWAP1 POP SWAP2 SWAP1 POP JUMP JUMPDEST PUSH0 DUP3 DUP3 MSTORE PUSH1 0x20 DUP3 ADD SWAP1 POP SWAP3 SWAP2 POP POP JUMP JUMPDEST PUSH0 DUP2 SWAP1 POP PUSH1 0x20 DUP3 ADD SWAP1 POP SWAP2 SWAP1 POP JUMP JUMPDEST PUSH0 PUSH2 0x42A4 DUP4 DUP4 PUSH2 0x4252 JUMP JUMPDEST PUSH1 0x20 DUP4 ADD SWAP1 POP SWAP3 SWAP2 POP POP JUMP JUMPDEST PUSH0 PUSH1 0x20 DUP3 ADD SWAP1 POP SWAP2 SWAP1 POP JUMP JUMPDEST PUSH0 PUSH2 0x42C6 DUP3 PUSH2 0x4270 JUMP JUMPDEST PUSH2 0x42D0 DUP2 DUP6 PUSH2 0x427A JUMP JUMPDEST SWAP4 POP PUSH2 0x42DB DUP4 PUSH2 0x428A JUMP JUMPDEST DUP1 PUSH0 JUMPDEST DUP4 DUP2 LT ISZERO PUSH2 0x430B JUMPI DUP2 MLOAD PUSH2 0x42F2 DUP9 DUP3 PUSH2 0x4299 JUMP JUMPDEST SWAP8 POP PUSH2 0x42FD DUP4 PUSH2 0x42B0 JUMP JUMPDEST SWAP3 POP POP PUSH1 0x1 DUP2 ADD SWAP1 POP PUSH2 0x42DE JUMP JUMPDEST POP DUP6 SWAP4 POP POP POP POP SWAP3 SWAP2 POP POP JUMP JUMPDEST PUSH0 PUSH2 0x180 DUP4 ADD PUSH0 DUP4 ADD MLOAD DUP5 DUP3 SUB PUSH0 DUP7 ADD MSTORE PUSH2 0x4333 DUP3 DUP3 PUSH2 0x421A JUMP JUMPDEST SWAP2 POP POP PUSH1 0x20 DUP4 ADD MLOAD DUP5 DUP3 SUB PUSH1 0x20 DUP7 ADD MSTORE PUSH2 0x434D DUP3 DUP3 PUSH2 0x421A JUMP JUMPDEST SWAP2 POP POP PUSH1 0x40 DUP4 ADD MLOAD PUSH2 0x4362 PUSH1 0x40 DUP7 ADD DUP3 PUSH2 0x4252 JUMP JUMPDEST POP PUSH1 0x60 DUP4 ADD MLOAD PUSH2 0x4375 PUSH1 0x60 DUP7 ADD DUP3 PUSH2 0x4252 JUMP JUMPDEST POP PUSH1 0x80 DUP4 ADD MLOAD PUSH2 0x4388 PUSH1 0x80 DUP7 ADD DUP3 PUSH2 0x4252 JUMP JUMPDEST POP PUSH1 0xA0 DUP4 ADD MLOAD PUSH2 0x439B PUSH1 0xA0 DUP7 ADD DUP3 PUSH2 0x4252 JUMP JUMPDEST POP PUSH1 0xC0 DUP4 ADD MLOAD DUP5 DUP3 SUB PUSH1 0xC0 DUP7 ADD MSTORE PUSH2 0x43B3 DUP3 DUP3 PUSH2 0x421A JUMP JUMPDEST SWAP2 POP POP PUSH1 0xE0 DUP4 ADD MLOAD PUSH2 0x43C8 PUSH1 0xE0 DUP7 ADD DUP3 PUSH2 0x4261 JUMP JUMPDEST POP PUSH2 0x100 DUP4 ADD MLOAD PUSH2 0x43DD PUSH2 0x100 DUP7 ADD DUP3 PUSH2 0x4261 JUMP JUMPDEST POP PUSH2 0x120 DUP4 ADD MLOAD DUP5 DUP3 SUB PUSH2 0x120 DUP7 ADD MSTORE PUSH2 0x43F7 DUP3 DUP3 PUSH2 0x42BC JUMP JUMPDEST SWAP2 POP POP PUSH2 0x140 DUP4 ADD MLOAD DUP5 DUP3 SUB PUSH2 0x140 DUP7 ADD MSTORE PUSH2 0x4413 DUP3 DUP3 PUSH2 0x421A JUMP JUMPDEST SWAP2 POP POP PUSH2 0x160 DUP4 ADD MLOAD DUP5 DUP3 SUB PUSH2 0x160 DUP7 ADD MSTORE PUSH2 0x442F DUP3 DUP3 PUSH2 0x421A JUMP JUMPDEST SWAP2 POP POP DUP1 SWAP2 POP POP SWAP3 SWAP2 POP POP JUMP JUMPDEST PUSH0 PUSH1 0xA0 DUP3 ADD SWAP1 POP PUSH2 0x444F PUSH0 DUP4 ADD DUP9 PUSH2 0x41E2 JUMP JUMPDEST PUSH2 0x445C PUSH1 0x20 DUP4 ADD DUP8 PUSH2 0x4099 JUMP JUMPDEST PUSH2 0x4469 PUSH1 0x40 DUP4 ADD DUP7 PUSH2 0x41E2 JUMP JUMPDEST PUSH2 0x4476 PUSH1 0x60 DUP4 ADD DUP6 PUSH2 0x41E2 JUMP JUMPDEST DUP2 DUP2 SUB PUSH1 0x80 DUP4 ADD MSTORE PUSH2 0x4488 DUP2 DUP5 PUSH2 0x4318 JUMP JUMPDEST SWAP1 POP SWAP7 SWAP6 POP POP POP POP POP POP JUMP JUMPDEST PUSH2 0x449D DUP2 PUSH2 0x3F2E JUMP JUMPDEST DUP2 EQ PUSH2 0x44A7 JUMPI PUSH0 DUP1 REVERT JUMPDEST POP JUMP JUMPDEST PUSH0 DUP2 CALLDATALOAD SWAP1 POP PUSH2 0x44B8 DUP2 PUSH2 0x4494 JUMP JUMPDEST SWAP3 SWAP2 POP POP JUMP JUMPDEST PUSH0 DUP1 PUSH1 0x40 DUP4 DUP6 SUB SLT ISZERO PUSH2 0x44D4 JUMPI PUSH2 0x44D3 PUSH2 0x3EA6 JUMP JUMPDEST JUMPDEST PUSH0 PUSH2 0x44E1 DUP6 DUP3 DUP7 ADD PUSH2 0x40D7 JUMP JUMPDEST SWAP3 POP POP PUSH1 0x20 PUSH2 0x44F2 DUP6 DUP3 DUP7 ADD PUSH2 0x44AA JUMP JUMPDEST SWAP2 POP POP SWAP3 POP SWAP3 SWAP1 POP JUMP JUMPDEST PUSH0 DUP1 REVERT JUMPDEST PUSH0 DUP1 REVERT JUMPDEST PUSH32 0x4E487B7100000000000000000000000000000000000000000000000000000000 PUSH0 MSTORE PUSH1 0x41 PUSH1 0x4 MSTORE PUSH1 0x24 PUSH0 REVERT JUMPDEST PUSH2 0x453A DUP3 PUSH2 0x3FA3 JUMP JUMPDEST DUP2 ADD DUP2 DUP2 LT PUSH8 0xFFFFFFFFFFFFFFFF DUP3 GT OR ISZERO PUSH2 0x4559 JUMPI PUSH2 0x4558 PUSH2 0x4504 JUMP JUMPDEST JUMPDEST DUP1 PUSH1 0x40 MSTORE POP POP POP JUMP JUMPDEST PUSH0 PUSH2 0x456B PUSH2 0x3E9D JUMP JUMPDEST SWAP1 POP PUSH2 0x4577 DUP3 DUP3 PUSH2 0x4531 JUMP JUMPDEST SWAP2 SWAP1 POP JUMP JUMPDEST PUSH0 PUSH8 0xFFFFFFFFFFFFFFFF DUP3 GT ISZERO PUSH2 0x4596 JUMPI PUSH2 0x4595 PUSH2 0x4504 JUMP JUMPDEST JUMPDEST PUSH2 0x459F DUP3 PUSH2 0x3FA3 JUMP JUMPDEST SWAP1 POP PUSH1 0x20 DUP2 ADD SWAP1 POP SWAP2 SWAP1 POP JUMP JUMPDEST DUP3 DUP2 DUP4 CALLDATACOPY PUSH0 DUP4 DUP4 ADD MSTORE POP POP POP JUMP JUMPDEST PUSH0 PUSH2 0x45CC PUSH2 0x45C7 DUP5 PUSH2 0x457C JUMP JUMPDEST PUSH2 0x4562 JUMP JUMPDEST SWAP1 POP DUP3 DUP2 MSTORE PUSH1 0x20 DUP2 ADD DUP5 DUP5 DUP5 ADD GT ISZERO PUSH2 0x45E8 JUMPI PUSH2 0x45E7 PUSH2 0x4500 JUMP JUMPDEST JUMPDEST PUSH2 0x45F3 DUP5 DUP3 DUP6 PUSH2 0x45AC JUMP JUMPDEST POP SWAP4 SWAP3 POP POP POP JUMP JUMPDEST PUSH0 DUP3 PUSH1 0x1F DUP4 ADD SLT PUSH2 0x460F JUMPI PUSH2 0x460E PUSH2 0x44FC JUMP JUMPDEST JUMPDEST DUP2 CALLDATALOAD PUSH2 0x461F DUP5 DUP3 PUSH1 0x20 DUP7 ADD PUSH2 0x45BA JUMP JUMPDEST SWAP2 POP POP SWAP3 SWAP2 POP POP JUMP JUMPDEST PUSH0 DUP1 PUSH0 DUP1 PUSH1 0x80 DUP6 DUP8 SUB SLT ISZERO PUSH2 0x4640 JUMPI PUSH2 0x463F PUSH2 0x3EA6 JUMP JUMPDEST JUMPDEST PUSH0 PUSH2 0x464D DUP8 DUP3 DUP9 ADD PUSH2 0x40D7 JUMP JUMPDEST SWAP5 POP POP PUSH1 0x20 PUSH2 0x465E DUP8 DUP3 DUP9 ADD PUSH2 0x40D7 JUMP JUMPDEST SWAP4 POP POP PUSH1 0x40 PUSH2 0x466F DUP8 DUP3 DUP9 ADD PUSH2 0x402A JUMP JUMPDEST SWAP3 POP POP PUSH1 0x60 DUP6 ADD CALLDATALOAD PUSH8 0xFFFFFFFFFFFFFFFF DUP2 GT ISZERO PUSH2 0x4690 JUMPI PUSH2 0x468F PUSH2 0x3EAA JUMP JUMPDEST JUMPDEST PUSH2 0x469C DUP8 DUP3 DUP9 ADD PUSH2 0x45FB JUMP JUMPDEST SWAP2 POP POP SWAP3 SWAP6 SWAP2 SWAP5 POP SWAP3 POP JUMP JUMPDEST PUSH0 DUP1 PUSH1 0x40 DUP4 DUP6 SUB SLT ISZERO PUSH2 0x46BE JUMPI PUSH2 0x46BD PUSH2 0x3EA6 JUMP JUMPDEST JUMPDEST PUSH0 PUSH2 0x46CB DUP6 DUP3 DUP7 ADD PUSH2 0x40D7 JUMP JUMPDEST SWAP3 POP POP PUSH1 0x20 PUSH2 0x46DC DUP6 DUP3 DUP7 ADD PUSH2 0x40D7 JUMP JUMPDEST SWAP2 POP POP SWAP3 POP SWAP3 SWAP1 POP JUMP JUMPDEST PUSH0 DUP2 SWAP1 POP SWAP2 SWAP1 POP JUMP JUMPDEST PUSH0 PUSH2 0x4709 PUSH2 0x4704 PUSH2 0x46FF DUP5 PUSH2 0x4069 JUMP JUMPDEST PUSH2 0x46E6 JUMP JUMPDEST PUSH2 0x4069 JUMP JUMPDEST SWAP1 POP SWAP2 SWAP1 POP JUMP JUMPDEST PUSH0 PUSH2 0x471A DUP3 PUSH2 0x46EF JUMP JUMPDEST SWAP1 POP SWAP2 SWAP1 POP JUMP JUMPDEST PUSH0 PUSH2 0x472B DUP3 PUSH2 0x4710 JUMP JUMPDEST SWAP1 POP SWAP2 SWAP1 POP JUMP JUMPDEST PUSH2 0x473B DUP2 PUSH2 0x4721 JUMP JUMPDEST DUP3 MSTORE POP POP JUMP JUMPDEST PUSH0 PUSH1 0x20 DUP3 ADD SWAP1 POP PUSH2 0x4754 PUSH0 DUP4 ADD DUP5 PUSH2 0x4732 JUMP JUMPDEST SWAP3 SWAP2 POP POP JUMP JUMPDEST PUSH32 0x4E487B7100000000000000000000000000000000000000000000000000000000 PUSH0 MSTORE PUSH1 0x22 PUSH1 0x4 MSTORE PUSH1 0x24 PUSH0 REVERT JUMPDEST PUSH0 PUSH1 0x2 DUP3 DIV SWAP1 POP PUSH1 0x1 DUP3 AND DUP1 PUSH2 0x479E JUMPI PUSH1 0x7F DUP3 AND SWAP2 POP JUMPDEST PUSH1 0x20 DUP3 LT DUP2 SUB PUSH2 0x47B1 JUMPI PUSH2 0x47B0 PUSH2 0x475A JUMP JUMPDEST JUMPDEST POP SWAP2 SWAP1 POP JUMP JUMPDEST PUSH32 0x46617468657220686970706F20646F6573206E6F742065786973740000000000 PUSH0 DUP3 ADD MSTORE POP JUMP JUMPDEST PUSH0 PUSH2 0x47EB PUSH1 0x1B DUP4 PUSH2 0x3F6B JUMP JUMPDEST SWAP2 POP PUSH2 0x47F6 DUP3 PUSH2 0x47B7 JUMP JUMPDEST PUSH1 0x20 DUP3 ADD SWAP1 POP SWAP2 SWAP1 POP JUMP JUMPDEST PUSH0 PUSH1 0x20 DUP3 ADD SWAP1 POP DUP2 DUP2 SUB PUSH0 DUP4 ADD MSTORE PUSH2 0x4818 DUP2 PUSH2 0x47DF JUMP JUMPDEST SWAP1 POP SWAP2 SWAP1 POP JUMP JUMPDEST PUSH32 0x4D6F7468657220686970706F20646F6573206E6F742065786973740000000000 PUSH0 DUP3 ADD MSTORE POP JUMP JUMPDEST PUSH0 PUSH2 0x4853 PUSH1 0x1B DUP4 PUSH2 0x3F6B JUMP JUMPDEST SWAP2 POP PUSH2 0x485E DUP3 PUSH2 0x481F JUMP JUMPDEST PUSH1 0x20 DUP3 ADD SWAP1 POP SWAP2 SWAP1 POP JUMP JUMPDEST PUSH0 PUSH1 0x20 DUP3 ADD SWAP1 POP DUP2 DUP2 SUB PUSH0 DUP4 ADD MSTORE PUSH2 0x4880 DUP2 PUSH2 0x4847 JUMP JUMPDEST SWAP1 POP SWAP2 SWAP1 POP JUMP JUMPDEST PUSH32 0x416C6C20686970706F732068617665206265656E206272656400000000000000 PUSH0 DUP3 ADD MSTORE POP JUMP JUMPDEST PUSH0 PUSH2 0x48BB PUSH1 0x19 DUP4 PUSH2 0x3F6B JUMP JUMPDEST SWAP2 POP PUSH2 0x48C6 DUP3 PUSH2 0x4887 JUMP JUMPDEST PUSH1 0x20 DUP3 ADD SWAP1 POP SWAP2 SWAP1 POP JUMP JUMPDEST PUSH0 PUSH1 0x20 DUP3 ADD SWAP1 POP DUP2 DUP2 SUB PUSH0 DUP4 ADD MSTORE PUSH2 0x48E8 DUP2 PUSH2 0x48AF JUMP JUMPDEST SWAP1 POP SWAP2 SWAP1 POP JUMP JUMPDEST PUSH32 0x496E73756666696369656E742066756E647320666F72206272656564696E6700 PUSH0 DUP3 ADD MSTORE POP JUMP JUMPDEST PUSH0 PUSH2 0x4923 PUSH1 0x1F DUP4 PUSH2 0x3F6B JUMP JUMPDEST SWAP2 POP PUSH2 0x492E DUP3 PUSH2 0x48EF JUMP JUMPDEST PUSH1 0x20 DUP3 ADD SWAP1 POP SWAP2 SWAP1 POP JUMP JUMPDEST PUSH0 PUSH1 0x20 DUP3 ADD SWAP1 POP DUP2 DUP2 SUB PUSH0 DUP4 ADD MSTORE PUSH2 0x4950 DUP2 PUSH2 0x4917 JUMP JUMPDEST SWAP1 POP SWAP2 SWAP1 POP JUMP JUMPDEST PUSH0 DUP2 SWAP1 POP DUP2 PUSH0 MSTORE PUSH1 0x20 PUSH0 KECCAK256 SWAP1 POP SWAP2 SWAP1 POP JUMP JUMPDEST PUSH0 PUSH1 0x20 PUSH1 0x1F DUP4 ADD DIV SWAP1 POP SWAP2 SWAP1 POP JUMP JUMPDEST PUSH0 DUP3 DUP3 SHL SWAP1 POP SWAP3 SWAP2 POP POP JUMP JUMPDEST PUSH0 PUSH1 0x8 DUP4 MUL PUSH2 0x49B3 PUSH32 0xFFFFFFFFFFFFFFFFFFFFFFFFFFFFFFFFFFFFFFFFFFFFFFFFFFFFFFFFFFFFFFFF DUP3 PUSH2 0x4978 JUMP JUMPDEST PUSH2 0x49BD DUP7 DUP4 PUSH2 0x4978 JUMP JUMPDEST SWAP6 POP DUP1 NOT DUP5 AND SWAP4 POP DUP1 DUP7 AND DUP5 OR SWAP3 POP POP POP SWAP4 SWAP3 POP POP POP JUMP JUMPDEST PUSH0 PUSH2 0x49EF PUSH2 0x49EA PUSH2 0x49E5 DUP5 PUSH2 0x400B JUMP JUMPDEST PUSH2 0x46E6 JUMP JUMPDEST PUSH2 0x400B JUMP JUMPDEST SWAP1 POP SWAP2 SWAP1 POP JUMP JUMPDEST PUSH0 DUP2 SWAP1 POP SWAP2 SWAP1 POP JUMP JUMPDEST PUSH2 0x4A08 DUP4 PUSH2 0x49D5 JUMP JUMPDEST PUSH2 0x4A1C PUSH2 0x4A14 DUP3 PUSH2 0x49F6 JUMP JUMPDEST DUP5 DUP5 SLOAD PUSH2 0x4984 JUMP JUMPDEST DUP3 SSTORE POP POP POP POP JUMP JUMPDEST PUSH0 SWAP1 JUMP JUMPDEST PUSH2 0x4A30 PUSH2 0x4A24 JUMP JUMPDEST PUSH2 0x4A3B DUP2 DUP5 DUP5 PUSH2 0x49FF JUMP JUMPDEST POP POP POP JUMP JUMPDEST JUMPDEST DUP2 DUP2 LT ISZERO PUSH2 0x4A5E JUMPI PUSH2 0x4A53 PUSH0 DUP3 PUSH2 0x4A28 JUMP JUMPDEST PUSH1 0x1 DUP2 ADD SWAP1 POP PUSH2 0x4A41 JUMP JUMPDEST POP POP JUMP JUMPDEST PUSH1 0x1F DUP3 GT ISZERO PUSH2 0x4AA3 JUMPI PUSH2 0x4A74 DUP2 PUSH2 0x4957 JUMP JUMPDEST PUSH2 0x4A7D DUP5 PUSH2 0x4969 JUMP JUMPDEST DUP2 ADD PUSH1 0x20 DUP6 LT ISZERO PUSH2 0x4A8C JUMPI DUP2 SWAP1 POP JUMPDEST PUSH2 0x4AA0 PUSH2 0x4A98 DUP6 PUSH2 0x4969 JUMP JUMPDEST DUP4 ADD DUP3 PUSH2 0x4A40 JUMP JUMPDEST POP POP JUMPDEST POP POP POP JUMP JUMPDEST PUSH0 DUP3 DUP3 SHR SWAP1 POP SWAP3 SWAP2 POP POP JUMP JUMPDEST PUSH0 PUSH2 0x4AC3 PUSH0 NOT DUP5 PUSH1 0x8 MUL PUSH2 0x4AA8 JUMP JUMPDEST NOT DUP1 DUP4 AND SWAP2 POP POP SWAP3 SWAP2 POP POP JUMP JUMPDEST PUSH0 PUSH2 0x4ADB DUP4 DUP4 PUSH2 0x4AB4 JUMP JUMPDEST SWAP2 POP DUP3 PUSH1 0x2 MUL DUP3 OR SWAP1 POP SWAP3 SWAP2 POP POP JUMP JUMPDEST PUSH2 0x4AF4 DUP3 PUSH2 0x3F61 JUMP JUMPDEST PUSH8 0xFFFFFFFFFFFFFFFF DUP2 GT ISZERO PUSH2 0x4B0D JUMPI PUSH2 0x4B0C PUSH2 0x4504 JUMP JUMPDEST JUMPDEST PUSH2 0x4B17 DUP3 SLOAD PUSH2 0x4787 JUMP JUMPDEST PUSH2 0x4B22 DUP3 DUP3 DUP6 PUSH2 0x4A62 JUMP JUMPDEST PUSH0 PUSH1 0x20 SWAP1 POP PUSH1 0x1F DUP4 GT PUSH1 0x1 DUP2 EQ PUSH2 0x4B53 JUMPI PUSH0 DUP5 ISZERO PUSH2 0x4B41 JUMPI DUP3 DUP8 ADD MLOAD SWAP1 POP JUMPDEST PUSH2 0x4B4B DUP6 DUP3 PUSH2 0x4AD0 JUMP JUMPDEST DUP7 SSTORE POP PUSH2 0x4BB2 JUMP JUMPDEST PUSH1 0x1F NOT DUP5 AND PUSH2 0x4B61 DUP7 PUSH2 0x4957 JUMP JUMPDEST PUSH0 JUMPDEST DUP3 DUP2 LT ISZERO PUSH2 0x4B88 JUMPI DUP5 DUP10 ADD MLOAD DUP3 SSTORE PUSH1 0x1 DUP3 ADD SWAP2 POP PUSH1 0x20 DUP6 ADD SWAP5 POP PUSH1 0x20 DUP2 ADD SWAP1 POP PUSH2 0x4B63 JUMP JUMPDEST DUP7 DUP4 LT ISZERO PUSH2 0x4BA5 JUMPI DUP5 DUP10 ADD MLOAD PUSH2 0x4BA1 PUSH1 0x1F DUP10 AND DUP3 PUSH2 0x4AB4 JUMP JUMPDEST DUP4 SSTORE POP JUMPDEST PUSH1 0x1 PUSH1 0x2 DUP9 MUL ADD DUP9 SSTORE POP POP POP JUMPDEST POP POP POP POP POP POP JUMP JUMPDEST PUSH0 PUSH1 0x60 DUP3 ADD SWAP1 POP PUSH2 0x4BCD PUSH0 DUP4 ADD DUP7 PUSH2 0x4099 JUMP JUMPDEST PUSH2 0x4BDA PUSH1 0x20 DUP4 ADD DUP6 PUSH2 0x41E2 JUMP JUMPDEST PUSH2 0x4BE7 PUSH1 0x40 DUP4 ADD DUP5 PUSH2 0x4099 JUMP JUMPDEST SWAP5 SWAP4 POP POP POP POP JUMP JUMPDEST PUSH32 0x596F7520646F206E6F74206F776E207468697320746F6B656E00000000000000 PUSH0 DUP3 ADD MSTORE POP JUMP JUMPDEST PUSH0 PUSH2 0x4C23 PUSH1 0x19 DUP4 PUSH2 0x3F6B JUMP JUMPDEST SWAP2 POP PUSH2 0x4C2E DUP3 PUSH2 0x4BEF JUMP JUMPDEST PUSH1 0x20 DUP3 ADD SWAP1 POP SWAP2 SWAP1 POP JUMP JUMPDEST PUSH0 PUSH1 0x20 DUP3 ADD SWAP1 POP DUP2 DUP2 SUB PUSH0 DUP4 ADD MSTORE PUSH2 0x4C50 DUP2 PUSH2 0x4C17 JUMP JUMPDEST SWAP1 POP SWAP2 SWAP1 POP JUMP JUMPDEST PUSH32 0x416C6C206C6567656E6461727920686970706F732068617665206265656E206D PUSH0 DUP3 ADD MSTORE PUSH32 0x696E746564000000000000000000000000000000000000000000000000000000 PUSH1 0x20 DUP3 ADD MSTORE POP JUMP JUMPDEST PUSH0 PUSH2 0x4CB1 PUSH1 0x25 DUP4 PUSH2 0x3F6B JUMP JUMPDEST SWAP2 POP PUSH2 0x4CBC DUP3 PUSH2 0x4C57 JUMP JUMPDEST PUSH1 0x40 DUP3 ADD SWAP1 POP SWAP2 SWAP1 POP JUMP JUMPDEST PUSH0 PUSH1 0x20 DUP3 ADD SWAP1 POP DUP2 DUP2 SUB PUSH0 DUP4 ADD MSTORE PUSH2 0x4CDE DUP2 PUSH2 0x4CA5 JUMP JUMPDEST SWAP1 POP SWAP2 SWAP1 POP JUMP JUMPDEST PUSH32 0x496E73756666696369656E742066756E647320666F72206D696E74696E670000 PUSH0 DUP3 ADD MSTORE POP JUMP JUMPDEST PUSH0 PUSH2 0x4D19 PUSH1 0x1E DUP4 PUSH2 0x3F6B JUMP JUMPDEST SWAP2 POP PUSH2 0x4D24 DUP3 PUSH2 0x4CE5 JUMP JUMPDEST PUSH1 0x20 DUP3 ADD SWAP1 POP SWAP2 SWAP1 POP JUMP JUMPDEST PUSH0 PUSH1 0x20 DUP3 ADD SWAP1 POP DUP2 DUP2 SUB PUSH0 DUP4 ADD MSTORE PUSH2 0x4D46 DUP2 PUSH2 0x4D0D JUMP JUMPDEST SWAP1 POP SWAP2 SWAP1 POP JUMP JUMPDEST PUSH0 DUP2 MLOAD SWAP1 POP PUSH2 0x4D5B DUP2 PUSH2 0x4014 JUMP JUMPDEST SWAP3 SWAP2 POP POP JUMP JUMPDEST PUSH0 PUSH1 0x20 DUP3 DUP5 SUB SLT ISZERO PUSH2 0x4D76 JUMPI PUSH2 0x4D75 PUSH2 0x3EA6 JUMP JUMPDEST JUMPDEST PUSH0 PUSH2 0x4D83 DUP5 DUP3 DUP6 ADD PUSH2 0x4D4D JUMP JUMPDEST SWAP2 POP POP SWAP3 SWAP2 POP POP JUMP JUMPDEST PUSH32 0x596F75206E656564203130302C303030202444554E4720746F206D696E742061 PUSH0 DUP3 ADD MSTORE PUSH32 0x206C6567656E6461727920686970706F00000000000000000000000000000000 PUSH1 0x20 DUP3 ADD MSTORE POP JUMP JUMPDEST PUSH0 PUSH2 0x4DE6 PUSH1 0x30 DUP4 PUSH2 0x3F6B JUMP JUMPDEST SWAP2 POP PUSH2 0x4DF1 DUP3 PUSH2 0x4D8C JUMP JUMPDEST PUSH1 0x40 DUP3 ADD SWAP1 POP SWAP2 SWAP1 POP JUMP JUMPDEST PUSH0 PUSH1 0x20 DUP3 ADD SWAP1 POP DUP2 DUP2 SUB PUSH0 DUP4 ADD MSTORE PUSH2 0x4E13 DUP2 PUSH2 0x4DDA JUMP JUMPDEST SWAP1 POP SWAP2 SWAP1 POP JUMP JUMPDEST PUSH32 0x5265656E7472616E637947756172643A207265656E7472616E742063616C6C00 PUSH0 DUP3 ADD MSTORE POP JUMP JUMPDEST PUSH0 PUSH2 0x4E4E PUSH1 0x1F DUP4 PUSH2 0x3F6B JUMP JUMPDEST SWAP2 POP PUSH2 0x4E59 DUP3 PUSH2 0x4E1A JUMP JUMPDEST PUSH1 0x20 DUP3 ADD SWAP1 POP SWAP2 SWAP1 POP JUMP JUMPDEST PUSH0 PUSH1 0x20 DUP3 ADD SWAP1 POP DUP2 DUP2 SUB PUSH0 DUP4 ADD MSTORE PUSH2 0x4E7B DUP2 PUSH2 0x4E42 JUMP JUMPDEST SWAP1 POP SWAP2 SWAP1 POP JUMP JUMPDEST PUSH0 DUP2 SWAP1 POP SWAP3 SWAP2 POP POP JUMP JUMPDEST PUSH32 0x4272656420486970706F20230000000000000000000000000000000000000000 PUSH0 DUP3 ADD MSTORE POP JUMP JUMPDEST PUSH0 PUSH2 0x4EC0 PUSH1 0xC DUP4 PUSH2 0x4E82 JUMP JUMPDEST SWAP2 POP PUSH2 0x4ECB DUP3 PUSH2 0x4E8C JUMP JUMPDEST PUSH1 0xC DUP3 ADD SWAP1 POP SWAP2 SWAP1 POP JUMP JUMPDEST PUSH0 PUSH2 0x4EE0 DUP3 PUSH2 0x3F61 JUMP JUMPDEST PUSH2 0x4EEA DUP2 DUP6 PUSH2 0x4E82 JUMP JUMPDEST SWAP4 POP PUSH2 0x4EFA DUP2 DUP6 PUSH1 0x20 DUP7 ADD PUSH2 0x3F7B JUMP JUMPDEST DUP1 DUP5 ADD SWAP2 POP POP SWAP3 SWAP2 POP POP JUMP JUMPDEST PUSH0 PUSH2 0x4F10 DUP3 PUSH2 0x4EB4 JUMP JUMPDEST SWAP2 POP PUSH2 0x4F1C DUP3 DUP5 PUSH2 0x4ED6 JUMP JUMPDEST SWAP2 POP DUP2 SWAP1 POP SWAP3 SWAP2 POP POP JUMP JUMPDEST PUSH32 0x4E487B7100000000000000000000000000000000000000000000000000000000 PUSH0 MSTORE PUSH1 0x11 PUSH1 0x4 MSTORE PUSH1 0x24 PUSH0 REVERT JUMPDEST PUSH0 PUSH2 0x4F5E DUP3 PUSH2 0x400B JUMP JUMPDEST SWAP2 POP PUSH2 0x4F69 DUP4 PUSH2 0x400B JUMP JUMPDEST SWAP3 POP DUP3 DUP3 ADD SWAP1 POP DUP1 DUP3 GT ISZERO PUSH2 0x4F81 JUMPI PUSH2 0x4F80 PUSH2 0x4F27 JUMP JUMPDEST JUMPDEST SWAP3 SWAP2 POP POP JUMP JUMPDEST PUSH32 0x4E487B7100000000000000000000000000000000000000000000000000000000 PUSH0 MSTORE PUSH1 0x12 PUSH1 0x4 MSTORE PUSH1 0x24 PUSH0 REVERT JUMPDEST PUSH0 PUSH2 0x4FBE DUP3 PUSH2 0x400B JUMP JUMPDEST SWAP2 POP PUSH2 0x4FC9 DUP4 PUSH2 0x400B JUMP JUMPDEST SWAP3 POP DUP3 PUSH2 0x4FD9 JUMPI PUSH2 0x4FD8 PUSH2 0x4F87 JUMP JUMPDEST JUMPDEST DUP3 DUP3 DIV SWAP1 POP SWAP3 SWAP2 POP POP JUMP JUMPDEST PUSH32 0x4E487B7100000000000000000000000000000000000000000000000000000000 PUSH0 MSTORE PUSH1 0x32 PUSH1 0x4 MSTORE PUSH1 0x24 PUSH0 REVERT JUMPDEST PUSH0 DUP2 SWAP1 POP SWAP3 SWAP2 POP POP JUMP JUMPDEST POP JUMP JUMPDEST PUSH0 PUSH2 0x5029 PUSH0 DUP4 PUSH2 0x5011 JUMP JUMPDEST SWAP2 POP PUSH2 0x5034 DUP3 PUSH2 0x501B JUMP JUMPDEST PUSH0 DUP3 ADD SWAP1 POP SWAP2 SWAP1 POP JUMP JUMPDEST PUSH0 PUSH2 0x5048 DUP3 PUSH2 0x501E JUMP JUMPDEST SWAP2 POP DUP2 SWAP1 POP SWAP2 SWAP1 POP JUMP JUMPDEST PUSH32 0x5472616E73666572206661696C65642E00000000000000000000000000000000 PUSH0 DUP3 ADD MSTORE POP JUMP JUMPDEST PUSH0 PUSH2 0x5086 PUSH1 0x10 DUP4 PUSH2 0x3F6B JUMP JUMPDEST SWAP2 POP PUSH2 0x5091 DUP3 PUSH2 0x5052 JUMP JUMPDEST PUSH1 0x20 DUP3 ADD SWAP1 POP SWAP2 SWAP1 POP JUMP JUMPDEST PUSH0 PUSH1 0x20 DUP3 ADD SWAP1 POP DUP2 DUP2 SUB PUSH0 DUP4 ADD MSTORE PUSH2 0x50B3 DUP2 PUSH2 0x507A JUMP JUMPDEST SWAP1 POP SWAP2 SWAP1 POP JUMP JUMPDEST PUSH0 DUP2 MLOAD SWAP1 POP SWAP2 SWAP1 POP JUMP JUMPDEST PUSH0 DUP3 DUP3 MSTORE PUSH1 0x20 DUP3 ADD SWAP1 POP SWAP3 SWAP2 POP POP JUMP JUMPDEST PUSH0 PUSH2 0x50DE DUP3 PUSH2 0x50BA JUMP JUMPDEST PUSH2 0x50E8 DUP2 DUP6 PUSH2 0x50C4 JUMP JUMPDEST SWAP4 POP PUSH2 0x50F8 DUP2 DUP6 PUSH1 0x20 DUP7 ADD PUSH2 0x3F7B JUMP JUMPDEST PUSH2 0x5101 DUP2 PUSH2 0x3FA3 JUMP JUMPDEST DUP5 ADD SWAP2 POP POP SWAP3 SWAP2 POP POP JUMP JUMPDEST PUSH0 PUSH1 0x80 DUP3 ADD SWAP1 POP PUSH2 0x511F PUSH0 DUP4 ADD DUP8 PUSH2 0x4099 JUMP JUMPDEST PUSH2 0x512C PUSH1 0x20 DUP4 ADD DUP7 PUSH2 0x4099 JUMP JUMPDEST PUSH2 0x5139 PUSH1 0x40 DUP4 ADD DUP6 PUSH2 0x41E2 JUMP JUMPDEST DUP2 DUP2 SUB PUSH1 0x60 DUP4 ADD MSTORE PUSH2 0x514B DUP2 DUP5 PUSH2 0x50D4 JUMP JUMPDEST SWAP1 POP SWAP6 SWAP5 POP POP POP POP POP JUMP JUMPDEST PUSH0 DUP2 MLOAD SWAP1 POP PUSH2 0x5164 DUP2 PUSH2 0x3ED9 JUMP JUMPDEST SWAP3 SWAP2 POP POP JUMP JUMPDEST PUSH0 PUSH1 0x20 DUP3 DUP5 SUB SLT ISZERO PUSH2 0x517F JUMPI PUSH2 0x517E PUSH2 0x3EA6 JUMP JUMPDEST JUMPDEST PUSH0 PUSH2 0x518C DUP5 DUP3 DUP6 ADD PUSH2 0x5156 JUMP JUMPDEST SWAP2 POP POP SWAP3 SWAP2 POP POP JUMP JUMPDEST PUSH32 0x7B226964223A2200000000000000000000000000000000000000000000000000 PUSH0 DUP3 ADD MSTORE POP JUMP JUMPDEST PUSH0 PUSH2 0x51C9 PUSH1 0x7 DUP4 PUSH2 0x4E82 JUMP JUMPDEST SWAP2 POP PUSH2 0x51D4 DUP3 PUSH2 0x5195 JUMP JUMPDEST PUSH1 0x7 DUP3 ADD SWAP1 POP SWAP2 SWAP1 POP JUMP JUMPDEST PUSH32 0x222C226E616D65223A2200000000000000000000000000000000000000000000 PUSH0 DUP3 ADD MSTORE POP JUMP JUMPDEST PUSH0 PUSH2 0x5213 PUSH1 0xA DUP4 PUSH2 0x4E82 JUMP JUMPDEST SWAP2 POP PUSH2 0x521E DUP3 PUSH2 0x51DF JUMP JUMPDEST PUSH1 0xA DUP3 ADD SWAP1 POP SWAP2 SWAP1 POP JUMP JUMPDEST PUSH32 0x222C226465736372697074696F6E223A22000000000000000000000000000000 PUSH0 DUP3 ADD MSTORE POP JUMP JUMPDEST PUSH0 PUSH2 0x525D PUSH1 0x11 DUP4 PUSH2 0x4E82 JUMP JUMPDEST SWAP2 POP PUSH2 0x5268 DUP3 PUSH2 0x5229 JUMP JUMPDEST PUSH1 0x11 DUP3 ADD SWAP1 POP SWAP2 SWAP1 POP JUMP JUMPDEST PUSH32 0x222C2261747472696275746573223A0000000000000000000000000000000000 PUSH0 DUP3 ADD MSTORE POP JUMP JUMPDEST PUSH0 PUSH2 0x52A7 PUSH1 0xF DUP4 PUSH2 0x4E82 JUMP JUMPDEST SWAP2 POP PUSH2 0x52B2 DUP3 PUSH2 0x5273 JUMP JUMPDEST PUSH1 0xF DUP3 ADD SWAP1 POP SWAP2 SWAP1 POP JUMP JUMPDEST PUSH0 PUSH2 0x52C7 DUP3 PUSH2 0x50BA JUMP JUMPDEST PUSH2 0x52D1 DUP2 DUP6 PUSH2 0x5011 JUMP JUMPDEST SWAP4 POP PUSH2 0x52E1 DUP2 DUP6 PUSH1 0x20 DUP7 ADD PUSH2 0x3F7B JUMP JUMPDEST DUP1 DUP5 ADD SWAP2 POP POP SWAP3 SWAP2 POP POP JUMP JUMPDEST PUSH32 0x7D00000000000000000000000000000000000000000000000000000000000000 PUSH0 DUP3 ADD MSTORE POP JUMP JUMPDEST PUSH0 PUSH2 0x5321 PUSH1 0x1 DUP4 PUSH2 0x4E82 JUMP JUMPDEST SWAP2 POP PUSH2 0x532C DUP3 PUSH2 0x52ED JUMP JUMPDEST PUSH1 0x1 DUP3 ADD SWAP1 POP SWAP2 SWAP1 POP JUMP JUMPDEST PUSH0 PUSH2 0x5341 DUP3 PUSH2 0x51BD JUMP JUMPDEST SWAP2 POP PUSH2 0x534D DUP3 DUP8 PUSH2 0x4ED6 JUMP JUMPDEST SWAP2 POP PUSH2 0x5358 DUP3 PUSH2 0x5207 JUMP JUMPDEST SWAP2 POP PUSH2 0x5364 DUP3 DUP7 PUSH2 0x4ED6 JUMP JUMPDEST SWAP2 POP PUSH2 0x536F DUP3 PUSH2 0x5251 JUMP JUMPDEST SWAP2 POP PUSH2 0x537B DUP3 DUP6 PUSH2 0x4ED6 JUMP JUMPDEST SWAP2 POP PUSH2 0x5386 DUP3 PUSH2 0x529B JUMP JUMPDEST SWAP2 POP PUSH2 0x5392 DUP3 DUP5 PUSH2 0x52BD JUMP JUMPDEST SWAP2 POP PUSH2 0x539D DUP3 PUSH2 0x5315 JUMP JUMPDEST SWAP2 POP DUP2 SWAP1 POP SWAP6 SWAP5 POP POP POP POP POP JUMP JUMPDEST PUSH32 0x646174613A6170706C69636174696F6E2F6A736F6E3B6261736536342C000000 PUSH0 DUP3 ADD MSTORE POP JUMP JUMPDEST PUSH0 PUSH2 0x53DF PUSH1 0x1D DUP4 PUSH2 0x4E82 JUMP JUMPDEST SWAP2 POP PUSH2 0x53EA DUP3 PUSH2 0x53AB JUMP JUMPDEST PUSH1 0x1D DUP3 ADD SWAP1 POP SWAP2 SWAP1 POP JUMP JUMPDEST PUSH0 PUSH2 0x53FF DUP3 PUSH2 0x53D3 JUMP JUMPDEST SWAP2 POP PUSH2 0x540B DUP3 DUP5 PUSH2 0x4ED6 JUMP JUMPDEST SWAP2 POP DUP2 SWAP1 POP SWAP3 SWAP2 POP POP JUMP JUMPDEST PUSH32 0x4C6567656E6461727920486970706F2023000000000000000000000000000000 PUSH0 DUP3 ADD MSTORE POP JUMP JUMPDEST PUSH0 PUSH2 0x544A PUSH1 0x11 DUP4 PUSH2 0x4E82 JUMP JUMPDEST SWAP2 POP PUSH2 0x5455 DUP3 PUSH2 0x5416 JUMP JUMPDEST PUSH1 0x11 DUP3 ADD SWAP1 POP SWAP2 SWAP1 POP JUMP JUMPDEST PUSH0 PUSH2 0x546A DUP3 PUSH2 0x543E JUMP JUMPDEST SWAP2 POP PUSH2 0x5476 DUP3 DUP5 PUSH2 0x4ED6 JUMP JUMPDEST SWAP2 POP DUP2 SWAP1 POP SWAP3 SWAP2 POP POP JUMP JUMPDEST PUSH0 DUP2 SWAP1 POP SWAP2 SWAP1 POP JUMP JUMPDEST PUSH2 0x549B PUSH2 0x5496 DUP3 PUSH2 0x400B JUMP JUMPDEST PUSH2 0x5481 JUMP JUMPDEST DUP3 MSTORE POP POP JUMP JUMPDEST PUSH0 DUP2 PUSH1 0x60 SHL SWAP1 POP SWAP2 SWAP1 POP JUMP JUMPDEST PUSH0 PUSH2 0x54B7 DUP3 PUSH2 0x54A1 JUMP JUMPDEST SWAP1 POP SWAP2 SWAP1 POP JUMP JUMPDEST PUSH0 PUSH2 0x54C8 DUP3 PUSH2 0x54AD JUMP JUMPDEST SWAP1 POP SWAP2 SWAP1 POP JUMP JUMPDEST PUSH2 0x54E0 PUSH2 0x54DB DUP3 PUSH2 0x4088 JUMP JUMPDEST PUSH2 0x54BE JUMP JUMPDEST DUP3 MSTORE POP POP JUMP JUMPDEST PUSH0 PUSH2 0x54F1 DUP3 DUP8 PUSH2 0x548A JUMP JUMPDEST PUSH1 0x20 DUP3 ADD SWAP2 POP PUSH2 0x5501 DUP3 DUP7 PUSH2 0x54CF JUMP JUMPDEST PUSH1 0x14 DUP3 ADD SWAP2 POP PUSH2 0x5511 DUP3 DUP6 PUSH2 0x548A JUMP JUMPDEST PUSH1 0x20 DUP3 ADD SWAP2 POP PUSH2 0x5521 DUP3 DUP5 PUSH2 0x548A JUMP JUMPDEST PUSH1 0x20 DUP3 ADD SWAP2 POP DUP2 SWAP1 POP SWAP6 SWAP5 POP POP POP POP POP JUMP JUMPDEST PUSH0 PUSH2 0x553D DUP3 PUSH2 0x400B JUMP JUMPDEST SWAP2 POP PUSH2 0x5548 DUP4 PUSH2 0x400B JUMP JUMPDEST SWAP3 POP DUP3 PUSH2 0x5558 JUMPI PUSH2 0x5557 PUSH2 0x4F87 JUMP JUMPDEST JUMPDEST DUP3 DUP3 MOD SWAP1 POP SWAP3 SWAP2 POP POP JUMP JUMPDEST PUSH0 PUSH1 0x40 DUP3 ADD SWAP1 POP PUSH2 0x5576 PUSH0 DUP4 ADD DUP6 PUSH2 0x4099 JUMP JUMPDEST PUSH2 0x5583 PUSH1 0x20 DUP4 ADD DUP5 PUSH2 0x41E2 JUMP JUMPDEST SWAP4 SWAP3 POP POP POP JUMP JUMPDEST PUSH32 0x5B7B2274726169745F74797065223A22456E7669726F6E6D656E74222C227661 PUSH0 DUP3 ADD MSTORE PUSH32 0x6C7565223A220000000000000000000000000000000000000000000000000000 PUSH1 0x20 DUP3 ADD MSTORE POP JUMP JUMPDEST PUSH0 PUSH2 0x55E4 PUSH1 0x26 DUP4 PUSH2 0x4E82 JUMP JUMPDEST SWAP2 POP PUSH2 0x55EF DUP3 PUSH2 0x558A JUMP JUMPDEST PUSH1 0x26 DUP3 ADD SWAP1 POP SWAP2 SWAP1 POP JUMP JUMPDEST PUSH32 0x227D2C0000000000000000000000000000000000000000000000000000000000 PUSH0 DUP3 ADD MSTORE POP JUMP JUMPDEST PUSH0 PUSH2 0x562E PUSH1 0x3 DUP4 PUSH2 0x4E82 JUMP JUMPDEST SWAP2 POP PUSH2 0x5639 DUP3 PUSH2 0x55FA JUMP JUMPDEST PUSH1 0x3 DUP3 ADD SWAP1 POP SWAP2 SWAP1 POP JUMP JUMPDEST PUSH32 0x7B2274726169745F74797065223A22537472656E677468222C2276616C756522 PUSH0 DUP3 ADD MSTORE PUSH32 0x3A22000000000000000000000000000000000000000000000000000000000000 PUSH1 0x20 DUP3 ADD MSTORE POP JUMP JUMPDEST PUSH0 PUSH2 0x569E PUSH1 0x22 DUP4 PUSH2 0x4E82 JUMP JUMPDEST SWAP2 POP PUSH2 0x56A9 DUP3 PUSH2 0x5644 JUMP JUMPDEST PUSH1 0x22 DUP3 ADD SWAP1 POP SWAP2 SWAP1 POP JUMP JUMPDEST PUSH32 0x7B2274726169745F74797065223A22456E647572616E6365222C2276616C7565 PUSH0 DUP3 ADD MSTORE PUSH32 0x223A220000000000000000000000000000000000000000000000000000000000 PUSH1 0x20 DUP3 ADD MSTORE POP JUMP JUMPDEST PUSH0 PUSH2 0x570E PUSH1 0x23 DUP4 PUSH2 0x4E82 JUMP JUMPDEST SWAP2 POP PUSH2 0x5719 DUP3 PUSH2 0x56B4 JUMP JUMPDEST PUSH1 0x23 DUP3 ADD SWAP1 POP SWAP2 SWAP1 POP JUMP JUMPDEST PUSH32 0x7B2274726169745F74797065223A225370656564222C2276616C7565223A2200 PUSH0 DUP3 ADD MSTORE POP JUMP JUMPDEST PUSH0 PUSH2 0x5758 PUSH1 0x1F DUP4 PUSH2 0x4E82 JUMP JUMPDEST SWAP2 POP PUSH2 0x5763 DUP3 PUSH2 0x5724 JUMP JUMPDEST PUSH1 0x1F DUP3 ADD SWAP1 POP SWAP2 SWAP1 POP JUMP JUMPDEST PUSH32 0x7B2274726169745F74797065223A224A7569636564204C6576656C222C227661 PUSH0 DUP3 ADD MSTORE PUSH32 0x6C7565223A220000000000000000000000000000000000000000000000000000 PUSH1 0x20 DUP3 ADD MSTORE POP JUMP JUMPDEST PUSH0 PUSH2 0x57C8 PUSH1 0x26 DUP4 PUSH2 0x4E82 JUMP JUMPDEST SWAP2 POP PUSH2 0x57D3 DUP3 PUSH2 0x576E JUMP JUMPDEST PUSH1 0x26 DUP3 ADD SWAP1 POP SWAP2 SWAP1 POP JUMP JUMPDEST PUSH32 0x7B2274726169745F74797065223A22526172697479222C2276616C7565223A22 PUSH0 DUP3 ADD MSTORE POP JUMP JUMPDEST PUSH0 PUSH2 0x5812 PUSH1 0x20 DUP4 PUSH2 0x4E82 JUMP JUMPDEST SWAP2 POP PUSH2 0x581D DUP3 PUSH2 0x57DE JUMP JUMPDEST PUSH1 0x20 DUP3 ADD SWAP1 POP SWAP2 SWAP1 POP JUMP JUMPDEST PUSH32 0x7B2274726169745F74797065223A225370656369616C205472616974222C2276 PUSH0 DUP3 ADD MSTORE PUSH32 0x616C7565223A2200000000000000000000000000000000000000000000000000 PUSH1 0x20 DUP3 ADD MSTORE POP JUMP JUMPDEST PUSH0 PUSH2 0x5882 PUSH1 0x27 DUP4 PUSH2 0x4E82 JUMP JUMPDEST SWAP2 POP PUSH2 0x588D DUP3 PUSH2 0x5828 JUMP JUMPDEST PUSH1 0x27 DUP3 ADD SWAP1 POP SWAP2 SWAP1 POP JUMP JUMPDEST PUSH32 0x227D5D0000000000000000000000000000000000000000000000000000000000 PUSH0 DUP3 ADD MSTORE POP JUMP JUMPDEST PUSH0 PUSH2 0x58CC PUSH1 0x3 DUP4 PUSH2 0x4E82 JUMP JUMPDEST SWAP2 POP PUSH2 0x58D7 DUP3 PUSH2 0x5898 JUMP JUMPDEST PUSH1 0x3 DUP3 ADD SWAP1 POP SWAP2 SWAP1 POP JUMP JUMPDEST PUSH0 PUSH2 0x58EC DUP3 PUSH2 0x55D8 JUMP JUMPDEST SWAP2 POP PUSH2 0x58F8 DUP3 DUP11 PUSH2 0x4ED6 JUMP JUMPDEST SWAP2 POP PUSH2 0x5903 DUP3 PUSH2 0x5622 JUMP JUMPDEST SWAP2 POP PUSH2 0x590E DUP3 PUSH2 0x5692 JUMP JUMPDEST SWAP2 POP PUSH2 0x591A DUP3 DUP10 PUSH2 0x4ED6 JUMP JUMPDEST SWAP2 POP PUSH2 0x5925 DUP3 PUSH2 0x5622 JUMP JUMPDEST SWAP2 POP PUSH2 0x5930 DUP3 PUSH2 0x5702 JUMP JUMPDEST SWAP2 POP PUSH2 0x593C DUP3 DUP9 PUSH2 0x4ED6 JUMP JUMPDEST SWAP2 POP PUSH2 0x5947 DUP3 PUSH2 0x5622 JUMP JUMPDEST SWAP2 POP PUSH2 0x5952 DUP3 PUSH2 0x574C JUMP JUMPDEST SWAP2 POP PUSH2 0x595E DUP3 DUP8 PUSH2 0x4ED6 JUMP JUMPDEST SWAP2 POP PUSH2 0x5969 DUP3 PUSH2 0x5622 JUMP JUMPDEST SWAP2 POP PUSH2 0x5974 DUP3 PUSH2 0x57BC JUMP JUMPDEST SWAP2 POP PUSH2 0x5980 DUP3 DUP7 PUSH2 0x4ED6 JUMP JUMPDEST SWAP2 POP PUSH2 0x598B DUP3 PUSH2 0x5622 JUMP JUMPDEST SWAP2 POP PUSH2 0x5996 DUP3 PUSH2 0x5806 JUMP JUMPDEST SWAP2 POP PUSH2 0x59A2 DUP3 DUP6 PUSH2 0x4ED6 JUMP JUMPDEST SWAP2 POP PUSH2 0x59AD DUP3 PUSH2 0x5622 JUMP JUMPDEST SWAP2 POP PUSH2 0x59B8 DUP3 PUSH2 0x5876 JUMP JUMPDEST SWAP2 POP PUSH2 0x59C4 DUP3 DUP5 PUSH2 0x4ED6 JUMP JUMPDEST SWAP2 POP PUSH2 0x59CF DUP3 PUSH2 0x58C0 JUMP JUMPDEST SWAP2 POP DUP2 SWAP1 POP SWAP9 SWAP8 POP POP POP POP POP POP POP POP JUMP JUMPDEST PUSH0 PUSH2 0x59EA DUP3 PUSH2 0x400B JUMP JUMPDEST SWAP2 POP PUSH2 0x59F5 DUP4 PUSH2 0x400B JUMP JUMPDEST SWAP3 POP DUP3 DUP3 MUL PUSH2 0x5A03 DUP2 PUSH2 0x400B JUMP JUMPDEST SWAP2 POP DUP3 DUP3 DIV DUP5 EQ DUP4 ISZERO OR PUSH2 0x5A1A JUMPI PUSH2 0x5A19 PUSH2 0x4F27 JUMP JUMPDEST JUMPDEST POP SWAP3 SWAP2 POP POP JUMP INVALID COINBASE KECCAK256 PUSH9 0x6970706F2062726564 KECCAK256 PUSH7 0x726F6D2074776F KECCAK256 PUSH13 0x6567656E646172792070617265 PUSH15 0x74732E4142434445464748494A4B4C 0x4D 0x4E 0x4F POP MLOAD MSTORE MSTORE8 SLOAD SSTORE JUMP JUMPI PC MSIZE GAS PUSH2 0x6263 PUSH5 0x6566676869 PUSH11 0x6B6C6D6E6F707172737475 PUSH23 0x7778797A303132333435363738392B2F41206C6567656E PUSH5 0x6172792068 PUSH10 0x70706F20776974682075 PUSH15 0x69717565207472616974732EA26469 PUSH17 0x6673582212209F2C9792F242D74142D4C3 0xD6 0x25 0xBC JUMPDEST 0xBB SWAP5 PC 0xD8 ADDMOD 0xE6 0xCC 0xCA 0xB9 DUP15 SWAP6 CALLDATALOAD MUL 0x4C LOG3 AND SWAP14 PUSH5 0x736F6C6343 STOP ADDMOD EQ STOP CALLER "
		},
		"gasEstimates": {
			"creation": {
				"codeDepositCost": "4653600",
				"executionCost": "infinite",
				"totalCost": "infinite"
			},
			"external": {
				"approve(address,uint256)": "infinite",
				"balanceOf(address)": "infinite",
				"baseURI()": "infinite",
				"breedNft(uint256,uint256)": "infinite",
				"burnToken(uint256)": "infinite",
				"devWallet()": "2576",
				"dungRequirement()": "2491",
				"dungToken()": "infinite",
				"environments(uint256)": "infinite",
				"getApproved(uint256)": "infinite",
				"isApprovedForAll(address,address)": "infinite",
				"maxSupply()": "2536",
				"mintCost()": "2514",
				"mintLegendaryHippo()": "infinite",
				"minted(uint256)": "infinite",
				"name()": "infinite",
				"owner()": "2561",
				"ownerOf(uint256)": "infinite",
				"rarities(uint256)": "infinite",
				"renounceOwnership()": "infinite",
				"safeTransferFrom(address,address,uint256)": "infinite",
				"safeTransferFrom(address,address,uint256,bytes)": "infinite",
				"setApprovalForAll(address,bool)": "infinite",
				"specialTraits(uint256)": "infinite",
				"stakingPoolWallet()": "2620",
				"steroidBalance(address)": "2913",
				"steroidCost()": "2515",
				"supportsInterface(bytes4)": "946",
				"symbol()": "infinite",
				"tokenIdExist(uint256)": "2874",
				"tokenURI(uint256)": "infinite",
				"transferFrom(address,address,uint256)": "infinite",
				"transferOwnership(address)": "infinite"
			},
			"internal": {
				"_baseURI()": "infinite",
				"_performMinting(uint256)": "infinite",
				"buildAttributesJson(string memory,uint256,uint256,uint256,uint256,string memory,string memory)": "infinite",
				"buildMetadata(uint256)": "infinite",
				"generateBreededTraits(uint256,uint256)": "infinite",
				"generateLegendaryTraits(uint256)": "infinite",
				"payTo(address,uint256)": "infinite",
				"randomNum(uint256,uint256,uint256)": "infinite",
				"transformToTrenHippo(uint256)": "infinite"
			}
		},
		"methodIdentifiers": {
			"approve(address,uint256)": "095ea7b3",
			"balanceOf(address)": "70a08231",
			"baseURI()": "6c0360eb",
			"breedNft(uint256,uint256)": "11f5a1d4",
			"burnToken(uint256)": "7b47ec1a",
			"devWallet()": "8ea5220f",
			"dungRequirement()": "db187f8d",
			"dungToken()": "fd557633",
			"environments(uint256)": "c3784536",
			"getApproved(uint256)": "081812fc",
			"isApprovedForAll(address,address)": "e985e9c5",
			"maxSupply()": "d5abeb01",
			"mintCost()": "bdb4b848",
			"mintLegendaryHippo()": "cd5661f0",
			"minted(uint256)": "7dc0bf3f",
			"name()": "06fdde03",
			"owner()": "8da5cb5b",
			"ownerOf(uint256)": "6352211e",
			"rarities(uint256)": "17b8e1cf",
			"renounceOwnership()": "715018a6",
			"safeTransferFrom(address,address,uint256)": "42842e0e",
			"safeTransferFrom(address,address,uint256,bytes)": "b88d4fde",
			"setApprovalForAll(address,bool)": "a22cb465",
			"specialTraits(uint256)": "da4e1817",
			"stakingPoolWallet()": "26190b47",
			"steroidBalance(address)": "7e9baec2",
			"steroidCost()": "933a4601",
			"supportsInterface(bytes4)": "01ffc9a7",
			"symbol()": "95d89b41",
			"tokenIdExist(uint256)": "cf63edea",
			"tokenURI(uint256)": "c87b56dd",
			"transferFrom(address,address,uint256)": "23b872dd",
			"transferOwnership(address)": "f2fde38b"
		}
	},
	"abi": [
		{
			"inputs": [
				{
					"internalType": "string",
					"name": "_name",
					"type": "string"
				},
				{
					"internalType": "string",
					"name": "initialBaseURI",
					"type": "string"
				},
				{
					"internalType": "address",
					"name": "_dungToken",
					"type": "address"
				},
				{
					"internalType": "address",
					"name": "_devWallet",
					"type": "address"
				},
				{
					"internalType": "address",
					"name": "_stakingPoolWallet",
					"type": "address"
				}
			],
			"stateMutability": "nonpayable",
			"type": "constructor"
		},
		{
			"inputs": [
				{
					"internalType": "address",
					"name": "sender",
					"type": "address"
				},
				{
					"internalType": "uint256",
					"name": "tokenId",
					"type": "uint256"
				},
				{
					"internalType": "address",
					"name": "owner",
					"type": "address"
				}
			],
			"name": "ERC721IncorrectOwner",
			"type": "error"
		},
		{
			"inputs": [
				{
					"internalType": "address",
					"name": "operator",
					"type": "address"
				},
				{
					"internalType": "uint256",
					"name": "tokenId",
					"type": "uint256"
				}
			],
			"name": "ERC721InsufficientApproval",
			"type": "error"
		},
		{
			"inputs": [
				{
					"internalType": "address",
					"name": "approver",
					"type": "address"
				}
			],
			"name": "ERC721InvalidApprover",
			"type": "error"
		},
		{
			"inputs": [
				{
					"internalType": "address",
					"name": "operator",
					"type": "address"
				}
			],
			"name": "ERC721InvalidOperator",
			"type": "error"
		},
		{
			"inputs": [
				{
					"internalType": "address",
					"name": "owner",
					"type": "address"
				}
			],
			"name": "ERC721InvalidOwner",
			"type": "error"
		},
		{
			"inputs": [
				{
					"internalType": "address",
					"name": "receiver",
					"type": "address"
				}
			],
			"name": "ERC721InvalidReceiver",
			"type": "error"
		},
		{
			"inputs": [
				{
					"internalType": "address",
					"name": "sender",
					"type": "address"
				}
			],
			"name": "ERC721InvalidSender",
			"type": "error"
		},
		{
			"inputs": [
				{
					"internalType": "uint256",
					"name": "tokenId",
					"type": "uint256"
				}
			],
			"name": "ERC721NonexistentToken",
			"type": "error"
		},
		{
			"inputs": [
				{
					"internalType": "address",
					"name": "owner",
					"type": "address"
				}
			],
			"name": "OwnableInvalidOwner",
			"type": "error"
		},
		{
			"inputs": [
				{
					"internalType": "address",
					"name": "account",
					"type": "address"
				}
			],
			"name": "OwnableUnauthorizedAccount",
			"type": "error"
		},
		{
			"anonymous": false,
			"inputs": [
				{
					"indexed": true,
					"internalType": "address",
					"name": "owner",
					"type": "address"
				},
				{
					"indexed": true,
					"internalType": "address",
					"name": "approved",
					"type": "address"
				},
				{
					"indexed": true,
					"internalType": "uint256",
					"name": "tokenId",
					"type": "uint256"
				}
			],
			"name": "Approval",
			"type": "event"
		},
		{
			"anonymous": false,
			"inputs": [
				{
					"indexed": true,
					"internalType": "address",
					"name": "owner",
					"type": "address"
				},
				{
					"indexed": true,
					"internalType": "address",
					"name": "operator",
					"type": "address"
				},
				{
					"indexed": false,
					"internalType": "bool",
					"name": "approved",
					"type": "bool"
				}
			],
			"name": "ApprovalForAll",
			"type": "event"
		},
		{
			"anonymous": false,
			"inputs": [
				{
					"indexed": false,
					"internalType": "uint256",
					"name": "_fromTokenId",
					"type": "uint256"
				},
				{
					"indexed": false,
					"internalType": "uint256",
					"name": "_toTokenId",
					"type": "uint256"
				}
			],
			"name": "BatchMetadataUpdate",
			"type": "event"
		},
		{
			"anonymous": false,
			"inputs": [
				{
					"indexed": true,
					"internalType": "address",
					"name": "owner",
					"type": "address"
				},
				{
					"indexed": true,
					"internalType": "uint256",
					"name": "tokenId",
					"type": "uint256"
				}
			],
			"name": "HippoBred",
			"type": "event"
		},
		{
			"anonymous": false,
			"inputs": [
				{
					"indexed": true,
					"internalType": "address",
					"name": "owner",
					"type": "address"
				},
				{
					"indexed": true,
					"internalType": "uint256",
					"name": "tokenId",
					"type": "uint256"
				}
			],
			"name": "HippoMinted",
			"type": "event"
		},
		{
			"anonymous": false,
			"inputs": [
				{
					"indexed": true,
					"internalType": "uint256",
					"name": "tokenId",
					"type": "uint256"
				},
				{
					"indexed": false,
					"internalType": "string",
					"name": "newName",
					"type": "string"
				}
			],
			"name": "HippoTransformed",
			"type": "event"
		},
		{
			"anonymous": false,
			"inputs": [
				{
					"indexed": false,
					"internalType": "uint256",
					"name": "_tokenId",
					"type": "uint256"
				}
			],
			"name": "MetadataUpdate",
			"type": "event"
		},
		{
			"anonymous": false,
			"inputs": [
				{
					"indexed": true,
					"internalType": "address",
					"name": "previousOwner",
					"type": "address"
				},
				{
					"indexed": true,
					"internalType": "address",
					"name": "newOwner",
					"type": "address"
				}
			],
			"name": "OwnershipTransferred",
			"type": "event"
		},
		{
			"anonymous": false,
			"inputs": [
				{
					"indexed": true,
					"internalType": "address",
					"name": "buyer",
					"type": "address"
				},
				{
					"indexed": false,
					"internalType": "uint256",
					"name": "amount",
					"type": "uint256"
				}
			],
			"name": "SteroidPurchased",
			"type": "event"
		},
		{
			"anonymous": false,
			"inputs": [
				{
					"indexed": true,
					"internalType": "address",
					"name": "from",
					"type": "address"
				},
				{
					"indexed": true,
					"internalType": "address",
					"name": "to",
					"type": "address"
				},
				{
					"indexed": true,
					"internalType": "uint256",
					"name": "tokenId",
					"type": "uint256"
				}
			],
			"name": "Transfer",
			"type": "event"
		},
		{
			"inputs": [
				{
					"internalType": "address",
					"name": "to",
					"type": "address"
				},
				{
					"internalType": "uint256",
					"name": "tokenId",
					"type": "uint256"
				}
			],
			"name": "approve",
			"outputs": [],
			"stateMutability": "nonpayable",
			"type": "function"
		},
		{
			"inputs": [
				{
					"internalType": "address",
					"name": "owner",
					"type": "address"
				}
			],
			"name": "balanceOf",
			"outputs": [
				{
					"internalType": "uint256",
					"name": "",
					"type": "uint256"
				}
			],
			"stateMutability": "view",
			"type": "function"
		},
		{
			"inputs": [],
			"name": "baseURI",
			"outputs": [
				{
					"internalType": "string",
					"name": "",
					"type": "string"
				}
			],
			"stateMutability": "view",
			"type": "function"
		},
		{
			"inputs": [
				{
					"internalType": "uint256",
					"name": "fatherTokenId",
					"type": "uint256"
				},
				{
					"internalType": "uint256",
					"name": "motherTokenId",
					"type": "uint256"
				}
			],
			"name": "breedNft",
			"outputs": [],
			"stateMutability": "payable",
			"type": "function"
		},
		{
			"inputs": [
				{
					"internalType": "uint256",
					"name": "tokenId",
					"type": "uint256"
				}
			],
			"name": "burnToken",
			"outputs": [],
			"stateMutability": "nonpayable",
			"type": "function"
		},
		{
			"inputs": [],
			"name": "devWallet",
			"outputs": [
				{
					"internalType": "address",
					"name": "",
					"type": "address"
				}
			],
			"stateMutability": "view",
			"type": "function"
		},
		{
			"inputs": [],
			"name": "dungRequirement",
			"outputs": [
				{
					"internalType": "uint256",
					"name": "",
					"type": "uint256"
				}
			],
			"stateMutability": "view",
			"type": "function"
		},
		{
			"inputs": [],
			"name": "dungToken",
			"outputs": [
				{
					"internalType": "contract IDungToken",
					"name": "",
					"type": "address"
				}
			],
			"stateMutability": "view",
			"type": "function"
		},
		{
			"inputs": [
				{
					"internalType": "uint256",
					"name": "",
					"type": "uint256"
				}
			],
			"name": "environments",
			"outputs": [
				{
					"internalType": "string",
					"name": "",
					"type": "string"
				}
			],
			"stateMutability": "view",
			"type": "function"
		},
		{
			"inputs": [
				{
					"internalType": "uint256",
					"name": "tokenId",
					"type": "uint256"
				}
			],
			"name": "getApproved",
			"outputs": [
				{
					"internalType": "address",
					"name": "",
					"type": "address"
				}
			],
			"stateMutability": "view",
			"type": "function"
		},
		{
			"inputs": [
				{
					"internalType": "address",
					"name": "owner",
					"type": "address"
				},
				{
					"internalType": "address",
					"name": "operator",
					"type": "address"
				}
			],
			"name": "isApprovedForAll",
			"outputs": [
				{
					"internalType": "bool",
					"name": "",
					"type": "bool"
				}
			],
			"stateMutability": "view",
			"type": "function"
		},
		{
			"inputs": [],
			"name": "maxSupply",
			"outputs": [
				{
					"internalType": "uint256",
					"name": "",
					"type": "uint256"
				}
			],
			"stateMutability": "view",
			"type": "function"
		},
		{
			"inputs": [],
			"name": "mintCost",
			"outputs": [
				{
					"internalType": "uint256",
					"name": "",
					"type": "uint256"
				}
			],
			"stateMutability": "view",
			"type": "function"
		},
		{
			"inputs": [],
			"name": "mintLegendaryHippo",
			"outputs": [],
			"stateMutability": "payable",
			"type": "function"
		},
		{
			"inputs": [
				{
					"internalType": "uint256",
					"name": "",
					"type": "uint256"
				}
			],
			"name": "minted",
			"outputs": [
				{
					"internalType": "uint256",
					"name": "id",
					"type": "uint256"
				},
				{
					"internalType": "address",
					"name": "owner",
					"type": "address"
				},
				{
					"internalType": "uint256",
					"name": "mintCost",
					"type": "uint256"
				},
				{
					"internalType": "uint256",
					"name": "timestamp",
					"type": "uint256"
				},
				{
					"components": [
						{
							"internalType": "string",
							"name": "name",
							"type": "string"
						},
						{
							"internalType": "string",
							"name": "description",
							"type": "string"
						},
						{
							"internalType": "uint256",
							"name": "strength",
							"type": "uint256"
						},
						{
							"internalType": "uint256",
							"name": "endurance",
							"type": "uint256"
						},
						{
							"internalType": "uint256",
							"name": "speed",
							"type": "uint256"
						},
						{
							"internalType": "uint256",
							"name": "juicedLevel",
							"type": "uint256"
						},
						{
							"internalType": "string",
							"name": "environment",
							"type": "string"
						},
						{
							"internalType": "bool",
							"name": "breeded",
							"type": "bool"
						},
						{
							"internalType": "bool",
							"name": "isTrenHippo",
							"type": "bool"
						},
						{
							"internalType": "uint256[]",
							"name": "parents",
							"type": "uint256[]"
						},
						{
							"internalType": "string",
							"name": "rarity",
							"type": "string"
						},
						{
							"internalType": "string",
							"name": "specialTrait",
							"type": "string"
						}
					],
					"internalType": "struct HippoBreeds.TraitStruct",
					"name": "traits",
					"type": "tuple"
				}
			],
			"stateMutability": "view",
			"type": "function"
		},
		{
			"inputs": [],
			"name": "name",
			"outputs": [
				{
					"internalType": "string",
					"name": "",
					"type": "string"
				}
			],
			"stateMutability": "view",
			"type": "function"
		},
		{
			"inputs": [],
			"name": "owner",
			"outputs": [
				{
					"internalType": "address",
					"name": "",
					"type": "address"
				}
			],
			"stateMutability": "view",
			"type": "function"
		},
		{
			"inputs": [
				{
					"internalType": "uint256",
					"name": "tokenId",
					"type": "uint256"
				}
			],
			"name": "ownerOf",
			"outputs": [
				{
					"internalType": "address",
					"name": "",
					"type": "address"
				}
			],
			"stateMutability": "view",
			"type": "function"
		},
		{
			"inputs": [
				{
					"internalType": "uint256",
					"name": "",
					"type": "uint256"
				}
			],
			"name": "rarities",
			"outputs": [
				{
					"internalType": "string",
					"name": "",
					"type": "string"
				}
			],
			"stateMutability": "view",
			"type": "function"
		},
		{
			"inputs": [],
			"name": "renounceOwnership",
			"outputs": [],
			"stateMutability": "nonpayable",
			"type": "function"
		},
		{
			"inputs": [
				{
					"internalType": "address",
					"name": "from",
					"type": "address"
				},
				{
					"internalType": "address",
					"name": "to",
					"type": "address"
				},
				{
					"internalType": "uint256",
					"name": "tokenId",
					"type": "uint256"
				}
			],
			"name": "safeTransferFrom",
			"outputs": [],
			"stateMutability": "nonpayable",
			"type": "function"
		},
		{
			"inputs": [
				{
					"internalType": "address",
					"name": "from",
					"type": "address"
				},
				{
					"internalType": "address",
					"name": "to",
					"type": "address"
				},
				{
					"internalType": "uint256",
					"name": "tokenId",
					"type": "uint256"
				},
				{
					"internalType": "bytes",
					"name": "data",
					"type": "bytes"
				}
			],
			"name": "safeTransferFrom",
			"outputs": [],
			"stateMutability": "nonpayable",
			"type": "function"
		},
		{
			"inputs": [
				{
					"internalType": "address",
					"name": "operator",
					"type": "address"
				},
				{
					"internalType": "bool",
					"name": "approved",
					"type": "bool"
				}
			],
			"name": "setApprovalForAll",
			"outputs": [],
			"stateMutability": "nonpayable",
			"type": "function"
		},
		{
			"inputs": [
				{
					"internalType": "uint256",
					"name": "",
					"type": "uint256"
				}
			],
			"name": "specialTraits",
			"outputs": [
				{
					"internalType": "string",
					"name": "",
					"type": "string"
				}
			],
			"stateMutability": "view",
			"type": "function"
		},
		{
			"inputs": [],
			"name": "stakingPoolWallet",
			"outputs": [
				{
					"internalType": "address",
					"name": "",
					"type": "address"
				}
			],
			"stateMutability": "view",
			"type": "function"
		},
		{
			"inputs": [
				{
					"internalType": "address",
					"name": "",
					"type": "address"
				}
			],
			"name": "steroidBalance",
			"outputs": [
				{
					"internalType": "uint256",
					"name": "",
					"type": "uint256"
				}
			],
			"stateMutability": "view",
			"type": "function"
		},
		{
			"inputs": [],
			"name": "steroidCost",
			"outputs": [
				{
					"internalType": "uint256",
					"name": "",
					"type": "uint256"
				}
			],
			"stateMutability": "view",
			"type": "function"
		},
		{
			"inputs": [
				{
					"internalType": "bytes4",
					"name": "interfaceId",
					"type": "bytes4"
				}
			],
			"name": "supportsInterface",
			"outputs": [
				{
					"internalType": "bool",
					"name": "",
					"type": "bool"
				}
			],
			"stateMutability": "view",
			"type": "function"
		},
		{
			"inputs": [],
			"name": "symbol",
			"outputs": [
				{
					"internalType": "string",
					"name": "",
					"type": "string"
				}
			],
			"stateMutability": "view",
			"type": "function"
		},
		{
			"inputs": [
				{
					"internalType": "uint256",
					"name": "",
					"type": "uint256"
				}
			],
			"name": "tokenIdExist",
			"outputs": [
				{
					"internalType": "bool",
					"name": "",
					"type": "bool"
				}
			],
			"stateMutability": "view",
			"type": "function"
		},
		{
			"inputs": [
				{
					"internalType": "uint256",
					"name": "tokenId",
					"type": "uint256"
				}
			],
			"name": "tokenURI",
			"outputs": [
				{
					"internalType": "string",
					"name": "",
					"type": "string"
				}
			],
			"stateMutability": "view",
			"type": "function"
		},
		{
			"inputs": [
				{
					"internalType": "address",
					"name": "from",
					"type": "address"
				},
				{
					"internalType": "address",
					"name": "to",
					"type": "address"
				},
				{
					"internalType": "uint256",
					"name": "tokenId",
					"type": "uint256"
				}
			],
			"name": "transferFrom",
			"outputs": [],
			"stateMutability": "nonpayable",
			"type": "function"
		},
		{
			"inputs": [
				{
					"internalType": "address",
					"name": "newOwner",
					"type": "address"
				}
			],
			"name": "transferOwnership",
			"outputs": [],
			"stateMutability": "nonpayable",
			"type": "function"
		}
	]
}